{
  "transactions": [
    {
      "hash": "0x22cadc2124da32bea682e4327a3d0d79099d70b850afdd68e882a7b4a47d5911",
      "transactionType": "CALL",
      "contractName": null,
      "contractAddress": "0x81377c3f7953f534a8b3de0e677f57a1dbd0d3c3",
      "function": "transfer(address,uint256)",
      "arguments": [
        "0x000000000000000000000000DEADBeefDEAdbEeF",
        "101"
      ],
      "transaction": {
        "from": "0x763deb3f81b32e75cb0e3faa95f4bed94871576d",
        "to": "0x81377c3f7953f534a8b3de0e677f57a1dbd0d3c3",
        "gas": "0x6aaa4",
        "value": "0x0",
        "input": "0xa9059cbb000000000000000000000000000000000000000000000000deadbeefdeadbeef0000000000000000000000000000000000000000000000000000000000000065",
        "nonce": "0x144",
        "chainId": "0x14a34"
      },
      "additionalContracts": [],
      "isFixedGasLimit": false
    }
  ],
  "receipts": [
    {
      "status": "0x1",
      "cumulativeGasUsed": "0x2040ca",
      "logs": [
        {
          "address": "0x81377c3f7953f534a8b3de0e677f57a1dbd0d3c3",
          "topics": [
            "0xddf252ad1be2c89b69c2b068fc378daa952ba7f163c4a11628f55a4df523b3ef",
            "0x000000000000000000000000763deb3f81b32e75cb0e3faa95f4bed94871576d",
            "0x000000000000000000000000000000000000000000000000deadbeefdeadbeef"
          ],
          "data": "0x0000000000000000000000000000000000000000000000000000000000000065",
          "blockHash": "0xf797c2bea3f26ba04ecc9cf66399687e0116af6ece302808cd0c611271f4694b",
          "blockNumber": "0x1bf8b74",
          "blockTimestamp": "0x689275c8",
          "transactionHash": "0x22cadc2124da32bea682e4327a3d0d79099d70b850afdd68e882a7b4a47d5911",
          "transactionIndex": "0xa",
          "logIndex": "0x45",
          "removed": false
        }
      ],
      "logsBloom": "0x80000000400000000000000000000000000000000000000000000000000000000000000000000000000000000000000000000000000000000000000000000000000000000000000000000008000200000000000000000000000000000000000000000000000000000000000000000000000000000000000000000010000000000000000100000000000000000000000000000000000000000400000000000000000000000000000000020000000000000000000000000020000000000000000000000002000000000000000000000000000000000000000000000000080000000000000000000000000000000000000000000000000000000000001000000000",
      "type": "0x2",
      "transactionHash": "0x22cadc2124da32bea682e4327a3d0d79099d70b850afdd68e882a7b4a47d5911",
      "transactionIndex": "0xa",
      "blockHash": "0xf797c2bea3f26ba04ecc9cf66399687e0116af6ece302808cd0c611271f4694b",
      "blockNumber": "0x1bf8b74",
      "gasUsed": "0x4d394",
      "effectiveGasPrice": "0xf4277",
      "from": "0x763deb3f81b32e75cb0e3faa95f4bed94871576d",
      "to": "0x81377c3f7953f534a8b3de0e677f57a1dbd0d3c3",
      "contractAddress": null,
      "l1BaseFeeScalar": "0x44d",
      "l1BlobBaseFee": "0x1",
      "l1BlobBaseFeeScalar": "0xa118b",
      "l1Fee": "0x4a786",
      "l1GasPrice": "0x2a43e",
      "l1GasUsed": "0x640"
    }
  ],
  "libraries": [],
  "pending": [],
  "returns": {},
  "timestamp": 1754428870,
  "chain": 84532,
  "commit": "f05e6cf"
}