{
  "transactions": [
    {
      "hash": "0x92fc5d45b5c448bba8433389c873c4a6fdec16139970a7bc4f7f7125c2b9772b",
      "transactionType": "CALL",
      "contractName": null,
      "contractAddress": "0x867b5d7653bc012528164f4c957e9de420f43c01",
      "function": "transfer(address,uint256)",
      "arguments": [
        "0x763DEB3F81B32E75cb0E3FaA95f4bED94871576D",
        "101"
      ],
      "transaction": {
        "from": "0x763deb3f81b32e75cb0e3faa95f4bed94871576d",
        "to": "0x867b5d7653bc012528164f4c957e9de420f43c01",
        "gas": "0x7bbea",
        "value": "0x0",
        "input": "0xa9059cbb000000000000000000000000763deb3f81b32e75cb0e3faa95f4bed94871576d0000000000000000000000000000000000000000000000000000000000000065",
        "nonce": "0xc7",
        "chainId": "0xaa36a7"
      },
      "additionalContracts": [],
      "isFixedGasLimit": false
    },
    {
      "hash": "0xa41dacc5234a0e518841caf094a8f49413030bf4f36bf6a7ba84d077ef930fae",
      "transactionType": "CALL",
      "contractName": null,
      "contractAddress": "0xb0bf6a910926b0bd0286da862332f24e35ed3977",
      "function": "approve(address,uint256)",
      "arguments": [
        "0x000000000000000000000000DEADBeefDEAdbEeF",
        "8"
      ],
      "transaction": {
        "from": "0x763deb3f81b32e75cb0e3faa95f4bed94871576d",
        "to": "0xb0bf6a910926b0bd0286da862332f24e35ed3977",
        "gas": "0x10834",
        "value": "0x0",
        "input": "0x095ea7b3000000000000000000000000000000000000000000000000deadbeefdeadbeef0000000000000000000000000000000000000000000000000000000000000008",
        "nonce": "0xc8",
        "chainId": "0xaa36a7"
      },
      "additionalContracts": [],
      "isFixedGasLimit": false
    },
    {
      "hash": "0xdaa83b27b26aa48d5001c7508deb19e10b59901c60e4d67158aeca66188fb2a2",
      "transactionType": "CALL",
      "contractName": null,
      "contractAddress": "0xb0bf6a910926b0bd0286da862332f24e35ed3977",
      "function": "transferFrom(address,address,uint256)",
      "arguments": [
        "0x763DEB3F81B32E75cb0E3FaA95f4bED94871576D",
        "0x000000000000000000000000DEADBeefDEAdbEeF",
        "8"
      ],
      "transaction": {
        "from": "0x763deb3f81b32e75cb0e3faa95f4bed94871576d",
        "to": "0xb0bf6a910926b0bd0286da862332f24e35ed3977",
        "gas": "0x677cf",
        "value": "0x0",
        "input": "0x23b872dd000000000000000000000000763deb3f81b32e75cb0e3faa95f4bed94871576d000000000000000000000000000000000000000000000000deadbeefdeadbeef0000000000000000000000000000000000000000000000000000000000000008",
        "nonce": "0xc9",
        "chainId": "0xaa36a7"
      },
      "additionalContracts": [],
      "isFixedGasLimit": false
    }
  ],
  "receipts": [
    {
      "status": "0x1",
      "cumulativeGasUsed": "0x225c42a",
      "logs": [
        {
          "address": "0x867b5d7653bc012528164f4c957e9de420f43c01",
          "topics": [
            "0xddf252ad1be2c89b69c2b068fc378daa952ba7f163c4a11628f55a4df523b3ef",
            "0x000000000000000000000000763deb3f81b32e75cb0e3faa95f4bed94871576d",
            "0x000000000000000000000000763deb3f81b32e75cb0e3faa95f4bed94871576d"
          ],
          "data": "0x0000000000000000000000000000000000000000000000000000000000000065",
          "blockHash": "0x4d71f823080b5f44b4e1fab88792dbb2e1afe96d37c0a41d3e8f5be28273cd63",
          "blockNumber": "0x881ae2",
          "blockTimestamp": "0x6892485c",
          "transactionHash": "0x92fc5d45b5c448bba8433389c873c4a6fdec16139970a7bc4f7f7125c2b9772b",
          "transactionIndex": "0x81",
          "logIndex": "0x101",
          "removed": false
        }
      ],
      "logsBloom": "0x00000000000000000000000000000000000000000000000000000000000000000000000000000000000000000000000000000000000000000000000000800000000000000000000000000008000200000000000000000000000000000000000000000000000000000000000000000000000000000000000000000010000002000000000000000000000000000000000000000000000000000400000000000000000000000000000000000000000000000000000000000020000000000400000000000002000000000000000000000000000000000000000000000000000000000000000000000000000000000000000000000000000000000000000000000000",
      "type": "0x2",
      "transactionHash": "0x92fc5d45b5c448bba8433389c873c4a6fdec16139970a7bc4f7f7125c2b9772b",
      "transactionIndex": "0x81",
      "blockHash": "0x4d71f823080b5f44b4e1fab88792dbb2e1afe96d37c0a41d3e8f5be28273cd63",
      "blockNumber": "0x881ae2",
      "gasUsed": "0x5996d",
      "effectiveGasPrice": "0x3dc2559d",
      "from": "0x763deb3f81b32e75cb0e3faa95f4bed94871576d",
      "to": "0x867b5d7653bc012528164f4c957e9de420f43c01",
      "contractAddress": null
    },
    {
      "status": "0x1",
      "cumulativeGasUsed": "0x2268372",
      "logs": [
        {
          "address": "0xb0bf6a910926b0bd0286da862332f24e35ed3977",
          "topics": [
            "0x8c5be1e5ebec7d5bd14f71427d1e84f3dd0314c0f7b2291e5b200ac8c7c3b925",
            "0x000000000000000000000000763deb3f81b32e75cb0e3faa95f4bed94871576d",
            "0x000000000000000000000000000000000000000000000000deadbeefdeadbeef",
            "0x0000000000000000000000000000000000000000000000000000000000000008"
          ],
          "data": "0x",
          "blockHash": "0x4d71f823080b5f44b4e1fab88792dbb2e1afe96d37c0a41d3e8f5be28273cd63",
          "blockNumber": "0x881ae2",
          "blockTimestamp": "0x6892485c",
          "transactionHash": "0xa41dacc5234a0e518841caf094a8f49413030bf4f36bf6a7ba84d077ef930fae",
          "transactionIndex": "0x82",
          "logIndex": "0x102",
          "removed": false
        }
      ],
      "logsBloom": "0x00000000400000000000000000000080000000000000000000000000000000000000000000000000000000000000000000000000000080000000000000200000000000000000000000000000000200000000000000000000000000000000000000000000000000000000000000000000000000000000000000000000000000000080000000000000000000000000000000000000000000000400000000000000020000000000000000000000000000000000000000000020000000000000000040000000000000000000000000000000000000000000000000000000080000000010000000000000000000000008000000002000000000000000001000000000",
      "type": "0x2",
      "transactionHash": "0xa41dacc5234a0e518841caf094a8f49413030bf4f36bf6a7ba84d077ef930fae",
      "transactionIndex": "0x82",
      "blockHash": "0x4d71f823080b5f44b4e1fab88792dbb2e1afe96d37c0a41d3e8f5be28273cd63",
      "blockNumber": "0x881ae2",
      "gasUsed": "0xbf48",
      "effectiveGasPrice": "0x3dc2559d",
      "from": "0x763deb3f81b32e75cb0e3faa95f4bed94871576d",
      "to": "0xb0bf6a910926b0bd0286da862332f24e35ed3977",
      "contractAddress": null
    },
    {
      "status": "0x1",
      "cumulativeGasUsed": "0x22b3239",
      "logs": [
        {
          "address": "0xb0bf6a910926b0bd0286da862332f24e35ed3977",
          "topics": [
            "0xddf252ad1be2c89b69c2b068fc378daa952ba7f163c4a11628f55a4df523b3ef",
            "0x000000000000000000000000763deb3f81b32e75cb0e3faa95f4bed94871576d",
            "0x000000000000000000000000000000000000000000000000deadbeefdeadbeef",
            "0x0000000000000000000000000000000000000000000000000000000000000008"
          ],
          "data": "0x",
          "blockHash": "0x4d71f823080b5f44b4e1fab88792dbb2e1afe96d37c0a41d3e8f5be28273cd63",
          "blockNumber": "0x881ae2",
          "blockTimestamp": "0x6892485c",
          "transactionHash": "0xdaa83b27b26aa48d5001c7508deb19e10b59901c60e4d67158aeca66188fb2a2",
          "transactionIndex": "0x83",
          "logIndex": "0x103",
          "removed": false
        }
      ],
      "logsBloom": "0x00000000400000000000000000000080000000000000000000000000000000000000000000000000000000000000000000000000000080000000000000000000000000000000000000000008000200000000000000000000000000000000000000000000000000000000000000000000000000000000000000000010000000000080000000000000000000000000000000000000000000000400000000000000000000000000000000000000000000000000000000000020000000000000000040000002000000000000000000000000000000000000000000000000080000000000000000000000000000000008000000002000000000000000001000000000",
      "type": "0x2",
      "transactionHash": "0xdaa83b27b26aa48d5001c7508deb19e10b59901c60e4d67158aeca66188fb2a2",
      "transactionIndex": "0x83",
      "blockHash": "0x4d71f823080b5f44b4e1fab88792dbb2e1afe96d37c0a41d3e8f5be28273cd63",
      "blockNumber": "0x881ae2",
      "gasUsed": "0x4aec7",
      "effectiveGasPrice": "0x3dc2559d",
      "from": "0x763deb3f81b32e75cb0e3faa95f4bed94871576d",
      "to": "0xb0bf6a910926b0bd0286da862332f24e35ed3977",
      "contractAddress": null
    }
  ],
  "libraries": [],
  "pending": [],
  "returns": {},
  "timestamp": 1754417244,
  "chain": 11155111,
  "commit": "f05e6cf"
}