{
  "transactions": [
    {
      "hash": "0xfac0adaf4908485f7fbd3901ce4f05e8c62940721123be91c23f7bb51c379da0",
      "transactionType": "CALL",
      "contractName": null,
      "contractAddress": "0x867b5d7653bc012528164f4c957e9de420f43c01",
      "function": "transfer(address,uint256)",
      "arguments": [
        "0x763DEB3F81B32E75cb0E3FaA95f4bED94871576D",
        "101"
      ],
      "transaction": {
        "from": "0x763deb3f81b32e75cb0e3faa95f4bed94871576d",
        "to": "0x867b5d7653bc012528164f4c957e9de420f43c01",
        "gas": "0x227c0",
        "value": "0x0",
        "input": "0xa9059cbb000000000000000000000000763deb3f81b32e75cb0e3faa95f4bed94871576d0000000000000000000000000000000000000000000000000000000000000065",
        "nonce": "0x97",
        "chainId": "0xaa36a7"
      },
      "additionalContracts": [],
      "isFixedGasLimit": false
    },
    {
      "hash": "0xc4ef3ef6244a3109f434d329638dff83e96dd54edb8f3e314b5228b113cd837e",
      "transactionType": "CALL",
      "contractName": null,
      "contractAddress": "0xb0bf6a910926b0bd0286da862332f24e35ed3977",
      "function": "approve(address,uint256)",
      "arguments": [
        "0x000000000000000000000000DEADBeefDEAdbEeF",
        "9"
      ],
      "transaction": {
        "from": "0x763deb3f81b32e75cb0e3faa95f4bed94871576d",
        "to": "0xb0bf6a910926b0bd0286da862332f24e35ed3977",
        "gas": "0x10834",
        "value": "0x0",
        "input": "0x095ea7b3000000000000000000000000000000000000000000000000deadbeefdeadbeef0000000000000000000000000000000000000000000000000000000000000009",
        "nonce": "0x98",
        "chainId": "0xaa36a7"
      },
      "additionalContracts": [],
      "isFixedGasLimit": false
    },
    {
      "hash": "0x1ad2e461193db656a1865bccb029e3100f6e35e879df87bc01cbfdeeb4e40c30",
      "transactionType": "CALL",
      "contractName": null,
      "contractAddress": "0xb0bf6a910926b0bd0286da862332f24e35ed3977",
      "function": "transferFrom(address,address,uint256)",
      "arguments": [
        "0x763DEB3F81B32E75cb0E3FaA95f4bED94871576D",
        "0x000000000000000000000000DEADBeefDEAdbEeF",
        "9"
      ],
      "transaction": {
        "from": "0x763deb3f81b32e75cb0e3faa95f4bed94871576d",
        "to": "0xb0bf6a910926b0bd0286da862332f24e35ed3977",
        "gas": "0x2cf2c",
        "value": "0x0",
        "input": "0x23b872dd000000000000000000000000763deb3f81b32e75cb0e3faa95f4bed94871576d000000000000000000000000000000000000000000000000deadbeefdeadbeef0000000000000000000000000000000000000000000000000000000000000009",
        "nonce": "0x99",
        "chainId": "0xaa36a7"
      },
      "additionalContracts": [],
      "isFixedGasLimit": false
    }
  ],
  "receipts": [
    {
      "status": "0x1",
      "cumulativeGasUsed": "0xc60948",
      "logs": [
        {
          "address": "0x6039c14b2b50577c2f22d943f4984466d6b6d3e1",
          "topics": [
            "0x6196520045be5d24c44e5d713636c5857f2ea10ff6585af27eaeb140f8962397",
            "0x0000000000000000000000000000000000000000000000000000000000000003",
            "0x0000000000000000000000000000000000000000000000000000000000000000"
          ],
          "data": "0x5472616e736665725375636365737366756c0000000000000000000000000000",
          "blockHash": "0xa5eccf01cd9e420d87ceaa0f55b8a0af0f4a9aaaeaa7d7fd891192c2fa967617",
          "blockNumber": "0x8803a0",
          "blockTimestamp": "0x68913048",
          "transactionHash": "0xfac0adaf4908485f7fbd3901ce4f05e8c62940721123be91c23f7bb51c379da0",
          "transactionIndex": "0x59",
          "logIndex": "0x86",
          "removed": false
        },
        {
          "address": "0x867b5d7653bc012528164f4c957e9de420f43c01",
          "topics": [
            "0xddf252ad1be2c89b69c2b068fc378daa952ba7f163c4a11628f55a4df523b3ef",
            "0x000000000000000000000000763deb3f81b32e75cb0e3faa95f4bed94871576d",
            "0x000000000000000000000000763deb3f81b32e75cb0e3faa95f4bed94871576d"
          ],
          "data": "0x0000000000000000000000000000000000000000000000000000000000000065",
          "blockHash": "0xa5eccf01cd9e420d87ceaa0f55b8a0af0f4a9aaaeaa7d7fd891192c2fa967617",
          "blockNumber": "0x8803a0",
          "blockTimestamp": "0x68913048",
          "transactionHash": "0xfac0adaf4908485f7fbd3901ce4f05e8c62940721123be91c23f7bb51c379da0",
          "transactionIndex": "0x59",
          "logIndex": "0x87",
          "removed": false
        }
      ],
      "logsBloom": "0x00000000000000000000000000000000000000000000000000000000000000000000000000000040000000000000000000000000020000000000000000800000000000000000000000000008000200000000000000000000000000000000000000000000020010020000000000000800000000000000000000000010000002000000000000000000000000000000000000000000000000000400000000000000000000000000000000004000000000000000000000800020000000000400400000000002000000000000000000000000000000000000000000000000000028000000000000000000000000000000000000000000000000000000000000000040",
      "type": "0x2",
      "transactionHash": "0xfac0adaf4908485f7fbd3901ce4f05e8c62940721123be91c23f7bb51c379da0",
      "transactionIndex": "0x59",
      "blockHash": "0xa5eccf01cd9e420d87ceaa0f55b8a0af0f4a9aaaeaa7d7fd891192c2fa967617",
      "blockNumber": "0x8803a0",
      "gasUsed": "0x18f76",
      "effectiveGasPrice": "0x1265e3",
      "from": "0x763deb3f81b32e75cb0e3faa95f4bed94871576d",
      "to": "0x867b5d7653bc012528164f4c957e9de420f43c01",
      "contractAddress": null
    },
    {
      "status": "0x1",
      "cumulativeGasUsed": "0xc6c890",
      "logs": [
        {
          "address": "0xb0bf6a910926b0bd0286da862332f24e35ed3977",
          "topics": [
            "0x8c5be1e5ebec7d5bd14f71427d1e84f3dd0314c0f7b2291e5b200ac8c7c3b925",
            "0x000000000000000000000000763deb3f81b32e75cb0e3faa95f4bed94871576d",
            "0x000000000000000000000000000000000000000000000000deadbeefdeadbeef",
            "0x0000000000000000000000000000000000000000000000000000000000000009"
          ],
          "data": "0x",
          "blockHash": "0xa5eccf01cd9e420d87ceaa0f55b8a0af0f4a9aaaeaa7d7fd891192c2fa967617",
          "blockNumber": "0x8803a0",
          "blockTimestamp": "0x68913048",
          "transactionHash": "0xc4ef3ef6244a3109f434d329638dff83e96dd54edb8f3e314b5228b113cd837e",
          "transactionIndex": "0x5a",
          "logIndex": "0x88",
          "removed": false
        }
      ],
      "logsBloom": "0x00000000400000000000000000000080000000000000000000000000000000000000000000000000000000000000000000000000000000000000000000200000000000000000000000000000000200000000000000000000000000000000000000000000000000000000000000000000000000000000000000000000000000000000000000000000000000000000000000001000000000000400000000000000020000000000000000000000000000000000000000000020000000000000000000000000000000000000000000000000000000000000000000000000080000000010000000000000000000000008000000002000000000000000001000800000",
      "type": "0x2",
      "transactionHash": "0xc4ef3ef6244a3109f434d329638dff83e96dd54edb8f3e314b5228b113cd837e",
      "transactionIndex": "0x5a",
      "blockHash": "0xa5eccf01cd9e420d87ceaa0f55b8a0af0f4a9aaaeaa7d7fd891192c2fa967617",
      "blockNumber": "0x8803a0",
      "gasUsed": "0xbf48",
      "effectiveGasPrice": "0x1265e3",
      "from": "0x763deb3f81b32e75cb0e3faa95f4bed94871576d",
      "to": "0xb0bf6a910926b0bd0286da862332f24e35ed3977",
      "contractAddress": null
    },
    {
      "status": "0x1",
      "cumulativeGasUsed": "0xc8d13c",
      "logs": [
        {
          "address": "0x6039c14b2b50577c2f22d943f4984466d6b6d3e1",
          "topics": [
            "0x6196520045be5d24c44e5d713636c5857f2ea10ff6585af27eaeb140f8962397",
            "0x0000000000000000000000000000000000000000000000000000000000000004",
            "0x0000000000000000000000000000000000000000000000000000000000000000"
          ],
          "data": "0x5472616e736665725375636365737366756c0000000000000000000000000000",
          "blockHash": "0xa5eccf01cd9e420d87ceaa0f55b8a0af0f4a9aaaeaa7d7fd891192c2fa967617",
          "blockNumber": "0x8803a0",
          "blockTimestamp": "0x68913048",
          "transactionHash": "0x1ad2e461193db656a1865bccb029e3100f6e35e879df87bc01cbfdeeb4e40c30",
          "transactionIndex": "0x5b",
          "logIndex": "0x89",
          "removed": false
        },
        {
          "address": "0xb0bf6a910926b0bd0286da862332f24e35ed3977",
          "topics": [
            "0xddf252ad1be2c89b69c2b068fc378daa952ba7f163c4a11628f55a4df523b3ef",
            "0x000000000000000000000000763deb3f81b32e75cb0e3faa95f4bed94871576d",
            "0x000000000000000000000000000000000000000000000000deadbeefdeadbeef",
            "0x0000000000000000000000000000000000000000000000000000000000000009"
          ],
          "data": "0x",
          "blockHash": "0xa5eccf01cd9e420d87ceaa0f55b8a0af0f4a9aaaeaa7d7fd891192c2fa967617",
          "blockNumber": "0x8803a0",
          "blockTimestamp": "0x68913048",
          "transactionHash": "0x1ad2e461193db656a1865bccb029e3100f6e35e879df87bc01cbfdeeb4e40c30",
          "transactionIndex": "0x5b",
          "logIndex": "0x8a",
          "removed": false
        }
      ],
      "logsBloom": "0x00000000400000000000000000000080000000000000000000000000000000000000000000000040000000000000000000000000000000000000000000200000000000000000000000000008000200000000000000000000000000000000000008000000020010020000000000000800000000000000000000000010000000000000000000000000000000000000000000001000000000000400000000000000000000000000000000004000000000000000000000000020002000000000000000000002000000000000000000000000000000008000000000000000080028000000000000000000000000000008000000002000000000000000001000800040",
      "type": "0x2",
      "transactionHash": "0x1ad2e461193db656a1865bccb029e3100f6e35e879df87bc01cbfdeeb4e40c30",
      "transactionIndex": "0x5b",
      "blockHash": "0xa5eccf01cd9e420d87ceaa0f55b8a0af0f4a9aaaeaa7d7fd891192c2fa967617",
      "blockNumber": "0x8803a0",
      "gasUsed": "0x208ac",
      "effectiveGasPrice": "0x1265e3",
      "from": "0x763deb3f81b32e75cb0e3faa95f4bed94871576d",
      "to": "0xb0bf6a910926b0bd0286da862332f24e35ed3977",
      "contractAddress": null
    }
  ],
  "libraries": [],
  "pending": [],
  "returns": {},
  "timestamp": 1754345545,
  "chain": 11155111,
  "commit": "f05e6cf"
}