{
  "transactions": [
    {
      "hash": "0xdc1b41d15157c39626033a3878c329dd2af82f5004b553f94e625331ab6e1a76",
      "transactionType": "CALL",
      "contractName": null,
      "contractAddress": "0x1c5c72dc90190760afa3cb5bc37a328e0c8e7480",
      "function": "mint(address,uint256)",
      "arguments": [
        "0x763DEB3F81B32E75cb0E3FaA95f4bED94871576D",
        "1000000000000000000"
      ],
      "transaction": {
        "from": "0x763deb3f81b32e75cb0e3faa95f4bed94871576d",
        "to": "0x1c5c72dc90190760afa3cb5bc37a328e0c8e7480",
        "gas": "0x11836",
        "value": "0x0",
        "input": "0x40c10f19000000000000000000000000763deb3f81b32e75cb0e3faa95f4bed94871576d0000000000000000000000000000000000000000000000000de0b6b3a7640000",
        "nonce": "0x5d",
        "chainId": "0x14a34"
      },
      "additionalContracts": [],
      "isFixedGasLimit": false
    },
    {
      "hash": "0x467451ca9f7ba9110268deb427793622289d7e9a9e8da2b0790e49a8afe502d9",
      "transactionType": "CALL",
      "contractName": null,
      "contractAddress": "0x17bbd768be17d8d1639afd0f5d7582256b90d116",
      "function": "mint(address,uint256)",
      "arguments": [
        "0x763DEB3F81B32E75cb0E3FaA95f4bED94871576D",
        "11"
      ],
      "transaction": {
        "from": "0x763deb3f81b32e75cb0e3faa95f4bed94871576d",
        "to": "0x17bbd768be17d8d1639afd0f5d7582256b90d116",
        "gas": "0x18b10",
        "value": "0x0",
        "input": "0x40c10f19000000000000000000000000763deb3f81b32e75cb0e3faa95f4bed94871576d000000000000000000000000000000000000000000000000000000000000000b",
        "nonce": "0x5e",
        "chainId": "0x14a34"
      },
      "additionalContracts": [],
      "isFixedGasLimit": false
    },
    {
      "hash": "0x06faddee171a7caa378ee372975418a7cfb3f641f07130f78a888692dd03ac5e",
      "transactionType": "CALL",
      "contractName": null,
      "contractAddress": "0x17bbd768be17d8d1639afd0f5d7582256b90d116",
      "function": "mint(address,uint256)",
      "arguments": [
        "0x763DEB3F81B32E75cb0E3FaA95f4bED94871576D",
        "12"
      ],
      "transaction": {
        "from": "0x763deb3f81b32e75cb0e3faa95f4bed94871576d",
        "to": "0x17bbd768be17d8d1639afd0f5d7582256b90d116",
        "gas": "0x118d9",
        "value": "0x0",
        "input": "0x40c10f19000000000000000000000000763deb3f81b32e75cb0e3faa95f4bed94871576d000000000000000000000000000000000000000000000000000000000000000c",
        "nonce": "0x5f",
        "chainId": "0x14a34"
      },
      "additionalContracts": [],
      "isFixedGasLimit": false
    },
    {
      "hash": "0xa8df07317a3fcb32d95d47b225a877ff85ebfa1440420b0abc903172ecdfdc01",
      "transactionType": "CALL",
      "contractName": null,
      "contractAddress": "0x17bbd768be17d8d1639afd0f5d7582256b90d116",
      "function": "mint(address,uint256)",
      "arguments": [
        "0x763DEB3F81B32E75cb0E3FaA95f4bED94871576D",
        "13"
      ],
      "transaction": {
        "from": "0x763deb3f81b32e75cb0e3faa95f4bed94871576d",
        "to": "0x17bbd768be17d8d1639afd0f5d7582256b90d116",
        "gas": "0x118d9",
        "value": "0x0",
        "input": "0x40c10f19000000000000000000000000763deb3f81b32e75cb0e3faa95f4bed94871576d000000000000000000000000000000000000000000000000000000000000000d",
        "nonce": "0x60",
        "chainId": "0x14a34"
      },
      "additionalContracts": [],
      "isFixedGasLimit": false
    },
    {
      "hash": "0x391a72a84cb05a6a32c2f09c3a959870c2c859ca71bb890343b58a25752612c1",
      "transactionType": "CALL",
      "contractName": null,
      "contractAddress": "0x17bbd768be17d8d1639afd0f5d7582256b90d116",
      "function": "mint(address,uint256)",
      "arguments": [
        "0x763DEB3F81B32E75cb0E3FaA95f4bED94871576D",
        "14"
      ],
      "transaction": {
        "from": "0x763deb3f81b32e75cb0e3faa95f4bed94871576d",
        "to": "0x17bbd768be17d8d1639afd0f5d7582256b90d116",
        "gas": "0x118d9",
        "value": "0x0",
        "input": "0x40c10f19000000000000000000000000763deb3f81b32e75cb0e3faa95f4bed94871576d000000000000000000000000000000000000000000000000000000000000000e",
        "nonce": "0x61",
        "chainId": "0x14a34"
      },
      "additionalContracts": [],
      "isFixedGasLimit": false
    },
    {
      "hash": "0x3cc9dd08cf39c1f8a58a1840382262483030a537c65fb6fb590f4ee362d97675",
      "transactionType": "CALL",
      "contractName": null,
      "contractAddress": "0x17bbd768be17d8d1639afd0f5d7582256b90d116",
      "function": "mint(address,uint256)",
      "arguments": [
        "0x763DEB3F81B32E75cb0E3FaA95f4bED94871576D",
        "15"
      ],
      "transaction": {
        "from": "0x763deb3f81b32e75cb0e3faa95f4bed94871576d",
        "to": "0x17bbd768be17d8d1639afd0f5d7582256b90d116",
        "gas": "0x118d9",
        "value": "0x0",
        "input": "0x40c10f19000000000000000000000000763deb3f81b32e75cb0e3faa95f4bed94871576d000000000000000000000000000000000000000000000000000000000000000f",
        "nonce": "0x62",
        "chainId": "0x14a34"
      },
      "additionalContracts": [],
      "isFixedGasLimit": false
    },
    {
      "hash": "0xcea34d010bba6b7f8712952e3ca75e74b2a8801141b5979306a061413d8a6d2b",
      "transactionType": "CALL",
      "contractName": null,
      "contractAddress": "0x17bbd768be17d8d1639afd0f5d7582256b90d116",
      "function": "mint(address,uint256)",
      "arguments": [
        "0x763DEB3F81B32E75cb0E3FaA95f4bED94871576D",
        "16"
      ],
      "transaction": {
        "from": "0x763deb3f81b32e75cb0e3faa95f4bed94871576d",
        "to": "0x17bbd768be17d8d1639afd0f5d7582256b90d116",
        "gas": "0x118d9",
        "value": "0x0",
        "input": "0x40c10f19000000000000000000000000763deb3f81b32e75cb0e3faa95f4bed94871576d0000000000000000000000000000000000000000000000000000000000000010",
        "nonce": "0x63",
        "chainId": "0x14a34"
      },
      "additionalContracts": [],
      "isFixedGasLimit": false
    },
    {
      "hash": "0x86c71afcd8ce2488e137be8005d031f19f011f2881a013b55ea31e0ee63c267a",
      "transactionType": "CALL",
      "contractName": null,
      "contractAddress": "0x17bbd768be17d8d1639afd0f5d7582256b90d116",
      "function": "mint(address,uint256)",
      "arguments": [
        "0x763DEB3F81B32E75cb0E3FaA95f4bED94871576D",
        "17"
      ],
      "transaction": {
        "from": "0x763deb3f81b32e75cb0e3faa95f4bed94871576d",
        "to": "0x17bbd768be17d8d1639afd0f5d7582256b90d116",
        "gas": "0x118d9",
        "value": "0x0",
        "input": "0x40c10f19000000000000000000000000763deb3f81b32e75cb0e3faa95f4bed94871576d0000000000000000000000000000000000000000000000000000000000000011",
        "nonce": "0x64",
        "chainId": "0x14a34"
      },
      "additionalContracts": [],
      "isFixedGasLimit": false
    },
    {
      "hash": "0x0e8943290a916ae3be21a622d301fbbb41604c0439f415d6443c7765cc0bcc31",
      "transactionType": "CALL",
      "contractName": null,
      "contractAddress": "0x17bbd768be17d8d1639afd0f5d7582256b90d116",
      "function": "mint(address,uint256)",
      "arguments": [
        "0x763DEB3F81B32E75cb0E3FaA95f4bED94871576D",
        "18"
      ],
      "transaction": {
        "from": "0x763deb3f81b32e75cb0e3faa95f4bed94871576d",
        "to": "0x17bbd768be17d8d1639afd0f5d7582256b90d116",
        "gas": "0x118d9",
        "value": "0x0",
        "input": "0x40c10f19000000000000000000000000763deb3f81b32e75cb0e3faa95f4bed94871576d0000000000000000000000000000000000000000000000000000000000000012",
        "nonce": "0x65",
        "chainId": "0x14a34"
      },
      "additionalContracts": [],
      "isFixedGasLimit": false
    },
    {
      "hash": "0x117d8fdc4b349e486f4bf7f92e751087af8b0140919e4fb087d33df6baf3b25d",
      "transactionType": "CALL",
      "contractName": null,
      "contractAddress": "0x17bbd768be17d8d1639afd0f5d7582256b90d116",
      "function": "mint(address,uint256)",
      "arguments": [
        "0x763DEB3F81B32E75cb0E3FaA95f4bED94871576D",
        "19"
      ],
      "transaction": {
        "from": "0x763deb3f81b32e75cb0e3faa95f4bed94871576d",
        "to": "0x17bbd768be17d8d1639afd0f5d7582256b90d116",
        "gas": "0x118d9",
        "value": "0x0",
        "input": "0x40c10f19000000000000000000000000763deb3f81b32e75cb0e3faa95f4bed94871576d0000000000000000000000000000000000000000000000000000000000000013",
        "nonce": "0x66",
        "chainId": "0x14a34"
      },
      "additionalContracts": [],
      "isFixedGasLimit": false
    }
  ],
  "receipts": [
    {
      "status": "0x1",
      "cumulativeGasUsed": "0x28e035",
      "logs": [
        {
          "address": "0x1c5c72dc90190760afa3cb5bc37a328e0c8e7480",
          "topics": [
            "0xddf252ad1be2c89b69c2b068fc378daa952ba7f163c4a11628f55a4df523b3ef",
            "0x0000000000000000000000000000000000000000000000000000000000000000",
            "0x000000000000000000000000763deb3f81b32e75cb0e3faa95f4bed94871576d"
          ],
          "data": "0x0000000000000000000000000000000000000000000000000de0b6b3a7640000",
          "blockHash": "0xf1429a39a7e59c95a880579ba7f2d663a702dfa8a6f41b5273db0a8b68426fcd",
          "blockNumber": "0x1bcd5a5",
          "blockTimestamp": "0x688d0a2a",
          "transactionHash": "0xdc1b41d15157c39626033a3878c329dd2af82f5004b553f94e625331ab6e1a76",
          "transactionIndex": "0x7",
          "logIndex": "0x5f",
          "removed": false
        }
      ],
      "logsBloom": "0x00000000000000000000000000000000000000000000000000000000000000000000000000000000000000000000000000000000020000000000000000000000000000000000000000000008000200000000000000000000000000000000000000000000020000000000000000000800000000000000000000000010000000000000000000000000000000000000000000000000000000000400000000000000000000000000000000000000000000000000000000000020000000000000000000000002000000020000000000000000000000000000000000000000000020000000000000000000000000000000000000000000000000080000000000000000",
      "type": "0x2",
      "transactionHash": "0xdc1b41d15157c39626033a3878c329dd2af82f5004b553f94e625331ab6e1a76",
      "transactionIndex": "0x7",
      "blockHash": "0xf1429a39a7e59c95a880579ba7f2d663a702dfa8a6f41b5273db0a8b68426fcd",
      "blockNumber": "0x1bcd5a5",
      "gasUsed": "0xcadf",
      "effectiveGasPrice": "0xf4278",
      "from": "0x763deb3f81b32e75cb0e3faa95f4bed94871576d",
      "to": "0x1c5c72dc90190760afa3cb5bc37a328e0c8e7480",
      "contractAddress": null,
      "l1BaseFeeScalar": "0x44d",
      "l1BlobBaseFee": "0x1",
      "l1BlobBaseFeeScalar": "0xa118b",
      "l1Fee": "0xabef02",
      "l1GasPrice": "0x6199ab",
      "l1GasUsed": "0x640"
    },
    {
      "status": "0x1",
      "cumulativeGasUsed": "0x29ee56",
      "logs": [
        {
          "address": "0x17bbd768be17d8d1639afd0f5d7582256b90d116",
          "topics": [
            "0xddf252ad1be2c89b69c2b068fc378daa952ba7f163c4a11628f55a4df523b3ef",
            "0x0000000000000000000000000000000000000000000000000000000000000000",
            "0x000000000000000000000000763deb3f81b32e75cb0e3faa95f4bed94871576d",
            "0x000000000000000000000000000000000000000000000000000000000000000b"
          ],
          "data": "0x",
          "blockHash": "0xf1429a39a7e59c95a880579ba7f2d663a702dfa8a6f41b5273db0a8b68426fcd",
          "blockNumber": "0x1bcd5a5",
          "blockTimestamp": "0x688d0a2a",
          "transactionHash": "0x467451ca9f7ba9110268deb427793622289d7e9a9e8da2b0790e49a8afe502d9",
          "transactionIndex": "0x8",
          "logIndex": "0x60",
          "removed": false
        }
      ],
      "logsBloom": "0x00000000000000000000004000000000000000000000000000000000000000000000000000000000000000000000000000000000000000000000000000000000000000000000000000000008000200000000000000000000000000000000000000000000020000000000000000000800000000000000000000000010000000000000000000000000000000000000000000000000000000000400840000000000000000000000000000000000000000000000000000000020000000000000000000000002000000000000000000000000002000100000000000000000000020000000000000000000000000000000000000000000000000040000000000000000",
      "type": "0x2",
      "transactionHash": "0x467451ca9f7ba9110268deb427793622289d7e9a9e8da2b0790e49a8afe502d9",
      "transactionIndex": "0x8",
      "blockHash": "0xf1429a39a7e59c95a880579ba7f2d663a702dfa8a6f41b5273db0a8b68426fcd",
      "blockNumber": "0x1bcd5a5",
      "gasUsed": "0x10e21",
      "effectiveGasPrice": "0xf4278",
      "from": "0x763deb3f81b32e75cb0e3faa95f4bed94871576d",
      "to": "0x17bbd768be17d8d1639afd0f5d7582256b90d116",
      "contractAddress": null,
      "l1BaseFeeScalar": "0x44d",
      "l1BlobBaseFee": "0x1",
      "l1BlobBaseFeeScalar": "0xa118b",
      "l1Fee": "0xabef02",
      "l1GasPrice": "0x6199ab",
      "l1GasUsed": "0x640"
    },
    {
      "status": "0x1",
      "cumulativeGasUsed": "0x2ab9ab",
      "logs": [
        {
          "address": "0x17bbd768be17d8d1639afd0f5d7582256b90d116",
          "topics": [
            "0xddf252ad1be2c89b69c2b068fc378daa952ba7f163c4a11628f55a4df523b3ef",
            "0x0000000000000000000000000000000000000000000000000000000000000000",
            "0x000000000000000000000000763deb3f81b32e75cb0e3faa95f4bed94871576d",
            "0x000000000000000000000000000000000000000000000000000000000000000c"
          ],
          "data": "0x",
          "blockHash": "0xf1429a39a7e59c95a880579ba7f2d663a702dfa8a6f41b5273db0a8b68426fcd",
          "blockNumber": "0x1bcd5a5",
          "blockTimestamp": "0x688d0a2a",
          "transactionHash": "0x06faddee171a7caa378ee372975418a7cfb3f641f07130f78a888692dd03ac5e",
          "transactionIndex": "0x9",
          "logIndex": "0x61",
          "removed": false
        }
      ],
      "logsBloom": "0x00000000000000000000000000000000000002000000000000000000000000000000000000000200000000000000000000000000000000000000000000000000000000000000000000000008000200000000000000000000000000000000000000000000020000000000000000000800000000000000000000000010000000000000000000000000000000000000000000000000000000000400840000000000000000000000000000000000000000000000000000000020000000000000000000000002000000000000000000000000000000100000000000000000000020200000000000000000000000000000000000000000000000000000000000000000",
      "type": "0x2",
      "transactionHash": "0x06faddee171a7caa378ee372975418a7cfb3f641f07130f78a888692dd03ac5e",
      "transactionIndex": "0x9",
      "blockHash": "0xf1429a39a7e59c95a880579ba7f2d663a702dfa8a6f41b5273db0a8b68426fcd",
      "blockNumber": "0x1bcd5a5",
      "gasUsed": "0xcb55",
      "effectiveGasPrice": "0xf4278",
      "from": "0x763deb3f81b32e75cb0e3faa95f4bed94871576d",
      "to": "0x17bbd768be17d8d1639afd0f5d7582256b90d116",
      "contractAddress": null,
      "l1BaseFeeScalar": "0x44d",
      "l1BlobBaseFee": "0x1",
      "l1BlobBaseFeeScalar": "0xa118b",
      "l1Fee": "0xabef02",
      "l1GasPrice": "0x6199ab",
      "l1GasUsed": "0x640"
    },
    {
      "status": "0x1",
      "cumulativeGasUsed": "0x2b8500",
      "logs": [
        {
          "address": "0x17bbd768be17d8d1639afd0f5d7582256b90d116",
          "topics": [
            "0xddf252ad1be2c89b69c2b068fc378daa952ba7f163c4a11628f55a4df523b3ef",
            "0x0000000000000000000000000000000000000000000000000000000000000000",
            "0x000000000000000000000000763deb3f81b32e75cb0e3faa95f4bed94871576d",
            "0x000000000000000000000000000000000000000000000000000000000000000d"
          ],
          "data": "0x",
          "blockHash": "0xf1429a39a7e59c95a880579ba7f2d663a702dfa8a6f41b5273db0a8b68426fcd",
          "blockNumber": "0x1bcd5a5",
          "blockTimestamp": "0x688d0a2a",
          "transactionHash": "0xa8df07317a3fcb32d95d47b225a877ff85ebfa1440420b0abc903172ecdfdc01",
          "transactionIndex": "0xa",
          "logIndex": "0x62",
          "removed": false
        }
      ],
      "logsBloom": "0x00000000000000000040000000000000000000000000000000000000000000000000000000000000000000000000000000000000000000000000000000000000000000000000000000000008000200000002000000000000000000000000000000000000020000000000000000000800000000000000000000000010000000000000000000000000000000000000000000000000000000000400840000000000000000000000000000000000000000000000000000000020000000000000000000000002000000000000000000000000000000100000000000000000000020020000000000000000000000000000000000000000000000000000000000000000",
      "type": "0x2",
      "transactionHash": "0xa8df07317a3fcb32d95d47b225a877ff85ebfa1440420b0abc903172ecdfdc01",
      "transactionIndex": "0xa",
      "blockHash": "0xf1429a39a7e59c95a880579ba7f2d663a702dfa8a6f41b5273db0a8b68426fcd",
      "blockNumber": "0x1bcd5a5",
      "gasUsed": "0xcb55",
      "effectiveGasPrice": "0xf4278",
      "from": "0x763deb3f81b32e75cb0e3faa95f4bed94871576d",
      "to": "0x17bbd768be17d8d1639afd0f5d7582256b90d116",
      "contractAddress": null,
      "l1BaseFeeScalar": "0x44d",
      "l1BlobBaseFee": "0x1",
      "l1BlobBaseFeeScalar": "0xa118b",
      "l1Fee": "0xabef02",
      "l1GasPrice": "0x6199ab",
      "l1GasUsed": "0x640"
    },
    {
      "status": "0x1",
      "cumulativeGasUsed": "0x2c5055",
      "logs": [
        {
          "address": "0x17bbd768be17d8d1639afd0f5d7582256b90d116",
          "topics": [
            "0xddf252ad1be2c89b69c2b068fc378daa952ba7f163c4a11628f55a4df523b3ef",
            "0x0000000000000000000000000000000000000000000000000000000000000000",
            "0x000000000000000000000000763deb3f81b32e75cb0e3faa95f4bed94871576d",
            "0x000000000000000000000000000000000000000000000000000000000000000e"
          ],
          "data": "0x",
          "blockHash": "0xf1429a39a7e59c95a880579ba7f2d663a702dfa8a6f41b5273db0a8b68426fcd",
          "blockNumber": "0x1bcd5a5",
          "blockTimestamp": "0x688d0a2a",
          "transactionHash": "0x391a72a84cb05a6a32c2f09c3a959870c2c859ca71bb890343b58a25752612c1",
          "transactionIndex": "0xb",
          "logIndex": "0x63",
          "removed": false
        }
      ],
      "logsBloom": "0x00000000000000000000000000000000000000000000000000000000000000000000000000000000000000000000000000000000000000000000000000000000000000000000000800000008000200000000000000000000000000000000000000000000020000000000000000000800000000000000000000000010000000000000000000000000000000000000000008000000000000000400840000000000000000000000000000000000000000000000000000000020000000000000000000000002000000000000000000000000000000100000000000000000000020000000000000000000000000000000000000000000000000000000000000000000",
      "type": "0x2",
      "transactionHash": "0x391a72a84cb05a6a32c2f09c3a959870c2c859ca71bb890343b58a25752612c1",
      "transactionIndex": "0xb",
      "blockHash": "0xf1429a39a7e59c95a880579ba7f2d663a702dfa8a6f41b5273db0a8b68426fcd",
      "blockNumber": "0x1bcd5a5",
      "gasUsed": "0xcb55",
      "effectiveGasPrice": "0xf4278",
      "from": "0x763deb3f81b32e75cb0e3faa95f4bed94871576d",
      "to": "0x17bbd768be17d8d1639afd0f5d7582256b90d116",
      "contractAddress": null,
      "l1BaseFeeScalar": "0x44d",
      "l1BlobBaseFee": "0x1",
      "l1BlobBaseFeeScalar": "0xa118b",
      "l1Fee": "0xabef02",
      "l1GasPrice": "0x6199ab",
      "l1GasUsed": "0x640"
    },
    {
      "status": "0x1",
      "cumulativeGasUsed": "0x2d1baa",
      "logs": [
        {
          "address": "0x17bbd768be17d8d1639afd0f5d7582256b90d116",
          "topics": [
            "0xddf252ad1be2c89b69c2b068fc378daa952ba7f163c4a11628f55a4df523b3ef",
            "0x0000000000000000000000000000000000000000000000000000000000000000",
            "0x000000000000000000000000763deb3f81b32e75cb0e3faa95f4bed94871576d",
            "0x000000000000000000000000000000000000000000000000000000000000000f"
          ],
          "data": "0x",
          "blockHash": "0xf1429a39a7e59c95a880579ba7f2d663a702dfa8a6f41b5273db0a8b68426fcd",
          "blockNumber": "0x1bcd5a5",
          "blockTimestamp": "0x688d0a2a",
          "transactionHash": "0x3cc9dd08cf39c1f8a58a1840382262483030a537c65fb6fb590f4ee362d97675",
          "transactionIndex": "0xc",
          "logIndex": "0x64",
          "removed": false
        }
      ],
      "logsBloom": "0x00000000000000000000000000000000000000000000000000000000000000000000000000000000000000000000000000000000000000000000000000000000000000000000000000000008000200000000000000000000000000000002000000000000020000000000000000000800000000000000000000000010000000000000000000000800000000000000000000000000000000000400840000000000000000000000000000000000000000000000000000000020000000000000000000000002000000000000000000000000000000100000000000000000000020000000000200000000000000000000000000000000000000000000000000000000",
      "type": "0x2",
      "transactionHash": "0x3cc9dd08cf39c1f8a58a1840382262483030a537c65fb6fb590f4ee362d97675",
      "transactionIndex": "0xc",
      "blockHash": "0xf1429a39a7e59c95a880579ba7f2d663a702dfa8a6f41b5273db0a8b68426fcd",
      "blockNumber": "0x1bcd5a5",
      "gasUsed": "0xcb55",
      "effectiveGasPrice": "0xf4278",
      "from": "0x763deb3f81b32e75cb0e3faa95f4bed94871576d",
      "to": "0x17bbd768be17d8d1639afd0f5d7582256b90d116",
      "contractAddress": null,
      "l1BaseFeeScalar": "0x44d",
      "l1BlobBaseFee": "0x1",
      "l1BlobBaseFeeScalar": "0xa118b",
      "l1Fee": "0xabef02",
      "l1GasPrice": "0x6199ab",
      "l1GasUsed": "0x640"
    },
    {
      "status": "0x1",
      "cumulativeGasUsed": "0x2de6ff",
      "logs": [
        {
          "address": "0x17bbd768be17d8d1639afd0f5d7582256b90d116",
          "topics": [
            "0xddf252ad1be2c89b69c2b068fc378daa952ba7f163c4a11628f55a4df523b3ef",
            "0x0000000000000000000000000000000000000000000000000000000000000000",
            "0x000000000000000000000000763deb3f81b32e75cb0e3faa95f4bed94871576d",
            "0x0000000000000000000000000000000000000000000000000000000000000010"
          ],
          "data": "0x",
          "blockHash": "0xf1429a39a7e59c95a880579ba7f2d663a702dfa8a6f41b5273db0a8b68426fcd",
          "blockNumber": "0x1bcd5a5",
          "blockTimestamp": "0x688d0a2a",
          "transactionHash": "0xcea34d010bba6b7f8712952e3ca75e74b2a8801141b5979306a061413d8a6d2b",
          "transactionIndex": "0xd",
          "logIndex": "0x65",
          "removed": false
        }
      ],
      "logsBloom": "0x00000000100000000000000000000000000000000000000000000000000000000000000000000000000000000000000000000000000000000000000000000000000000000000000000000008000200000000000000000000000000000000000000000000020000000000000000000800000000000000000000000010040000000000000000000000000000000000000000000100000000000400840000000000000000000000000000000000000000000000000000000020000000000000000000000002000000000000000000000000000000100000000000000000000020000000000000000000000000000000000000000000000000000000000000000000",
      "type": "0x2",
      "transactionHash": "0xcea34d010bba6b7f8712952e3ca75e74b2a8801141b5979306a061413d8a6d2b",
      "transactionIndex": "0xd",
      "blockHash": "0xf1429a39a7e59c95a880579ba7f2d663a702dfa8a6f41b5273db0a8b68426fcd",
      "blockNumber": "0x1bcd5a5",
      "gasUsed": "0xcb55",
      "effectiveGasPrice": "0xf4278",
      "from": "0x763deb3f81b32e75cb0e3faa95f4bed94871576d",
      "to": "0x17bbd768be17d8d1639afd0f5d7582256b90d116",
      "contractAddress": null,
      "l1BaseFeeScalar": "0x44d",
      "l1BlobBaseFee": "0x1",
      "l1BlobBaseFeeScalar": "0xa118b",
      "l1Fee": "0xabef02",
      "l1GasPrice": "0x6199ab",
      "l1GasUsed": "0x640"
    },
    {
      "status": "0x1",
      "cumulativeGasUsed": "0x32cd48",
      "logs": [
        {
          "address": "0x17bbd768be17d8d1639afd0f5d7582256b90d116",
          "topics": [
            "0xddf252ad1be2c89b69c2b068fc378daa952ba7f163c4a11628f55a4df523b3ef",
            "0x0000000000000000000000000000000000000000000000000000000000000000",
            "0x000000000000000000000000763deb3f81b32e75cb0e3faa95f4bed94871576d",
            "0x0000000000000000000000000000000000000000000000000000000000000011"
          ],
          "data": "0x",
          "blockHash": "0xf1429a39a7e59c95a880579ba7f2d663a702dfa8a6f41b5273db0a8b68426fcd",
          "blockNumber": "0x1bcd5a5",
          "blockTimestamp": "0x688d0a2a",
          "transactionHash": "0x86c71afcd8ce2488e137be8005d031f19f011f2881a013b55ea31e0ee63c267a",
          "transactionIndex": "0x10",
          "logIndex": "0x7c",
          "removed": false
        }
      ],
      "logsBloom": "0x00000000000000000000000000000000000000000000000000000000000000000000000000000000000000000000000000000000000000000000000000000000000000000000000000000008000200000000000000000000000000000000000000000000020000000000000000000800000000004000000000000010000000000000000000000000000000000000000000000000000000000400840000000000000000000000000000000000000000000000000000000020000000000400000000001002000000000000000000000000000000100000000000000000000020000000000000000000000000000000000000000000000000000000000000000000",
      "type": "0x2",
      "transactionHash": "0x86c71afcd8ce2488e137be8005d031f19f011f2881a013b55ea31e0ee63c267a",
      "transactionIndex": "0x10",
      "blockHash": "0xf1429a39a7e59c95a880579ba7f2d663a702dfa8a6f41b5273db0a8b68426fcd",
      "blockNumber": "0x1bcd5a5",
      "gasUsed": "0xcb55",
      "effectiveGasPrice": "0xf4278",
      "from": "0x763deb3f81b32e75cb0e3faa95f4bed94871576d",
      "to": "0x17bbd768be17d8d1639afd0f5d7582256b90d116",
      "contractAddress": null,
      "l1BaseFeeScalar": "0x44d",
      "l1BlobBaseFee": "0x1",
      "l1BlobBaseFeeScalar": "0xa118b",
      "l1Fee": "0xabef02",
      "l1GasPrice": "0x6199ab",
      "l1GasUsed": "0x640"
    },
    {
      "status": "0x1",
      "cumulativeGasUsed": "0x33989d",
      "logs": [
        {
          "address": "0x17bbd768be17d8d1639afd0f5d7582256b90d116",
          "topics": [
            "0xddf252ad1be2c89b69c2b068fc378daa952ba7f163c4a11628f55a4df523b3ef",
            "0x0000000000000000000000000000000000000000000000000000000000000000",
            "0x000000000000000000000000763deb3f81b32e75cb0e3faa95f4bed94871576d",
            "0x0000000000000000000000000000000000000000000000000000000000000012"
          ],
          "data": "0x",
          "blockHash": "0xf1429a39a7e59c95a880579ba7f2d663a702dfa8a6f41b5273db0a8b68426fcd",
          "blockNumber": "0x1bcd5a5",
          "blockTimestamp": "0x688d0a2a",
          "transactionHash": "0x0e8943290a916ae3be21a622d301fbbb41604c0439f415d6443c7765cc0bcc31",
          "transactionIndex": "0x11",
          "logIndex": "0x7d",
          "removed": false
        }
      ],
      "logsBloom": "0x00000000000000000000000000000000000000000000000000000000000000000000000000000000000000000000000000000000000000000000000000000000000000000000000000000008000200000000000000000000000000000000000000000000020000000000000000000800000000000000000000000010000000000000000000000000000000000000040000000000000000000400840000000000000000000000000000000000000000000000000000000060000000000000000000000002000000000400000000000000000000100000000000000000000020000000000000000000000000000000000000000000000000000000000000000000",
      "type": "0x2",
      "transactionHash": "0x0e8943290a916ae3be21a622d301fbbb41604c0439f415d6443c7765cc0bcc31",
      "transactionIndex": "0x11",
      "blockHash": "0xf1429a39a7e59c95a880579ba7f2d663a702dfa8a6f41b5273db0a8b68426fcd",
      "blockNumber": "0x1bcd5a5",
      "gasUsed": "0xcb55",
      "effectiveGasPrice": "0xf4278",
      "from": "0x763deb3f81b32e75cb0e3faa95f4bed94871576d",
      "to": "0x17bbd768be17d8d1639afd0f5d7582256b90d116",
      "contractAddress": null,
      "l1BaseFeeScalar": "0x44d",
      "l1BlobBaseFee": "0x1",
      "l1BlobBaseFeeScalar": "0xa118b",
      "l1Fee": "0xabef02",
      "l1GasPrice": "0x6199ab",
      "l1GasUsed": "0x640"
    },
    {
      "status": "0x1",
      "cumulativeGasUsed": "0x3463f2",
      "logs": [
        {
          "address": "0x17bbd768be17d8d1639afd0f5d7582256b90d116",
          "topics": [
            "0xddf252ad1be2c89b69c2b068fc378daa952ba7f163c4a11628f55a4df523b3ef",
            "0x0000000000000000000000000000000000000000000000000000000000000000",
            "0x000000000000000000000000763deb3f81b32e75cb0e3faa95f4bed94871576d",
            "0x0000000000000000000000000000000000000000000000000000000000000013"
          ],
          "data": "0x",
          "blockHash": "0xf1429a39a7e59c95a880579ba7f2d663a702dfa8a6f41b5273db0a8b68426fcd",
          "blockNumber": "0x1bcd5a5",
          "blockTimestamp": "0x688d0a2a",
          "transactionHash": "0x117d8fdc4b349e486f4bf7f92e751087af8b0140919e4fb087d33df6baf3b25d",
          "transactionIndex": "0x12",
          "logIndex": "0x7e",
          "removed": false
        }
      ],
      "logsBloom": "0x20000000000000000000000000800000000000000000000000000000000000000000000040000000000000000000000000000000000000000000000000000000000000000000000000000008000200000000000000000000000000000000000000000000020000000000000000000800000000000000000000000010000000000000000000000000000000000000000000000000000000000400840000000000000000000000000000000000000000000000000000000020000000000000000000000002000000000000000000000000000000100000000000000000000020000000000000000000000000000000000000000000000000000000000000000000",
      "type": "0x2",
      "transactionHash": "0x117d8fdc4b349e486f4bf7f92e751087af8b0140919e4fb087d33df6baf3b25d",
      "transactionIndex": "0x12",
      "blockHash": "0xf1429a39a7e59c95a880579ba7f2d663a702dfa8a6f41b5273db0a8b68426fcd",
      "blockNumber": "0x1bcd5a5",
      "gasUsed": "0xcb55",
      "effectiveGasPrice": "0xf4278",
      "from": "0x763deb3f81b32e75cb0e3faa95f4bed94871576d",
      "to": "0x17bbd768be17d8d1639afd0f5d7582256b90d116",
      "contractAddress": null,
      "l1BaseFeeScalar": "0x44d",
      "l1BlobBaseFee": "0x1",
      "l1BlobBaseFeeScalar": "0xa118b",
      "l1Fee": "0xabef02",
      "l1GasPrice": "0x6199ab",
      "l1GasUsed": "0x640"
    }
  ],
  "libraries": [],
  "pending": [],
  "returns": {},
  "timestamp": 1754073640,
  "chain": 84532,
  "commit": "f05e6cf"
}