{
  "transactions": [
    {
      "hash": "0x31c5afcb203ef3c20f144e8226751f42e49cbcab55153ae6f0d7b76413757e93",
      "transactionType": "CALL",
      "contractName": null,
      "contractAddress": "0xb0a01858969e7c04b4257062cb2e61ec02254e8e",
      "function": "setRulesEngineAddress(address)",
      "arguments": [
        "0xD8723A7bBd86259131aD982B3c61aEc5D5F06d20"
      ],
      "transaction": {
        "from": "0x763deb3f81b32e75cb0e3faa95f4bed94871576d",
        "to": "0xb0a01858969e7c04b4257062cb2e61ec02254e8e",
        "gas": "0xed2f",
        "value": "0x0",
        "input": "0xd177fe05000000000000000000000000d8723a7bbd86259131ad982b3c61aec5d5f06d20",
        "nonce": "0x137",
        "chainId": "0x14a34"
      },
      "additionalContracts": [],
      "isFixedGasLimit": false
    },
    {
      "hash": "0x4ac709f48babc6b73762f58404cd7748952c06862a116e670a14ddc49853e9b7",
      "transactionType": "CALL",
      "contractName": null,
      "contractAddress": "0xb0a01858969e7c04b4257062cb2e61ec02254e8e",
      "function": "setForeignCallAdmin(address,bytes4)",
      "arguments": [
        "0x763DEB3F81B32E75cb0E3FaA95f4bED94871576D",
        "0x7b292909"
      ],
      "transaction": {
        "from": "0x763deb3f81b32e75cb0e3faa95f4bed94871576d",
        "to": "0xb0a01858969e7c04b4257062cb2e61ec02254e8e",
        "gas": "0x67d62",
        "value": "0x0",
        "input": "0xaf8390d4000000000000000000000000763deb3f81b32e75cb0e3faa95f4bed94871576d7b29290900000000000000000000000000000000000000000000000000000000",
        "nonce": "0x138",
        "chainId": "0x14a34"
      },
      "additionalContracts": [],
      "isFixedGasLimit": false
    },
    {
      "hash": "0x1a3541c4f27021edea01438f3406a1b4a29bf2a198d4b71eca8c7d9c455156aa",
      "transactionType": "CALL",
      "contractName": null,
      "contractAddress": "0xb0a01858969e7c04b4257062cb2e61ec02254e8e",
      "function": "setForeignCallAdmin(address,bytes4)",
      "arguments": [
        "0xa51A29d9Eb9de3bE70b1B8c046f9Bb1b04E4345E",
        "0x7b292909"
      ],
      "transaction": {
        "from": "0x763deb3f81b32e75cb0e3faa95f4bed94871576d",
        "to": "0xb0a01858969e7c04b4257062cb2e61ec02254e8e",
        "gas": "0x48542",
        "value": "0x0",
        "input": "0xaf8390d4000000000000000000000000a51a29d9eb9de3be70b1b8c046f9bb1b04e4345e7b29290900000000000000000000000000000000000000000000000000000000",
        "nonce": "0x139",
        "chainId": "0x14a34"
      },
      "additionalContracts": [],
      "isFixedGasLimit": false
    },
    {
      "hash": "0xb7809eb9423e66da347b0011450e2dce98b261107083267b0a19b2ea19f02ef6",
      "transactionType": "CALL",
      "contractName": null,
      "contractAddress": "0xd8723a7bbd86259131ad982b3c61aec5d5f06d20",
      "function": "createPolicy(uint8,string,string)",
      "arguments": [
        "1",
        "Test Policy",
        "Test Policy Description"
      ],
      "transaction": {
        "from": "0xa51a29d9eb9de3be70b1b8c046f9bb1b04e4345e",
        "to": "0xd8723a7bbd86259131ad982b3c61aec5d5f06d20",
        "gas": "0x510e0",
        "value": "0x0",
        "input": "0x95953fba0000000000000000000000000000000000000000000000000000000000000001000000000000000000000000000000000000000000000000000000000000006000000000000000000000000000000000000000000000000000000000000000a0000000000000000000000000000000000000000000000000000000000000000b5465737420506f6c69637900000000000000000000000000000000000000000000000000000000000000000000000000000000000000000000000000000000175465737420506f6c696379204465736372697074696f6e000000000000000000",
        "nonce": "0x1",
        "chainId": "0x14a34"
      },
      "additionalContracts": [],
      "isFixedGasLimit": false
    },
    {
      "hash": "0x2757930b678c74fdbd4853139158af02878b4f7596b623c251eb967403b9f0c5",
      "transactionType": "CALL",
      "contractName": null,
      "contractAddress": "0xd8723a7bbd86259131ad982b3c61aec5d5f06d20",
      "function": "createForeignCall(uint256,(bool,address,bytes4,uint8,uint256,uint8[],(uint8,uint256)[],(uint8,uint256)[]),string)",
      "arguments": [
        "19",
        "(true, 0xB0a01858969e7c04B4257062Cb2E61Ec02254e8E, 0x7b292909, 2, 0, [2], [(0, 0)], [])",
        "square(uint256)"
      ],
      "transaction": {
        "from": "0xa51a29d9eb9de3be70b1b8c046f9bb1b04e4345e",
        "to": "0xd8723a7bbd86259131ad982b3c61aec5d5f06d20",
        "gas": "0x493c1",
        "value": "0x0",
        "input": "0x614f42d20000000000000000000000000000000000000000000000000000000000000013000000000000000000000000000000000000000000000000000000000000006000000000000000000000000000000000000000000000000000000000000002200000000000000000000000000000000000000000000000000000000000000001000000000000000000000000b0a01858969e7c04b4257062cb2e61ec02254e8e7b29290900000000000000000000000000000000000000000000000000000000000000000000000000000000000000000000000000000000000000000000000200000000000000000000000000000000000000000000000000000000000000000000000000000000000000000000000000000000000000000000000000000100000000000000000000000000000000000000000000000000000000000000014000000000000000000000000000000000000000000000000000000000000001a0000000000000000000000000000000000000000000000000000000000000000100000000000000000000000000000000000000000000000000000000000000020000000000000000000000000000000000000000000000000000000000000001000000000000000000000000000000000000000000000000000000000000000000000000000000000000000000000000000000000000000000000000000000000000000000000000000000000000000000000000000000000000000000000000000000000000000000000000000000000000000000000000000000000000000f7371756172652875696e74323536290000000000000000000000000000000000",
        "nonce": "0x2",
        "chainId": "0x14a34"
      },
      "additionalContracts": [],
      "isFixedGasLimit": false
    }
  ],
  "receipts": [
    {
      "status": "0x1",
      "cumulativeGasUsed": "0x12ea0d",
      "logs": [],
      "logsBloom": "0x00000000000000000000000000000000000000000000000000000000000000000000000000000000000000000000000000000000000000000000000000000000000000000000000000000000000000000000000000000000000000000000000000000000000000000000000000000000000000000000000000000000000000000000000000000000000000000000000000000000000000000000000000000000000000000000000000000000000000000000000000000000000000000000000000000000000000000000000000000000000000000000000000000000000000000000000000000000000000000000000000000000000000000000000000000000",
      "type": "0x2",
      "transactionHash": "0x31c5afcb203ef3c20f144e8226751f42e49cbcab55153ae6f0d7b76413757e93",
      "transactionIndex": "0x6",
      "blockHash": "0x4870244a00e8aedaa62564bbc66d4254ac9315896467c7605b60c16eb3595ddc",
      "blockNumber": "0x1bf8425",
      "gasUsed": "0xabb8",
      "effectiveGasPrice": "0xf4279",
      "from": "0x763deb3f81b32e75cb0e3faa95f4bed94871576d",
      "to": "0xb0a01858969e7c04b4257062cb2e61ec02254e8e",
      "contractAddress": null,
      "l1BaseFeeScalar": "0x44d",
      "l1BlobBaseFee": "0x1",
      "l1BlobBaseFeeScalar": "0xa118b",
      "l1Fee": "0x1f15cb1",
      "l1GasPrice": "0x11a55b9",
      "l1GasUsed": "0x640"
    },
    {
      "status": "0x1",
      "cumulativeGasUsed": "0x417456",
      "logs": [
        {
          "address": "0xd8723a7bbd86259131ad982b3c61aec5d5f06d20",
          "topics": [
            "0x2f8788117e7eff1d82e926ec794901d17c78024a50270940304540a733656f0d",
            "0x5b72372503bcb8f1102e3cb3b32104e3761f72188b0b18283ca8dea4bf973e92",
            "0x000000000000000000000000763deb3f81b32e75cb0e3faa95f4bed94871576d",
            "0x000000000000000000000000b0a01858969e7c04b4257062cb2e61ec02254e8e"
          ],
          "data": "0x",
          "blockHash": "0x9d5a313a3d28b0b0f461a6d06920271860c6e7723de201f63c97d9eb6aa650e8",
          "blockNumber": "0x1bf8426",
          "blockTimestamp": "0x6892672c",
          "transactionHash": "0x4ac709f48babc6b73762f58404cd7748952c06862a116e670a14ddc49853e9b7",
          "transactionIndex": "0x13",
          "logIndex": "0x8b",
          "removed": false
        },
        {
          "address": "0xd8723a7bbd86259131ad982b3c61aec5d5f06d20",
          "topics": [
            "0x1fc1e76e7979d46f5dc34b12fc88668567593b51c7e2358d69d06394e4fe47a1",
            "0x000000000000000000000000b0a01858969e7c04b4257062cb2e61ec02254e8e",
            "0x000000000000000000000000763deb3f81b32e75cb0e3faa95f4bed94871576d"
          ],
          "data": "0x",
          "blockHash": "0x9d5a313a3d28b0b0f461a6d06920271860c6e7723de201f63c97d9eb6aa650e8",
          "blockNumber": "0x1bf8426",
          "blockTimestamp": "0x6892672c",
          "transactionHash": "0x4ac709f48babc6b73762f58404cd7748952c06862a116e670a14ddc49853e9b7",
          "transactionIndex": "0x13",
          "logIndex": "0x8c",
          "removed": false
        }
      ],
      "logsBloom": "0x00000004000000000000000000000000000000000000000000000000000000000000000000000000000000000000000000000000000000000000800000000000000000000000000000000000000200000000000000000000000000000000000000000000000000000000000000000000020000001000000000000000000000000000004000000000000000000000000000000000000000800400000000000000000000000000000000000000000000000000000000000020801000000000000000000000000000000020000000440000000000000000080100000000000200000000000000000000000000000000000000000000800000000000000000000000",
      "type": "0x2",
      "transactionHash": "0x4ac709f48babc6b73762f58404cd7748952c06862a116e670a14ddc49853e9b7",
      "transactionIndex": "0x13",
      "blockHash": "0x9d5a313a3d28b0b0f461a6d06920271860c6e7723de201f63c97d9eb6aa650e8",
      "blockNumber": "0x1bf8426",
      "gasUsed": "0x4b2d0",
      "effectiveGasPrice": "0xf4279",
      "from": "0x763deb3f81b32e75cb0e3faa95f4bed94871576d",
      "to": "0xb0a01858969e7c04b4257062cb2e61ec02254e8e",
      "contractAddress": null,
      "l1BaseFeeScalar": "0x44d",
      "l1BlobBaseFee": "0x1",
      "l1BlobBaseFeeScalar": "0xa118b",
      "l1Fee": "0x1f15cb1",
      "l1GasPrice": "0x11a55b9",
      "l1GasUsed": "0x640"
    },
    {
      "status": "0x1",
      "cumulativeGasUsed": "0x32557a",
      "logs": [
        {
          "address": "0xd8723a7bbd86259131ad982b3c61aec5d5f06d20",
          "topics": [
            "0x2f8788117e7eff1d82e926ec794901d17c78024a50270940304540a733656f0d",
            "0x5b72372503bcb8f1102e3cb3b32104e3761f72188b0b18283ca8dea4bf973e92",
            "0x000000000000000000000000a51a29d9eb9de3be70b1b8c046f9bb1b04e4345e",
            "0x000000000000000000000000b0a01858969e7c04b4257062cb2e61ec02254e8e"
          ],
          "data": "0x",
          "blockHash": "0x24e3f0f1a4d24816c80a2af968060a2a28d3531b7752ac5fa3d784bd76fa0663",
          "blockNumber": "0x1bf8427",
          "blockTimestamp": "0x6892672e",
          "transactionHash": "0x1a3541c4f27021edea01438f3406a1b4a29bf2a198d4b71eca8c7d9c455156aa",
          "transactionIndex": "0xb",
          "logIndex": "0x47",
          "removed": false
        },
        {
          "address": "0xd8723a7bbd86259131ad982b3c61aec5d5f06d20",
          "topics": [
            "0x1fc1e76e7979d46f5dc34b12fc88668567593b51c7e2358d69d06394e4fe47a1",
            "0x000000000000000000000000b0a01858969e7c04b4257062cb2e61ec02254e8e",
            "0x000000000000000000000000a51a29d9eb9de3be70b1b8c046f9bb1b04e4345e"
          ],
          "data": "0x",
          "blockHash": "0x24e3f0f1a4d24816c80a2af968060a2a28d3531b7752ac5fa3d784bd76fa0663",
          "blockNumber": "0x1bf8427",
          "blockTimestamp": "0x6892672e",
          "transactionHash": "0x1a3541c4f27021edea01438f3406a1b4a29bf2a198d4b71eca8c7d9c455156aa",
          "transactionIndex": "0xb",
          "logIndex": "0x48",
          "removed": false
        }
      ],
      "logsBloom": "0x00000004000000000000000000000000000000000000000000000000000000000000008000000000000000000000000000000000000000000000800000000000000000000000000000000000000000000000000000000000000000000000000000000000000000000000000000000000020000001000000000000000000000000000004000000000000000000000000000000000000000800800000000000000000200000000000000000000000000000000000000000000801000000000000000000000000000000020000000440000000000000000080100000000000200000000000000000000000000000000000000000000800000000000000000000000",
      "type": "0x2",
      "transactionHash": "0x1a3541c4f27021edea01438f3406a1b4a29bf2a198d4b71eca8c7d9c455156aa",
      "transactionIndex": "0xb",
      "blockHash": "0x24e3f0f1a4d24816c80a2af968060a2a28d3531b7752ac5fa3d784bd76fa0663",
      "blockNumber": "0x1bf8427",
      "gasUsed": "0x3174a",
      "effectiveGasPrice": "0xf4279",
      "from": "0x763deb3f81b32e75cb0e3faa95f4bed94871576d",
      "to": "0xb0a01858969e7c04b4257062cb2e61ec02254e8e",
      "contractAddress": null,
      "l1BaseFeeScalar": "0x44d",
      "l1BlobBaseFee": "0x1",
      "l1BlobBaseFeeScalar": "0xa118b",
      "l1Fee": "0x1f15cb1",
      "l1GasPrice": "0x11a55b9",
      "l1GasUsed": "0x640"
    },
    {
      "status": "0x1",
      "cumulativeGasUsed": "0x5c5410",
      "logs": [
        {
          "address": "0xd8723a7bbd86259131ad982b3c61aec5d5f06d20",
          "topics": [
            "0x2f8788117e7eff1d82e926ec794901d17c78024a50270940304540a733656f0d",
            "0x8d9c564cd2373bff2690b46db6b700e4e022e3cc88275b04bf9525cf91fb1fd0",
            "0x000000000000000000000000a51a29d9eb9de3be70b1b8c046f9bb1b04e4345e",
            "0x000000000000000000000000d8723a7bbd86259131ad982b3c61aec5d5f06d20"
          ],
          "data": "0x",
          "blockHash": "0x111672ab710b999573bacf43fd9043e9085cc0723d8c6046c6df418e1c8d89dd",
          "blockNumber": "0x1bf8427",
          "blockTimestamp": "0x6892672e",
          "transactionHash": "0xb7809eb9423e66da347b0011450e2dce98b261107083267b0a19b2ea19f02ef6",
          "transactionIndex": "0x14",
          "logIndex": "0x7a",
          "removed": false
        },
        {
          "address": "0xd8723a7bbd86259131ad982b3c61aec5d5f06d20",
          "topics": [
            "0x5d8751116265daef12864a389d3a862fedd252ff2c64f06702579fbd7813e579",
            "0x000000000000000000000000a51a29d9eb9de3be70b1b8c046f9bb1b04e4345e",
            "0x0000000000000000000000000000000000000000000000000000000000000013"
          ],
          "data": "0x",
          "blockHash": "0x111672ab710b999573bacf43fd9043e9085cc0723d8c6046c6df418e1c8d89dd",
          "blockNumber": "0x1bf8427",
          "blockTimestamp": "0x6892672e",
          "transactionHash": "0xb7809eb9423e66da347b0011450e2dce98b261107083267b0a19b2ea19f02ef6",
          "transactionIndex": "0x14",
          "logIndex": "0x7b",
          "removed": false
        },
        {
          "address": "0xd8723a7bbd86259131ad982b3c61aec5d5f06d20",
          "topics": [
            "0xde5ef345cecbaaffdfbe2454b7947aa14037bac2f45e4fc98976f8bffea38623",
            "0x0000000000000000000000000000000000000000000000000000000000000013"
          ],
          "data": "0x",
          "blockHash": "0x111672ab710b999573bacf43fd9043e9085cc0723d8c6046c6df418e1c8d89dd",
          "blockNumber": "0x1bf8427",
          "blockTimestamp": "0x6892672e",
          "transactionHash": "0xb7809eb9423e66da347b0011450e2dce98b261107083267b0a19b2ea19f02ef6",
          "transactionIndex": "0x14",
          "logIndex": "0x7c",
          "removed": false
        }
      ],
      "logsBloom": "0x20000004000000000000000000800000000000000000000000000020000000000000008040000000020000000000000000000000000000000000000000000000000000000000000000000000000000000000000400000000000000004000000000000000000000000000000000000000000000801000080000000000000000000000004000001000000000000000000000000000000000000800000000000000000200000020000000000000000008000000000000000000801000000000000000000000000000000040000200000000000000000000000100000400000000000000000000000000000000000000000000000000000000000000000000000000",
      "type": "0x2",
      "transactionHash": "0xb7809eb9423e66da347b0011450e2dce98b261107083267b0a19b2ea19f02ef6",
      "transactionIndex": "0x14",
      "blockHash": "0x111672ab710b999573bacf43fd9043e9085cc0723d8c6046c6df418e1c8d89dd",
      "blockNumber": "0x1bf8427",
      "gasUsed": "0x376c1",
      "effectiveGasPrice": "0xf4279",
      "from": "0xa51a29d9eb9de3be70b1b8c046f9bb1b04e4345e",
      "to": "0xd8723a7bbd86259131ad982b3c61aec5d5f06d20",
      "contractAddress": null,
      "l1BaseFeeScalar": "0x44d",
      "l1BlobBaseFee": "0x1",
      "l1BlobBaseFeeScalar": "0xa118b",
      "l1Fee": "0x22de029",
      "l1GasPrice": "0x11a55b9",
      "l1GasUsed": "0x702"
    },
    {
      "status": "0x1",
      "cumulativeGasUsed": "0x63470a",
      "logs": [
        {
          "address": "0xd8723a7bbd86259131ad982b3c61aec5d5f06d20",
          "topics": [
            "0x9006068daf408b7e36a22c789f04c4ba9c6c638a6cf8438c2250583384f2192f",
            "0x0000000000000000000000000000000000000000000000000000000000000013",
            "0x0000000000000000000000000000000000000000000000000000000000000001"
          ],
          "data": "0x",
          "blockHash": "0x5371f6bd622f5e0eb59d4425a797e30b9ac12c818c1e132b34df50f0451c261a",
          "blockNumber": "0x1bf8428",
          "blockTimestamp": "0x68926730",
          "transactionHash": "0x2757930b678c74fdbd4853139158af02878b4f7596b623c251eb967403b9f0c5",
          "transactionIndex": "0x16",
          "logIndex": "0x6d",
          "removed": false
        }
      ],
      "logsBloom": "0x20000000000000000000000000800000000000000000000000000000000000000000000040000000000000000000000000000000000000000000000000040000000000000000000000000000000000000000000000040000000000000000000000000000000000000000001000000000000000001000000000000000000000000000004000000000000000008000000000000000000000000000000000000000000000000000000000000000000000000000000000000000800000000000000000000000000000000000000000000000000000000000000000000000000040000000000000000000000000000000000000000000000000000000100000000000",
      "type": "0x2",
      "transactionHash": "0x2757930b678c74fdbd4853139158af02878b4f7596b623c251eb967403b9f0c5",
      "transactionIndex": "0x16",
      "blockHash": "0x5371f6bd622f5e0eb59d4425a797e30b9ac12c818c1e132b34df50f0451c261a",
      "blockNumber": "0x1bf8428",
      "gasUsed": "0x35055",
      "effectiveGasPrice": "0xf4279",
      "from": "0xa51a29d9eb9de3be70b1b8c046f9bb1b04e4345e",
      "to": "0xd8723a7bbd86259131ad982b3c61aec5d5f06d20",
      "contractAddress": null,
      "l1BaseFeeScalar": "0x44d",
      "l1BlobBaseFee": "0x1",
      "l1BlobBaseFeeScalar": "0xa118b",
      "l1Fee": "0x30679da",
      "l1GasPrice": "0x10aaa7c",
      "l1GasUsed": "0xa4d"
    }
  ],
  "libraries": [],
  "pending": [],
  "returns": {},
  "timestamp": 1754425135,
  "chain": 84532,
  "commit": "f05e6cf"
}