{
  "transactions": [
    {
      "hash": "0x5f1ad1283343b653702934854982c21acd91d5377e969d7fbbf5a827c6c4697b",
      "transactionType": "CREATE",
      "contractName": "ExampleERC20Contract",
      "contractAddress": "0xa03d0959f48f1cd029b726534ae07616f8b7361a",
      "function": null,
      "arguments": null,
      "transaction": {
        "from": "0x763deb3f81b32e75cb0e3faa95f4bed94871576d",
        "gas": "0x17ed77",
        "value": "0x0",
        "input": "0x608060405234801561000f575f5ffd5b506040518060400160405280601481526020017f4578616d706c654552433230436f6e74726163740000000000000000000000008152506040518060400160405280600381526020017f4558430000000000000000000000000000000000000000000000000000000000815250816004908161008b91906102e0565b50806005908161009b91906102e0565b5050506103af565b5f81519050919050565b7f4e487b71000000000000000000000000000000000000000000000000000000005f52604160045260245ffd5b7f4e487b71000000000000000000000000000000000000000000000000000000005f52602260045260245ffd5b5f600282049050600182168061011e57607f821691505b602082108103610131576101306100da565b5b50919050565b5f819050815f5260205f209050919050565b5f6020601f8301049050919050565b5f82821b905092915050565b5f600883026101937fffffffffffffffffffffffffffffffffffffffffffffffffffffffffffffffff82610158565b61019d8683610158565b95508019841693508086168417925050509392505050565b5f819050919050565b5f819050919050565b5f6101e16101dc6101d7846101b5565b6101be565b6101b5565b9050919050565b5f819050919050565b6101fa836101c7565b61020e610206826101e8565b848454610164565b825550505050565b5f5f905090565b610225610216565b6102308184846101f1565b505050565b5b81811015610253576102485f8261021d565b600181019050610236565b5050565b601f8211156102985761026981610137565b61027284610149565b81016020851015610281578190505b61029561028d85610149565b830182610235565b50505b505050565b5f82821c905092915050565b5f6102b85f198460080261029d565b1980831691505092915050565b5f6102d083836102a9565b9150826002028217905092915050565b6102e9826100a3565b67ffffffffffffffff811115610302576103016100ad565b5b61030c8254610107565b610317828285610257565b5f60209050601f831160018114610348575f8415610336578287015190505b61034085826102c5565b8655506103a7565b601f19841661035686610137565b5f5b8281101561037d57848901518255600182019150602085019450602081019050610358565b8683101561039a5784890151610396601f8916826102a9565b8355505b6001600288020188555050505b505050505050565b6113d3806103bc5f395ff3fe608060405234801561000f575f5ffd5b50600436106100cd575f3560e01c806370a082311161008a578063a9059cbb11610064578063a9059cbb14610213578063d177fe0514610243578063d51758451461025f578063dd62ed3e1461027b576100cd565b806370a08231146101a757806374a75cf9146101d757806395d89b41146101f5576100cd565b806306fdde03146100d1578063095ea7b3146100ef57806318160ddd1461011f57806323b872dd1461013d578063313ce5671461016d57806340c10f191461018b575b5f5ffd5b6100d96102ab565b6040516100e69190610ef9565b60405180910390f35b61010960048036038101906101049190610faa565b61033b565b6040516101169190611002565b60405180910390f35b61012761034e565b604051610134919061102a565b60405180910390f35b61015760048036038101906101529190611043565b610357565b6040516101649190611002565b60405180910390f35b61017561040d565b60405161018291906110ae565b60405180910390f35b6101a560048036038101906101a09190610faa565b610415565b005b6101c160048036038101906101bc91906110c7565b610423565b6040516101ce919061102a565b60405180910390f35b6101df610469565b6040516101ec9190611101565b60405180910390f35b6101fd61048d565b60405161020a9190610ef9565b60405180910390f35b61022d60048036038101906102289190610faa565b61051d565b60405161023a9190611002565b60405180910390f35b61025d600480360381019061025891906110c7565b6105d1565b005b610279600480360381019061027491906110c7565b610613565b005b6102956004803603810190610290919061111a565b6106b2565b6040516102a2919061102a565b60405180910390f35b6060600480546102ba90611185565b80601f01602080910402602001604051908101604052809291908181526020018280546102e690611185565b80156103315780601f1061030857610100808354040283529160200191610331565b820191905f5260205f20905b81548152906001019060200180831161031457829003601f168201915b5050505050905090565b5f6103468383610734565b905092915050565b5f600354905090565b5f5f5f357fffffffff00000000000000000000000000000000000000000000000000000000165f366040516024016103909291906111ff565b604051602081830303815290604052907bffffffffffffffffffffffffffffffffffffffffffffffffffffffff19166020820180517bffffffffffffffffffffffffffffffffffffffffffffffffffffffff838183161783525050505090506103f881610756565b610403858585610833565b9150509392505050565b5f6012905090565b61041f8282610861565b5050565b5f60015f8373ffffffffffffffffffffffffffffffffffffffff1673ffffffffffffffffffffffffffffffffffffffff1681526020019081526020015f20549050919050565b5f5f9054906101000a900473ffffffffffffffffffffffffffffffffffffffff1681565b60606005805461049c90611185565b80601f01602080910402602001604051908101604052809291908181526020018280546104c890611185565b80156105135780601f106104ea57610100808354040283529160200191610513565b820191905f5260205f20905b8154815290600101906020018083116104f657829003601f168201915b5050505050905090565b5f5f5f357fffffffff00000000000000000000000000000000000000000000000000000000165f366040516024016105569291906111ff565b604051602081830303815290604052907bffffffffffffffffffffffffffffffffffffffffffffffffffffffff19166020820180517bffffffffffffffffffffffffffffffffffffffffffffffffffffffff838183161783525050505090506105be81610756565b6105c884846108e0565b91505092915050565b805f5f6101000a81548173ffffffffffffffffffffffffffffffffffffffff021916908373ffffffffffffffffffffffffffffffffffffffff16021790555050565b5f5f9054906101000a900473ffffffffffffffffffffffffffffffffffffffff1673ffffffffffffffffffffffffffffffffffffffff1663804ba97d30836040518363ffffffff1660e01b815260040161066e929190611221565b6020604051808303815f875af115801561068a573d5f5f3e3d5ffd5b505050506040513d601f19601f820116820180604052508101906106ae919061127b565b5050565b5f60025f8473ffffffffffffffffffffffffffffffffffffffff1673ffffffffffffffffffffffffffffffffffffffff1681526020019081526020015f205f8373ffffffffffffffffffffffffffffffffffffffff1673ffffffffffffffffffffffffffffffffffffffff1681526020019081526020015f2054905092915050565b5f5f61073e610902565b905061074b818585610909565b600191505092915050565b5f73ffffffffffffffffffffffffffffffffffffffff165f5f9054906101000a900473ffffffffffffffffffffffffffffffffffffffff1673ffffffffffffffffffffffffffffffffffffffff1614610830575f5f9054906101000a900473ffffffffffffffffffffffffffffffffffffffff1673ffffffffffffffffffffffffffffffffffffffff1663ca328100826040518263ffffffff1660e01b815260040161080291906112e8565b5f604051808303815f87803b158015610819575f5ffd5b505af115801561082b573d5f5f3e3d5ffd5b505050505b50565b5f5f61083d610902565b905061084a85828561091b565b6108558585856109ae565b60019150509392505050565b5f73ffffffffffffffffffffffffffffffffffffffff168273ffffffffffffffffffffffffffffffffffffffff16036108d1575f6040517fec442f050000000000000000000000000000000000000000000000000000000081526004016108c89190611101565b60405180910390fd5b6108dc5f8383610a9e565b5050565b5f5f6108ea610902565b90506108f78185856109ae565b600191505092915050565b5f33905090565b6109168383836001610cba565b505050565b5f61092684846106b2565b90507fffffffffffffffffffffffffffffffffffffffffffffffffffffffffffffffff8110156109a85781811015610999578281836040517ffb8f41b200000000000000000000000000000000000000000000000000000000815260040161099093929190611308565b60405180910390fd5b6109a784848484035f610cba565b5b50505050565b5f73ffffffffffffffffffffffffffffffffffffffff168373ffffffffffffffffffffffffffffffffffffffff1603610a1e575f6040517f96c6fd1e000000000000000000000000000000000000000000000000000000008152600401610a159190611101565b60405180910390fd5b5f73ffffffffffffffffffffffffffffffffffffffff168273ffffffffffffffffffffffffffffffffffffffff1603610a8e575f6040517fec442f05000000000000000000000000000000000000000000000000000000008152600401610a859190611101565b60405180910390fd5b610a99838383610a9e565b505050565b5f73ffffffffffffffffffffffffffffffffffffffff168373ffffffffffffffffffffffffffffffffffffffff1603610aee578060035f828254610ae2919061136a565b92505081905550610bbe565b5f60015f8573ffffffffffffffffffffffffffffffffffffffff1673ffffffffffffffffffffffffffffffffffffffff1681526020019081526020015f2054905081811015610b78578381836040517fe450d38c000000000000000000000000000000000000000000000000000000008152600401610b6f93929190611308565b60405180910390fd5b81810360015f8673ffffffffffffffffffffffffffffffffffffffff1673ffffffffffffffffffffffffffffffffffffffff1681526020019081526020015f2081905550505b5f73ffffffffffffffffffffffffffffffffffffffff168273ffffffffffffffffffffffffffffffffffffffff1603610c05578060035f8282540392505081905550610c50565b8060015f8473ffffffffffffffffffffffffffffffffffffffff1673ffffffffffffffffffffffffffffffffffffffff1681526020019081526020015f205f82825401925050819055505b8173ffffffffffffffffffffffffffffffffffffffff168373ffffffffffffffffffffffffffffffffffffffff167fddf252ad1be2c89b69c2b068fc378daa952ba7f163c4a11628f55a4df523b3ef83604051610cad919061102a565b60405180910390a3505050565b5f73ffffffffffffffffffffffffffffffffffffffff168473ffffffffffffffffffffffffffffffffffffffff1603610d2a575f6040517fe602df05000000000000000000000000000000000000000000000000000000008152600401610d219190611101565b60405180910390fd5b5f73ffffffffffffffffffffffffffffffffffffffff168373ffffffffffffffffffffffffffffffffffffffff1603610d9a575f6040517f94280d62000000000000000000000000000000000000000000000000000000008152600401610d919190611101565b60405180910390fd5b8160025f8673ffffffffffffffffffffffffffffffffffffffff1673ffffffffffffffffffffffffffffffffffffffff1681526020019081526020015f205f8573ffffffffffffffffffffffffffffffffffffffff1673ffffffffffffffffffffffffffffffffffffffff1681526020019081526020015f20819055508015610e83578273ffffffffffffffffffffffffffffffffffffffff168473ffffffffffffffffffffffffffffffffffffffff167f8c5be1e5ebec7d5bd14f71427d1e84f3dd0314c0f7b2291e5b200ac8c7c3b92584604051610e7a919061102a565b60405180910390a35b50505050565b5f81519050919050565b5f82825260208201905092915050565b8281835e5f83830152505050565b5f601f19601f8301169050919050565b5f610ecb82610e89565b610ed58185610e93565b9350610ee5818560208601610ea3565b610eee81610eb1565b840191505092915050565b5f6020820190508181035f830152610f118184610ec1565b905092915050565b5f5ffd5b5f73ffffffffffffffffffffffffffffffffffffffff82169050919050565b5f610f4682610f1d565b9050919050565b610f5681610f3c565b8114610f60575f5ffd5b50565b5f81359050610f7181610f4d565b92915050565b5f819050919050565b610f8981610f77565b8114610f93575f5ffd5b50565b5f81359050610fa481610f80565b92915050565b5f5f60408385031215610fc057610fbf610f19565b5b5f610fcd85828601610f63565b9250506020610fde85828601610f96565b9150509250929050565b5f8115159050919050565b610ffc81610fe8565b82525050565b5f6020820190506110155f830184610ff3565b92915050565b61102481610f77565b82525050565b5f60208201905061103d5f83018461101b565b92915050565b5f5f5f6060848603121561105a57611059610f19565b5b5f61106786828701610f63565b935050602061107886828701610f63565b925050604061108986828701610f96565b9150509250925092565b5f60ff82169050919050565b6110a881611093565b82525050565b5f6020820190506110c15f83018461109f565b92915050565b5f602082840312156110dc576110db610f19565b5b5f6110e984828501610f63565b91505092915050565b6110fb81610f3c565b82525050565b5f6020820190506111145f8301846110f2565b92915050565b5f5f604083850312156111305761112f610f19565b5b5f61113d85828601610f63565b925050602061114e85828601610f63565b9150509250929050565b7f4e487b71000000000000000000000000000000000000000000000000000000005f52602260045260245ffd5b5f600282049050600182168061119c57607f821691505b6020821081036111af576111ae611158565b5b50919050565b5f82825260208201905092915050565b828183375f83830152505050565b5f6111de83856111b5565b93506111eb8385846111c5565b6111f483610eb1565b840190509392505050565b5f6020820190508181035f8301526112188184866111d3565b90509392505050565b5f6040820190506112345f8301856110f2565b61124160208301846110f2565b9392505050565b5f819050919050565b61125a81611248565b8114611264575f5ffd5b50565b5f8151905061127581611251565b92915050565b5f602082840312156112905761128f610f19565b5b5f61129d84828501611267565b91505092915050565b5f81519050919050565b5f6112ba826112a6565b6112c481856111b5565b93506112d4818560208601610ea3565b6112dd81610eb1565b840191505092915050565b5f6020820190508181035f83015261130081846112b0565b905092915050565b5f60608201905061131b5f8301866110f2565b611328602083018561101b565b611335604083018461101b565b949350505050565b7f4e487b71000000000000000000000000000000000000000000000000000000005f52601160045260245ffd5b5f61137482610f77565b915061137f83610f77565b92508282019050808211156113975761139661133d565b5b9291505056fea2646970667358221220bad1bf108e803fdd16aaeb93c91a50f7e0bbada289c219df9b270c825399fc5364736f6c634300081e0033",
        "nonce": "0x50",
        "chainId": "0xaa36a7"
      },
      "additionalContracts": [],
      "isFixedGasLimit": false
    },
    {
      "hash": "0x7524f97907f4335d0b7c2484c387388cdba3c01b9cd3480ded907d0dc2e91066",
      "transactionType": "CREATE",
      "contractName": "ExampleERC721Contract",
      "contractAddress": "0x4b50b445794ac5c2b5d1ecba1b52b19440e74f28",
      "function": null,
      "arguments": null,
      "transaction": {
        "from": "0x763deb3f81b32e75cb0e3faa95f4bed94871576d",
        "gas": "0x265e7c",
        "value": "0x0",
        "input": "0x608060405234801561000f575f5ffd5b506040518060400160405280601581526020017f4578616d706c65455243373231436f6e747261637400000000000000000000008152506040518060400160405280600381526020017f4558430000000000000000000000000000000000000000000000000000000000815250816001908161008b91906102e0565b50806002908161009b91906102e0565b5050506103af565b5f81519050919050565b7f4e487b71000000000000000000000000000000000000000000000000000000005f52604160045260245ffd5b7f4e487b71000000000000000000000000000000000000000000000000000000005f52602260045260245ffd5b5f600282049050600182168061011e57607f821691505b602082108103610131576101306100da565b5b50919050565b5f819050815f5260205f209050919050565b5f6020601f8301049050919050565b5f82821b905092915050565b5f600883026101937fffffffffffffffffffffffffffffffffffffffffffffffffffffffffffffffff82610158565b61019d8683610158565b95508019841693508086168417925050509392505050565b5f819050919050565b5f819050919050565b5f6101e16101dc6101d7846101b5565b6101be565b6101b5565b9050919050565b5f819050919050565b6101fa836101c7565b61020e610206826101e8565b848454610164565b825550505050565b5f5f905090565b610225610216565b6102308184846101f1565b505050565b5b81811015610253576102485f8261021d565b600181019050610236565b5050565b601f8211156102985761026981610137565b61027284610149565b81016020851015610281578190505b61029561028d85610149565b830182610235565b50505b505050565b5f82821c905092915050565b5f6102b85f198460080261029d565b1980831691505092915050565b5f6102d083836102a9565b9150826002028217905092915050565b6102e9826100a3565b67ffffffffffffffff811115610302576103016100ad565b5b61030c8254610107565b610317828285610257565b5f60209050601f831160018114610348575f8415610336578287015190505b61034085826102c5565b8655506103a7565b601f19841661035686610137565b5f5b8281101561037d57848901518255600182019150602085019450602081019050610358565b8683101561039a5784890151610396601f8916826102a9565b8355505b6001600288020188555050505b505050505050565b61210a806103bc5f395ff3fe608060405234801561000f575f5ffd5b5060043610610109575f3560e01c806370a08231116100a0578063b88d4fde1161006f578063b88d4fde146102b3578063c87b56dd146102cf578063d177fe05146102ff578063d51758451461031b578063e985e9c51461033757610109565b806370a082311461022b57806374a75cf91461025b57806395d89b4114610279578063a22cb4651461029757610109565b806323b872dd116100dc57806323b872dd146101a757806340c10f19146101c357806342842e0e146101df5780636352211e146101fb57610109565b806301ffc9a71461010d57806306fdde031461013d578063081812fc1461015b578063095ea7b31461018b575b5f5ffd5b610127600480360381019061012291906118c2565b610367565b6040516101349190611907565b60405180910390f35b610145610448565b6040516101529190611990565b60405180910390f35b610175600480360381019061017091906119e3565b6104d8565b6040516101829190611a4d565b60405180910390f35b6101a560048036038101906101a09190611a90565b6104f3565b005b6101c160048036038101906101bc9190611ace565b610501565b005b6101dd60048036038101906101d89190611a90565b6105b2565b005b6101f960048036038101906101f49190611ace565b6105c0565b005b610215600480360381019061021091906119e3565b6105df565b6040516102229190611a4d565b60405180910390f35b61024560048036038101906102409190611b1e565b6105f0565b6040516102529190611b58565b60405180910390f35b6102636106a6565b6040516102709190611a4d565b60405180910390f35b6102816106ca565b60405161028e9190611990565b60405180910390f35b6102b160048036038101906102ac9190611b9b565b61075a565b005b6102cd60048036038101906102c89190611d05565b610770565b005b6102e960048036038101906102e491906119e3565b610795565b6040516102f69190611990565b60405180910390f35b61031960048036038101906103149190611b1e565b6107fb565b005b61033560048036038101906103309190611b1e565b61083d565b005b610351600480360381019061034c9190611d85565b6108dc565b60405161035e9190611907565b60405180910390f35b5f7f80ac58cd000000000000000000000000000000000000000000000000000000007bffffffffffffffffffffffffffffffffffffffffffffffffffffffff1916827bffffffffffffffffffffffffffffffffffffffffffffffffffffffff1916148061043157507f5b5e139f000000000000000000000000000000000000000000000000000000007bffffffffffffffffffffffffffffffffffffffffffffffffffffffff1916827bffffffffffffffffffffffffffffffffffffffffffffffffffffffff1916145b8061044157506104408261096a565b5b9050919050565b60606001805461045790611df0565b80601f016020809104026020016040519081016040528092919081815260200182805461048390611df0565b80156104ce5780601f106104a5576101008083540402835291602001916104ce565b820191905f5260205f20905b8154815290600101906020018083116104b157829003601f168201915b5050505050905090565b5f6104e2826109d3565b506104ec82610a59565b9050919050565b6104fd8282610a92565b5050565b5f5f357fffffffff00000000000000000000000000000000000000000000000000000000165f36604051602401610539929190611e5c565b604051602081830303815290604052907bffffffffffffffffffffffffffffffffffffffffffffffffffffffff19166020820180517bffffffffffffffffffffffffffffffffffffffffffffffffffffffff838183161783525050505090506105a181610aa8565b6105ac848484610b85565b50505050565b6105bc8282610c84565b5050565b6105da83838360405180602001604052805f815250610770565b505050565b5f6105e9826109d3565b9050919050565b5f5f73ffffffffffffffffffffffffffffffffffffffff168273ffffffffffffffffffffffffffffffffffffffff1603610661575f6040517f89c62b640000000000000000000000000000000000000000000000000000000081526004016106589190611a4d565b60405180910390fd5b60045f8373ffffffffffffffffffffffffffffffffffffffff1673ffffffffffffffffffffffffffffffffffffffff1681526020019081526020015f20549050919050565b5f5f9054906101000a900473ffffffffffffffffffffffffffffffffffffffff1681565b6060600280546106d990611df0565b80601f016020809104026020016040519081016040528092919081815260200182805461070590611df0565b80156107505780601f1061072757610100808354040283529160200191610750565b820191905f5260205f20905b81548152906001019060200180831161073357829003601f168201915b5050505050905090565b61076c610765610d77565b8383610d7e565b5050565b61077b848484610501565b61078f610786610d77565b85858585610ee7565b50505050565b60606107a0826109d3565b505f6107aa611093565b90505f8151116107c85760405180602001604052805f8152506107f3565b806107d2846110a9565b6040516020016107e3929190611eb8565b6040516020818303038152906040525b915050919050565b805f5f6101000a81548173ffffffffffffffffffffffffffffffffffffffff021916908373ffffffffffffffffffffffffffffffffffffffff16021790555050565b5f5f9054906101000a900473ffffffffffffffffffffffffffffffffffffffff1673ffffffffffffffffffffffffffffffffffffffff1663804ba97d30836040518363ffffffff1660e01b8152600401610898929190611edb565b6020604051808303815f875af11580156108b4573d5f5f3e3d5ffd5b505050506040513d601f19601f820116820180604052508101906108d89190611f35565b5050565b5f60065f8473ffffffffffffffffffffffffffffffffffffffff1673ffffffffffffffffffffffffffffffffffffffff1681526020019081526020015f205f8373ffffffffffffffffffffffffffffffffffffffff1673ffffffffffffffffffffffffffffffffffffffff1681526020019081526020015f205f9054906101000a900460ff16905092915050565b5f7f01ffc9a7000000000000000000000000000000000000000000000000000000007bffffffffffffffffffffffffffffffffffffffffffffffffffffffff1916827bffffffffffffffffffffffffffffffffffffffffffffffffffffffff1916149050919050565b5f5f6109de83611173565b90505f73ffffffffffffffffffffffffffffffffffffffff168173ffffffffffffffffffffffffffffffffffffffff1603610a5057826040517f7e273289000000000000000000000000000000000000000000000000000000008152600401610a479190611b58565b60405180910390fd5b80915050919050565b5f60055f8381526020019081526020015f205f9054906101000a900473ffffffffffffffffffffffffffffffffffffffff169050919050565b610aa48282610a9f610d77565b6111ac565b5050565b5f73ffffffffffffffffffffffffffffffffffffffff165f5f9054906101000a900473ffffffffffffffffffffffffffffffffffffffff1673ffffffffffffffffffffffffffffffffffffffff1614610b82575f5f9054906101000a900473ffffffffffffffffffffffffffffffffffffffff1673ffffffffffffffffffffffffffffffffffffffff1663ca328100826040518263ffffffff1660e01b8152600401610b549190611fa2565b5f604051808303815f87803b158015610b6b575f5ffd5b505af1158015610b7d573d5f5f3e3d5ffd5b505050505b50565b5f73ffffffffffffffffffffffffffffffffffffffff168273ffffffffffffffffffffffffffffffffffffffff1603610bf5575f6040517f64a0ae92000000000000000000000000000000000000000000000000000000008152600401610bec9190611a4d565b60405180910390fd5b5f610c088383610c03610d77565b6111be565b90508373ffffffffffffffffffffffffffffffffffffffff168173ffffffffffffffffffffffffffffffffffffffff1614610c7e578382826040517f64283d7b000000000000000000000000000000000000000000000000000000008152600401610c7593929190611fc2565b60405180910390fd5b50505050565b5f73ffffffffffffffffffffffffffffffffffffffff168273ffffffffffffffffffffffffffffffffffffffff1603610cf4575f6040517f64a0ae92000000000000000000000000000000000000000000000000000000008152600401610ceb9190611a4d565b60405180910390fd5b5f610d0083835f6111be565b90505f73ffffffffffffffffffffffffffffffffffffffff168173ffffffffffffffffffffffffffffffffffffffff1614610d72575f6040517f73c6ac6e000000000000000000000000000000000000000000000000000000008152600401610d699190611a4d565b60405180910390fd5b505050565b5f33905090565b5f73ffffffffffffffffffffffffffffffffffffffff168273ffffffffffffffffffffffffffffffffffffffff1603610dee57816040517f5b08ba18000000000000000000000000000000000000000000000000000000008152600401610de59190611a4d565b60405180910390fd5b8060065f8573ffffffffffffffffffffffffffffffffffffffff1673ffffffffffffffffffffffffffffffffffffffff1681526020019081526020015f205f8473ffffffffffffffffffffffffffffffffffffffff1673ffffffffffffffffffffffffffffffffffffffff1681526020019081526020015f205f6101000a81548160ff0219169083151502179055508173ffffffffffffffffffffffffffffffffffffffff168373ffffffffffffffffffffffffffffffffffffffff167f17307eab39ab6107e8899845ad3d59bd9653f200f220920489ca2b5937696c3183604051610eda9190611907565b60405180910390a3505050565b5f8373ffffffffffffffffffffffffffffffffffffffff163b111561108c578273ffffffffffffffffffffffffffffffffffffffff1663150b7a02868685856040518563ffffffff1660e01b8152600401610f459493929190611ff7565b6020604051808303815f875af1925050508015610f8057506040513d601f19601f82011682018060405250810190610f7d9190612055565b60015b611001573d805f8114610fae576040519150601f19603f3d011682016040523d82523d5f602084013e610fb3565b606091505b505f815103610ff957836040517f64a0ae92000000000000000000000000000000000000000000000000000000008152600401610ff09190611a4d565b60405180910390fd5b805160208201fd5b63150b7a0260e01b7bffffffffffffffffffffffffffffffffffffffffffffffffffffffff1916817bffffffffffffffffffffffffffffffffffffffffffffffffffffffff19161461108a57836040517f64a0ae920000000000000000000000000000000000000000000000000000000081526004016110819190611a4d565b60405180910390fd5b505b5050505050565b606060405180602001604052805f815250905090565b60605f60016110b7846113c9565b0190505f8167ffffffffffffffff8111156110d5576110d4611be1565b5b6040519080825280601f01601f1916602001820160405280156111075781602001600182028036833780820191505090505b5090505f82602083010190505b600115611168578080600190039150507f3031323334353637383961626364656600000000000000000000000000000000600a86061a8153600a858161115d5761115c612080565b5b0494505f8503611114575b819350505050919050565b5f60035f8381526020019081526020015f205f9054906101000a900473ffffffffffffffffffffffffffffffffffffffff169050919050565b6111b9838383600161151a565b505050565b5f5f6111c984611173565b90505f73ffffffffffffffffffffffffffffffffffffffff168373ffffffffffffffffffffffffffffffffffffffff161461120a576112098184866116d9565b5b5f73ffffffffffffffffffffffffffffffffffffffff168173ffffffffffffffffffffffffffffffffffffffff1614611295576112495f855f5f61151a565b600160045f8373ffffffffffffffffffffffffffffffffffffffff1673ffffffffffffffffffffffffffffffffffffffff1681526020019081526020015f205f82825403925050819055505b5f73ffffffffffffffffffffffffffffffffffffffff168573ffffffffffffffffffffffffffffffffffffffff161461131457600160045f8773ffffffffffffffffffffffffffffffffffffffff1673ffffffffffffffffffffffffffffffffffffffff1681526020019081526020015f205f82825401925050819055505b8460035f8681526020019081526020015f205f6101000a81548173ffffffffffffffffffffffffffffffffffffffff021916908373ffffffffffffffffffffffffffffffffffffffff160217905550838573ffffffffffffffffffffffffffffffffffffffff168273ffffffffffffffffffffffffffffffffffffffff167fddf252ad1be2c89b69c2b068fc378daa952ba7f163c4a11628f55a4df523b3ef60405160405180910390a4809150509392505050565b5f5f5f90507a184f03e93ff9f4daa797ed6e38ed64bf6a1f0100000000000000008310611425577a184f03e93ff9f4daa797ed6e38ed64bf6a1f010000000000000000838161141b5761141a612080565b5b0492506040810190505b6d04ee2d6d415b85acef81000000008310611462576d04ee2d6d415b85acef8100000000838161145857611457612080565b5b0492506020810190505b662386f26fc10000831061149157662386f26fc10000838161148757611486612080565b5b0492506010810190505b6305f5e10083106114ba576305f5e10083816114b0576114af612080565b5b0492506008810190505b61271083106114df5761271083816114d5576114d4612080565b5b0492506004810190505b6064831061150257606483816114f8576114f7612080565b5b0492506002810190505b600a8310611511576001810190505b80915050919050565b808061155257505f73ffffffffffffffffffffffffffffffffffffffff168273ffffffffffffffffffffffffffffffffffffffff1614155b15611684575f611561846109d3565b90505f73ffffffffffffffffffffffffffffffffffffffff168373ffffffffffffffffffffffffffffffffffffffff16141580156115cb57508273ffffffffffffffffffffffffffffffffffffffff168173ffffffffffffffffffffffffffffffffffffffff1614155b80156115de57506115dc81846108dc565b155b1561162057826040517fa9fbf51f0000000000000000000000000000000000000000000000000000000081526004016116179190611a4d565b60405180910390fd5b811561168257838573ffffffffffffffffffffffffffffffffffffffff168273ffffffffffffffffffffffffffffffffffffffff167f8c5be1e5ebec7d5bd14f71427d1e84f3dd0314c0f7b2291e5b200ac8c7c3b92560405160405180910390a45b505b8360055f8581526020019081526020015f205f6101000a81548173ffffffffffffffffffffffffffffffffffffffff021916908373ffffffffffffffffffffffffffffffffffffffff16021790555050505050565b6116e483838361179c565b611797575f73ffffffffffffffffffffffffffffffffffffffff168373ffffffffffffffffffffffffffffffffffffffff160361175857806040517f7e27328900000000000000000000000000000000000000000000000000000000815260040161174f9190611b58565b60405180910390fd5b81816040517f177e802f00000000000000000000000000000000000000000000000000000000815260040161178e9291906120ad565b60405180910390fd5b505050565b5f5f73ffffffffffffffffffffffffffffffffffffffff168373ffffffffffffffffffffffffffffffffffffffff161415801561185357508273ffffffffffffffffffffffffffffffffffffffff168473ffffffffffffffffffffffffffffffffffffffff161480611814575061181384846108dc565b5b8061185257508273ffffffffffffffffffffffffffffffffffffffff1661183a83610a59565b73ffffffffffffffffffffffffffffffffffffffff16145b5b90509392505050565b5f604051905090565b5f5ffd5b5f5ffd5b5f7fffffffff0000000000000000000000000000000000000000000000000000000082169050919050565b6118a18161186d565b81146118ab575f5ffd5b50565b5f813590506118bc81611898565b92915050565b5f602082840312156118d7576118d6611865565b5b5f6118e4848285016118ae565b91505092915050565b5f8115159050919050565b611901816118ed565b82525050565b5f60208201905061191a5f8301846118f8565b92915050565b5f81519050919050565b5f82825260208201905092915050565b8281835e5f83830152505050565b5f601f19601f8301169050919050565b5f61196282611920565b61196c818561192a565b935061197c81856020860161193a565b61198581611948565b840191505092915050565b5f6020820190508181035f8301526119a88184611958565b905092915050565b5f819050919050565b6119c2816119b0565b81146119cc575f5ffd5b50565b5f813590506119dd816119b9565b92915050565b5f602082840312156119f8576119f7611865565b5b5f611a05848285016119cf565b91505092915050565b5f73ffffffffffffffffffffffffffffffffffffffff82169050919050565b5f611a3782611a0e565b9050919050565b611a4781611a2d565b82525050565b5f602082019050611a605f830184611a3e565b92915050565b611a6f81611a2d565b8114611a79575f5ffd5b50565b5f81359050611a8a81611a66565b92915050565b5f5f60408385031215611aa657611aa5611865565b5b5f611ab385828601611a7c565b9250506020611ac4858286016119cf565b9150509250929050565b5f5f5f60608486031215611ae557611ae4611865565b5b5f611af286828701611a7c565b9350506020611b0386828701611a7c565b9250506040611b14868287016119cf565b9150509250925092565b5f60208284031215611b3357611b32611865565b5b5f611b4084828501611a7c565b91505092915050565b611b52816119b0565b82525050565b5f602082019050611b6b5f830184611b49565b92915050565b611b7a816118ed565b8114611b84575f5ffd5b50565b5f81359050611b9581611b71565b92915050565b5f5f60408385031215611bb157611bb0611865565b5b5f611bbe85828601611a7c565b9250506020611bcf85828601611b87565b9150509250929050565b5f5ffd5b5f5ffd5b7f4e487b71000000000000000000000000000000000000000000000000000000005f52604160045260245ffd5b611c1782611948565b810181811067ffffffffffffffff82111715611c3657611c35611be1565b5b80604052505050565b5f611c4861185c565b9050611c548282611c0e565b919050565b5f67ffffffffffffffff821115611c7357611c72611be1565b5b611c7c82611948565b9050602081019050919050565b828183375f83830152505050565b5f611ca9611ca484611c59565b611c3f565b905082815260208101848484011115611cc557611cc4611bdd565b5b611cd0848285611c89565b509392505050565b5f82601f830112611cec57611ceb611bd9565b5b8135611cfc848260208601611c97565b91505092915050565b5f5f5f5f60808587031215611d1d57611d1c611865565b5b5f611d2a87828801611a7c565b9450506020611d3b87828801611a7c565b9350506040611d4c878288016119cf565b925050606085013567ffffffffffffffff811115611d6d57611d6c611869565b5b611d7987828801611cd8565b91505092959194509250565b5f5f60408385031215611d9b57611d9a611865565b5b5f611da885828601611a7c565b9250506020611db985828601611a7c565b9150509250929050565b7f4e487b71000000000000000000000000000000000000000000000000000000005f52602260045260245ffd5b5f6002820490506001821680611e0757607f821691505b602082108103611e1a57611e19611dc3565b5b50919050565b5f82825260208201905092915050565b5f611e3b8385611e20565b9350611e48838584611c89565b611e5183611948565b840190509392505050565b5f6020820190508181035f830152611e75818486611e30565b90509392505050565b5f81905092915050565b5f611e9282611920565b611e9c8185611e7e565b9350611eac81856020860161193a565b80840191505092915050565b5f611ec38285611e88565b9150611ecf8284611e88565b91508190509392505050565b5f604082019050611eee5f830185611a3e565b611efb6020830184611a3e565b9392505050565b5f819050919050565b611f1481611f02565b8114611f1e575f5ffd5b50565b5f81519050611f2f81611f0b565b92915050565b5f60208284031215611f4a57611f49611865565b5b5f611f5784828501611f21565b91505092915050565b5f81519050919050565b5f611f7482611f60565b611f7e8185611e20565b9350611f8e81856020860161193a565b611f9781611948565b840191505092915050565b5f6020820190508181035f830152611fba8184611f6a565b905092915050565b5f606082019050611fd55f830186611a3e565b611fe26020830185611b49565b611fef6040830184611a3e565b949350505050565b5f60808201905061200a5f830187611a3e565b6120176020830186611a3e565b6120246040830185611b49565b81810360608301526120368184611f6a565b905095945050505050565b5f8151905061204f81611898565b92915050565b5f6020828403121561206a57612069611865565b5b5f61207784828501612041565b91505092915050565b7f4e487b71000000000000000000000000000000000000000000000000000000005f52601260045260245ffd5b5f6040820190506120c05f830185611a3e565b6120cd6020830184611b49565b939250505056fea2646970667358221220dc8cabaff3f3be89a72a7b8c8cb51dcc465d5f711046d0600994e22b9d7faf8764736f6c634300081e0033",
        "nonce": "0x51",
        "chainId": "0xaa36a7"
      },
      "additionalContracts": [],
      "isFixedGasLimit": false
    },
    {
      "hash": "0x1714f3d0e38ea6e039f6c61b2a8442b60078cf04c7297980924ccd020b3b1cc7",
      "transactionType": "CALL",
      "contractName": "ExampleERC20Contract",
      "contractAddress": "0xa03d0959f48f1cd029b726534ae07616f8b7361a",
      "function": "mint(address,uint256)",
      "arguments": [
        "0x5b73C5498c1E3b4dbA84de0F1833c4a029d90519",
        "1000000000000000000"
      ],
      "transaction": {
        "from": "0x763deb3f81b32e75cb0e3faa95f4bed94871576d",
        "to": "0xa03d0959f48f1cd029b726534ae07616f8b7361a",
        "gas": "0x18a63",
        "value": "0x0",
        "input": "0x40c10f190000000000000000000000005b73c5498c1e3b4dba84de0f1833c4a029d905190000000000000000000000000000000000000000000000000de0b6b3a7640000",
        "nonce": "0x52",
        "chainId": "0xaa36a7"
      },
      "additionalContracts": [],
      "isFixedGasLimit": false
    },
    {
      "hash": "0x27da114a1a8d24ec0972952f775bf3ef988b8dc383a16241d97f129874a00eb4",
      "transactionType": "CALL",
      "contractName": "ExampleERC721Contract",
      "contractAddress": "0x4b50b445794ac5c2b5d1ecba1b52b19440e74f28",
      "function": "mint(address,uint256)",
      "arguments": [
        "0x5b73C5498c1E3b4dbA84de0F1833c4a029d90519",
        "0"
      ],
      "transaction": {
        "from": "0x763deb3f81b32e75cb0e3faa95f4bed94871576d",
        "to": "0x4b50b445794ac5c2b5d1ecba1b52b19440e74f28",
        "gas": "0x1750c",
        "value": "0x0",
        "input": "0x40c10f190000000000000000000000005b73c5498c1e3b4dba84de0f1833c4a029d905190000000000000000000000000000000000000000000000000000000000000000",
        "nonce": "0x53",
        "chainId": "0xaa36a7"
      },
      "additionalContracts": [],
      "isFixedGasLimit": false
    },
    {
      "hash": "0xfa9b8b98a6a2532468fa54a1daa633d9c9dd9e16d1a3376ce9becdcc40abd209",
      "transactionType": "CALL",
      "contractName": "ExampleERC721Contract",
      "contractAddress": "0x4b50b445794ac5c2b5d1ecba1b52b19440e74f28",
      "function": "mint(address,uint256)",
      "arguments": [
        "0x5b73C5498c1E3b4dbA84de0F1833c4a029d90519",
        "1"
      ],
      "transaction": {
        "from": "0x763deb3f81b32e75cb0e3faa95f4bed94871576d",
        "to": "0x4b50b445794ac5c2b5d1ecba1b52b19440e74f28",
        "gas": "0x118d9",
        "value": "0x0",
        "input": "0x40c10f190000000000000000000000005b73c5498c1e3b4dba84de0f1833c4a029d905190000000000000000000000000000000000000000000000000000000000000001",
        "nonce": "0x54",
        "chainId": "0xaa36a7"
      },
      "additionalContracts": [],
      "isFixedGasLimit": false
    },
    {
      "hash": "0x36fef43df80c10b9efa9c5b5cfe390c8c35a340111fc09bd6a898041f8cec06d",
      "transactionType": "CALL",
      "contractName": "ExampleERC721Contract",
      "contractAddress": "0x4b50b445794ac5c2b5d1ecba1b52b19440e74f28",
      "function": "mint(address,uint256)",
      "arguments": [
        "0x5b73C5498c1E3b4dbA84de0F1833c4a029d90519",
        "2"
      ],
      "transaction": {
        "from": "0x763deb3f81b32e75cb0e3faa95f4bed94871576d",
        "to": "0x4b50b445794ac5c2b5d1ecba1b52b19440e74f28",
        "gas": "0x118d9",
        "value": "0x0",
        "input": "0x40c10f190000000000000000000000005b73c5498c1e3b4dba84de0f1833c4a029d905190000000000000000000000000000000000000000000000000000000000000002",
        "nonce": "0x55",
        "chainId": "0xaa36a7"
      },
      "additionalContracts": [],
      "isFixedGasLimit": false
    },
    {
      "hash": "0x9d207b2e461c3361f8509afffc5e9cf827a094170713dceef3f6e2e7c65c66ff",
      "transactionType": "CALL",
      "contractName": "ExampleERC721Contract",
      "contractAddress": "0x4b50b445794ac5c2b5d1ecba1b52b19440e74f28",
      "function": "mint(address,uint256)",
      "arguments": [
        "0x5b73C5498c1E3b4dbA84de0F1833c4a029d90519",
        "3"
      ],
      "transaction": {
        "from": "0x763deb3f81b32e75cb0e3faa95f4bed94871576d",
        "to": "0x4b50b445794ac5c2b5d1ecba1b52b19440e74f28",
        "gas": "0x118d9",
        "value": "0x0",
        "input": "0x40c10f190000000000000000000000005b73c5498c1e3b4dba84de0f1833c4a029d905190000000000000000000000000000000000000000000000000000000000000003",
        "nonce": "0x56",
        "chainId": "0xaa36a7"
      },
      "additionalContracts": [],
      "isFixedGasLimit": false
    },
    {
      "hash": "0x319a938039502d2d92fe957464fc10a6334c9e7be98f0fa528edcb6797a6f241",
      "transactionType": "CALL",
      "contractName": "ExampleERC721Contract",
      "contractAddress": "0x4b50b445794ac5c2b5d1ecba1b52b19440e74f28",
      "function": "mint(address,uint256)",
      "arguments": [
        "0x5b73C5498c1E3b4dbA84de0F1833c4a029d90519",
        "4"
      ],
      "transaction": {
        "from": "0x763deb3f81b32e75cb0e3faa95f4bed94871576d",
        "to": "0x4b50b445794ac5c2b5d1ecba1b52b19440e74f28",
        "gas": "0x118d9",
        "value": "0x0",
        "input": "0x40c10f190000000000000000000000005b73c5498c1e3b4dba84de0f1833c4a029d905190000000000000000000000000000000000000000000000000000000000000004",
        "nonce": "0x57",
        "chainId": "0xaa36a7"
      },
      "additionalContracts": [],
      "isFixedGasLimit": false
    },
    {
      "hash": "0x70ea8f891d4a7fb109f8ebb380ed2bdff41c7de704e3e9b057ddb03a99a0813c",
      "transactionType": "CALL",
      "contractName": "ExampleERC721Contract",
      "contractAddress": "0x4b50b445794ac5c2b5d1ecba1b52b19440e74f28",
      "function": "mint(address,uint256)",
      "arguments": [
        "0x5b73C5498c1E3b4dbA84de0F1833c4a029d90519",
        "5"
      ],
      "transaction": {
        "from": "0x763deb3f81b32e75cb0e3faa95f4bed94871576d",
        "to": "0x4b50b445794ac5c2b5d1ecba1b52b19440e74f28",
        "gas": "0x118d9",
        "value": "0x0",
        "input": "0x40c10f190000000000000000000000005b73c5498c1e3b4dba84de0f1833c4a029d905190000000000000000000000000000000000000000000000000000000000000005",
        "nonce": "0x58",
        "chainId": "0xaa36a7"
      },
      "additionalContracts": [],
      "isFixedGasLimit": false
    },
    {
      "hash": "0x887219fa50abcd826ceee3aec10d312526cdfb516f2078fd1d01f634336d9089",
      "transactionType": "CALL",
      "contractName": "ExampleERC721Contract",
      "contractAddress": "0x4b50b445794ac5c2b5d1ecba1b52b19440e74f28",
      "function": "mint(address,uint256)",
      "arguments": [
        "0x5b73C5498c1E3b4dbA84de0F1833c4a029d90519",
        "6"
      ],
      "transaction": {
        "from": "0x763deb3f81b32e75cb0e3faa95f4bed94871576d",
        "to": "0x4b50b445794ac5c2b5d1ecba1b52b19440e74f28",
        "gas": "0x118d9",
        "value": "0x0",
        "input": "0x40c10f190000000000000000000000005b73c5498c1e3b4dba84de0f1833c4a029d905190000000000000000000000000000000000000000000000000000000000000006",
        "nonce": "0x59",
        "chainId": "0xaa36a7"
      },
      "additionalContracts": [],
      "isFixedGasLimit": false
    },
    {
      "hash": "0xaaf40fb4e210920807e7e4ce663959c2d9e369d63e68dbae66e8fbbfc92ae6c6",
      "transactionType": "CALL",
      "contractName": "ExampleERC721Contract",
      "contractAddress": "0x4b50b445794ac5c2b5d1ecba1b52b19440e74f28",
      "function": "mint(address,uint256)",
      "arguments": [
        "0x5b73C5498c1E3b4dbA84de0F1833c4a029d90519",
        "7"
      ],
      "transaction": {
        "from": "0x763deb3f81b32e75cb0e3faa95f4bed94871576d",
        "to": "0x4b50b445794ac5c2b5d1ecba1b52b19440e74f28",
        "gas": "0x118d9",
        "value": "0x0",
        "input": "0x40c10f190000000000000000000000005b73c5498c1e3b4dba84de0f1833c4a029d905190000000000000000000000000000000000000000000000000000000000000007",
        "nonce": "0x5a",
        "chainId": "0xaa36a7"
      },
      "additionalContracts": [],
      "isFixedGasLimit": false
    },
    {
      "hash": "0xcf70114f3f7b359b5a3f0f57a708139ff97165a01678569f2d9e559f9dae6f88",
      "transactionType": "CALL",
      "contractName": "ExampleERC721Contract",
      "contractAddress": "0x4b50b445794ac5c2b5d1ecba1b52b19440e74f28",
      "function": "mint(address,uint256)",
      "arguments": [
        "0x5b73C5498c1E3b4dbA84de0F1833c4a029d90519",
        "8"
      ],
      "transaction": {
        "from": "0x763deb3f81b32e75cb0e3faa95f4bed94871576d",
        "to": "0x4b50b445794ac5c2b5d1ecba1b52b19440e74f28",
        "gas": "0x118d9",
        "value": "0x0",
        "input": "0x40c10f190000000000000000000000005b73c5498c1e3b4dba84de0f1833c4a029d905190000000000000000000000000000000000000000000000000000000000000008",
        "nonce": "0x5b",
        "chainId": "0xaa36a7"
      },
      "additionalContracts": [],
      "isFixedGasLimit": false
    },
    {
      "hash": "0x412462fdef6b400625ac52509c17ec97ea17cd4e4c20767ca8ee5f02c7ed9d48",
      "transactionType": "CALL",
      "contractName": "ExampleERC721Contract",
      "contractAddress": "0x4b50b445794ac5c2b5d1ecba1b52b19440e74f28",
      "function": "mint(address,uint256)",
      "arguments": [
        "0x5b73C5498c1E3b4dbA84de0F1833c4a029d90519",
        "9"
      ],
      "transaction": {
        "from": "0x763deb3f81b32e75cb0e3faa95f4bed94871576d",
        "to": "0x4b50b445794ac5c2b5d1ecba1b52b19440e74f28",
        "gas": "0x118d9",
        "value": "0x0",
        "input": "0x40c10f190000000000000000000000005b73c5498c1e3b4dba84de0f1833c4a029d905190000000000000000000000000000000000000000000000000000000000000009",
        "nonce": "0x5c",
        "chainId": "0xaa36a7"
      },
      "additionalContracts": [],
      "isFixedGasLimit": false
    },
    {
      "hash": "0xef8ddc4e8e426ab7d69d0c8d12d7083a2a048632eca6901a6fedbc949c32c145",
      "transactionType": "CALL",
      "contractName": "ExampleERC20Contract",
      "contractAddress": "0xa03d0959f48f1cd029b726534ae07616f8b7361a",
      "function": "setRulesEngineAddress(address)",
      "arguments": [
        "0x6039C14B2B50577C2F22D943F4984466D6B6D3e1"
      ],
      "transaction": {
        "from": "0x763deb3f81b32e75cb0e3faa95f4bed94871576d",
        "to": "0xa03d0959f48f1cd029b726534ae07616f8b7361a",
        "gas": "0xfbe1",
        "value": "0x0",
        "input": "0xd177fe050000000000000000000000006039c14b2b50577c2f22d943f4984466d6b6d3e1",
        "nonce": "0x5d",
        "chainId": "0xaa36a7"
      },
      "additionalContracts": [],
      "isFixedGasLimit": false
    },
    {
      "hash": "0xa851dc9d6a0c426bb0d93b9be12134ebd2d2fedbc7964f89636288cfae71cdc6",
      "transactionType": "CALL",
      "contractName": "ExampleERC721Contract",
      "contractAddress": "0x4b50b445794ac5c2b5d1ecba1b52b19440e74f28",
      "function": "setRulesEngineAddress(address)",
      "arguments": [
        "0x6039C14B2B50577C2F22D943F4984466D6B6D3e1"
      ],
      "transaction": {
        "from": "0x763deb3f81b32e75cb0e3faa95f4bed94871576d",
        "to": "0x4b50b445794ac5c2b5d1ecba1b52b19440e74f28",
        "gas": "0xee01",
        "value": "0x0",
        "input": "0xd177fe050000000000000000000000006039c14b2b50577c2f22d943f4984466d6b6d3e1",
        "nonce": "0x5e",
        "chainId": "0xaa36a7"
      },
      "additionalContracts": [],
      "isFixedGasLimit": false
    },
    {
      "hash": "0xc914ef82bc686dd5c842e4c2fbf39b332227ec00b25a4c4f160c771f64b61418",
      "transactionType": "CALL",
      "contractName": "ExampleERC20Contract",
      "contractAddress": "0xa03d0959f48f1cd029b726534ae07616f8b7361a",
      "function": "setCallingContractAdmin(address)",
      "arguments": [
        "0x763DEB3F81B32E75cb0E3FaA95f4bED94871576D"
      ],
      "transaction": {
        "from": "0x763deb3f81b32e75cb0e3faa95f4bed94871576d",
        "to": "0xa03d0959f48f1cd029b726534ae07616f8b7361a",
        "gas": "0x35679",
        "value": "0x0",
        "input": "0xd5175845000000000000000000000000763deb3f81b32e75cb0e3faa95f4bed94871576d",
        "nonce": "0x5f",
        "chainId": "0xaa36a7"
      },
      "additionalContracts": [],
      "isFixedGasLimit": false
    },
    {
      "hash": "0x65eb6b723efa88bf816ecb6cc4b49b7db812a27c3935b9d22281419f80d5505f",
      "transactionType": "CALL",
      "contractName": "ExampleERC721Contract",
      "contractAddress": "0x4b50b445794ac5c2b5d1ecba1b52b19440e74f28",
      "function": "setCallingContractAdmin(address)",
      "arguments": [
        "0x763DEB3F81B32E75cb0E3FaA95f4bED94871576D"
      ],
      "transaction": {
        "from": "0x763deb3f81b32e75cb0e3faa95f4bed94871576d",
        "to": "0x4b50b445794ac5c2b5d1ecba1b52b19440e74f28",
        "gas": "0x2bbc0",
        "value": "0x0",
        "input": "0xd5175845000000000000000000000000763deb3f81b32e75cb0e3faa95f4bed94871576d",
        "nonce": "0x60",
        "chainId": "0xaa36a7"
      },
      "additionalContracts": [],
      "isFixedGasLimit": false
    }
  ],
  "receipts": [
    {
      "status": "0x1",
      "cumulativeGasUsed": "0x148379a",
      "logs": [],
      "logsBloom": "0x00000000000000000000000000000000000000000000000000000000000000000000000000000000000000000000000000000000000000000000000000000000000000000000000000000000000000000000000000000000000000000000000000000000000000000000000000000000000000000000000000000000000000000000000000000000000000000000000000000000000000000000000000000000000000000000000000000000000000000000000000000000000000000000000000000000000000000000000000000000000000000000000000000000000000000000000000000000000000000000000000000000000000000000000000000000",
      "type": "0x2",
      "transactionHash": "0x5f1ad1283343b653702934854982c21acd91d5377e969d7fbbf5a827c6c4697b",
      "transactionIndex": "0x86",
      "blockHash": "0xfe847bdc9b9ffc96aea1a52601fa0a98bcfc080fdd8a4068d3cbd43a879d866f",
      "blockNumber": "0x87ab1e",
      "gasUsed": "0x1267e6",
      "effectiveGasPrice": "0x2299b96",
      "from": "0x763deb3f81b32e75cb0e3faa95f4bed94871576d",
      "to": null,
      "contractAddress": "0xa03d0959f48f1cd029b726534ae07616f8b7361a"
    },
    {
      "status": "0x1",
      "cumulativeGasUsed": "0x165bb5c",
      "logs": [],
      "logsBloom": "0x00000000000000000000000000000000000000000000000000000000000000000000000000000000000000000000000000000000000000000000000000000000000000000000000000000000000000000000000000000000000000000000000000000000000000000000000000000000000000000000000000000000000000000000000000000000000000000000000000000000000000000000000000000000000000000000000000000000000000000000000000000000000000000000000000000000000000000000000000000000000000000000000000000000000000000000000000000000000000000000000000000000000000000000000000000000",
      "type": "0x2",
      "transactionHash": "0x7524f97907f4335d0b7c2484c387388cdba3c01b9cd3480ded907d0dc2e91066",
      "transactionIndex": "0x87",
      "blockHash": "0xfe847bdc9b9ffc96aea1a52601fa0a98bcfc080fdd8a4068d3cbd43a879d866f",
      "blockNumber": "0x87ab1e",
      "gasUsed": "0x1d83c2",
      "effectiveGasPrice": "0x2299b96",
      "from": "0x763deb3f81b32e75cb0e3faa95f4bed94871576d",
      "to": null,
      "contractAddress": "0x4b50b445794ac5c2b5d1ecba1b52b19440e74f28"
    },
    {
      "status": "0x1",
      "cumulativeGasUsed": "0x166c907",
      "logs": [
        {
          "address": "0xa03d0959f48f1cd029b726534ae07616f8b7361a",
          "topics": [
            "0xddf252ad1be2c89b69c2b068fc378daa952ba7f163c4a11628f55a4df523b3ef",
            "0x0000000000000000000000000000000000000000000000000000000000000000",
            "0x0000000000000000000000005b73c5498c1e3b4dba84de0f1833c4a029d90519"
          ],
          "data": "0x0000000000000000000000000000000000000000000000000de0b6b3a7640000",
          "blockHash": "0xfe847bdc9b9ffc96aea1a52601fa0a98bcfc080fdd8a4068d3cbd43a879d866f",
          "blockNumber": "0x87ab1e",
          "blockTimestamp": "0x688d0598",
          "transactionHash": "0x1714f3d0e38ea6e039f6c61b2a8442b60078cf04c7297980924ccd020b3b1cc7",
          "transactionIndex": "0x88",
          "logIndex": "0x136",
          "removed": false
        }
      ],
      "logsBloom": "0x00000000000000000000000000000000000000000000000000000000000000000000000000000000000000000000000000000000000000000000000000000000000000000000000000000008000000000000000000000000000000000000000000000000020000000000000000000800008000000000040000000010000000000000000000080000000000000000000000000000000000000000000000000000000000000000000000000002400000000000000000000000000000000000000000000002000000000000000000000000000000000000000000000000000020000000000000000000000000000000000000000000000000000000000000000200",
      "type": "0x2",
      "transactionHash": "0x1714f3d0e38ea6e039f6c61b2a8442b60078cf04c7297980924ccd020b3b1cc7",
      "transactionIndex": "0x88",
      "blockHash": "0xfe847bdc9b9ffc96aea1a52601fa0a98bcfc080fdd8a4068d3cbd43a879d866f",
      "blockNumber": "0x87ab1e",
      "gasUsed": "0x10dab",
      "effectiveGasPrice": "0x2299b96",
      "from": "0x763deb3f81b32e75cb0e3faa95f4bed94871576d",
      "to": "0xa03d0959f48f1cd029b726534ae07616f8b7361a",
      "contractAddress": null
    },
    {
      "status": "0x1",
      "cumulativeGasUsed": "0x167d71c",
      "logs": [
        {
          "address": "0x4b50b445794ac5c2b5d1ecba1b52b19440e74f28",
          "topics": [
            "0xddf252ad1be2c89b69c2b068fc378daa952ba7f163c4a11628f55a4df523b3ef",
            "0x0000000000000000000000000000000000000000000000000000000000000000",
            "0x0000000000000000000000005b73c5498c1e3b4dba84de0f1833c4a029d90519",
            "0x0000000000000000000000000000000000000000000000000000000000000000"
          ],
          "data": "0x",
          "blockHash": "0xfe847bdc9b9ffc96aea1a52601fa0a98bcfc080fdd8a4068d3cbd43a879d866f",
          "blockNumber": "0x87ab1e",
          "blockTimestamp": "0x688d0598",
          "transactionHash": "0x27da114a1a8d24ec0972952f775bf3ef988b8dc383a16241d97f129874a00eb4",
          "transactionIndex": "0x89",
          "logIndex": "0x137",
          "removed": false
        }
      ],
      "logsBloom": "0x00000000000000000000000000000000000000000000000000000000000000000000000000000000000000000000000001000000000000000000000000000000000000000000000000000008000000000000000000000000000000000000000000000000020000000000000000000800008000000000000000000010000000000000000000000000000000000000000000000000000000000000000000000000000000000000000000000002000000000000000000000000000000000000000000000002000000000000000000000000000000000000000000000000000020000000000100000000000000000000000000000000000000000000000000008200",
      "type": "0x2",
      "transactionHash": "0x27da114a1a8d24ec0972952f775bf3ef988b8dc383a16241d97f129874a00eb4",
      "transactionIndex": "0x89",
      "blockHash": "0xfe847bdc9b9ffc96aea1a52601fa0a98bcfc080fdd8a4068d3cbd43a879d866f",
      "blockNumber": "0x87ab1e",
      "gasUsed": "0x10e15",
      "effectiveGasPrice": "0x2299b96",
      "from": "0x763deb3f81b32e75cb0e3faa95f4bed94871576d",
      "to": "0x4b50b445794ac5c2b5d1ecba1b52b19440e74f28",
      "contractAddress": null
    },
    {
      "status": "0x1",
      "cumulativeGasUsed": "0x168a271",
      "logs": [
        {
          "address": "0x4b50b445794ac5c2b5d1ecba1b52b19440e74f28",
          "topics": [
            "0xddf252ad1be2c89b69c2b068fc378daa952ba7f163c4a11628f55a4df523b3ef",
            "0x0000000000000000000000000000000000000000000000000000000000000000",
            "0x0000000000000000000000005b73c5498c1e3b4dba84de0f1833c4a029d90519",
            "0x0000000000000000000000000000000000000000000000000000000000000001"
          ],
          "data": "0x",
          "blockHash": "0xfe847bdc9b9ffc96aea1a52601fa0a98bcfc080fdd8a4068d3cbd43a879d866f",
          "blockNumber": "0x87ab1e",
          "blockTimestamp": "0x688d0598",
          "transactionHash": "0xfa9b8b98a6a2532468fa54a1daa633d9c9dd9e16d1a3376ce9becdcc40abd209",
          "transactionIndex": "0x8a",
          "logIndex": "0x138",
          "removed": false
        }
      ],
      "logsBloom": "0x00000000000000000000000000000000000000000000000000000000000000000000000000000000000000000000000001000000000000000000000000040000000000000000000000000008000000000000000000040000000000000000000000000000020000000000000000000800008000000000000000000010000000000000000000000000000000000000000000000000000000000000000000000000000000000000000000000002000000000000000000000000000000000000000000000002000000000000000000000000000000000000000000000000000060000000000100000000000000000000000000000000000000000000000000008200",
      "type": "0x2",
      "transactionHash": "0xfa9b8b98a6a2532468fa54a1daa633d9c9dd9e16d1a3376ce9becdcc40abd209",
      "transactionIndex": "0x8a",
      "blockHash": "0xfe847bdc9b9ffc96aea1a52601fa0a98bcfc080fdd8a4068d3cbd43a879d866f",
      "blockNumber": "0x87ab1e",
      "gasUsed": "0xcb55",
      "effectiveGasPrice": "0x2299b96",
      "from": "0x763deb3f81b32e75cb0e3faa95f4bed94871576d",
      "to": "0x4b50b445794ac5c2b5d1ecba1b52b19440e74f28",
      "contractAddress": null
    },
    {
      "status": "0x1",
      "cumulativeGasUsed": "0x1696dc6",
      "logs": [
        {
          "address": "0x4b50b445794ac5c2b5d1ecba1b52b19440e74f28",
          "topics": [
            "0xddf252ad1be2c89b69c2b068fc378daa952ba7f163c4a11628f55a4df523b3ef",
            "0x0000000000000000000000000000000000000000000000000000000000000000",
            "0x0000000000000000000000005b73c5498c1e3b4dba84de0f1833c4a029d90519",
            "0x0000000000000000000000000000000000000000000000000000000000000002"
          ],
          "data": "0x",
          "blockHash": "0xfe847bdc9b9ffc96aea1a52601fa0a98bcfc080fdd8a4068d3cbd43a879d866f",
          "blockNumber": "0x87ab1e",
          "blockTimestamp": "0x688d0598",
          "transactionHash": "0x36fef43df80c10b9efa9c5b5cfe390c8c35a340111fc09bd6a898041f8cec06d",
          "transactionIndex": "0x8b",
          "logIndex": "0x139",
          "removed": false
        }
      ],
      "logsBloom": "0x04000000000000000000000000000000000000000000000000000000000000000000000000000000000000000000000001000000000000000000000000000000000000000000000000000008000000000000000000000000000000000000000000000000020000000000000000000800008000000000000000000010000000000000000000000000000000000000000000000000000000000000000000000000000000000000000000000102000000000000000000000000000000000000000000000002000000000000000000000000000000000000000000000000000020000000000100000000000000000000000000000000008000000000000000008200",
      "type": "0x2",
      "transactionHash": "0x36fef43df80c10b9efa9c5b5cfe390c8c35a340111fc09bd6a898041f8cec06d",
      "transactionIndex": "0x8b",
      "blockHash": "0xfe847bdc9b9ffc96aea1a52601fa0a98bcfc080fdd8a4068d3cbd43a879d866f",
      "blockNumber": "0x87ab1e",
      "gasUsed": "0xcb55",
      "effectiveGasPrice": "0x2299b96",
      "from": "0x763deb3f81b32e75cb0e3faa95f4bed94871576d",
      "to": "0x4b50b445794ac5c2b5d1ecba1b52b19440e74f28",
      "contractAddress": null
    },
    {
      "status": "0x1",
      "cumulativeGasUsed": "0x16a391b",
      "logs": [
        {
          "address": "0x4b50b445794ac5c2b5d1ecba1b52b19440e74f28",
          "topics": [
            "0xddf252ad1be2c89b69c2b068fc378daa952ba7f163c4a11628f55a4df523b3ef",
            "0x0000000000000000000000000000000000000000000000000000000000000000",
            "0x0000000000000000000000005b73c5498c1e3b4dba84de0f1833c4a029d90519",
            "0x0000000000000000000000000000000000000000000000000000000000000003"
          ],
          "data": "0x",
          "blockHash": "0xfe847bdc9b9ffc96aea1a52601fa0a98bcfc080fdd8a4068d3cbd43a879d866f",
          "blockNumber": "0x87ab1e",
          "blockTimestamp": "0x688d0598",
          "transactionHash": "0x9d207b2e461c3361f8509afffc5e9cf827a094170713dceef3f6e2e7c65c66ff",
          "transactionIndex": "0x8c",
          "logIndex": "0x13a",
          "removed": false
        }
      ],
      "logsBloom": "0x00000000000000000000000000000000000000000000000000000000000000000000000000000000000000000000000001000000020000000000000000000000000000000000000000000008000000000000000000000000000000000000000000000000020000000000000000000800008000000000000000000010000000000000000000000000000000000000000000000000000000000000000000000000000000000000000000000002000000000000000000800000000000000000400000000002000000000000000000000000000000000000000000000000000020000000000100000000000000000000000000000000000000000000000000008200",
      "type": "0x2",
      "transactionHash": "0x9d207b2e461c3361f8509afffc5e9cf827a094170713dceef3f6e2e7c65c66ff",
      "transactionIndex": "0x8c",
      "blockHash": "0xfe847bdc9b9ffc96aea1a52601fa0a98bcfc080fdd8a4068d3cbd43a879d866f",
      "blockNumber": "0x87ab1e",
      "gasUsed": "0xcb55",
      "effectiveGasPrice": "0x2299b96",
      "from": "0x763deb3f81b32e75cb0e3faa95f4bed94871576d",
      "to": "0x4b50b445794ac5c2b5d1ecba1b52b19440e74f28",
      "contractAddress": null
    },
    {
      "status": "0x1",
      "cumulativeGasUsed": "0x16b0470",
      "logs": [
        {
          "address": "0x4b50b445794ac5c2b5d1ecba1b52b19440e74f28",
          "topics": [
            "0xddf252ad1be2c89b69c2b068fc378daa952ba7f163c4a11628f55a4df523b3ef",
            "0x0000000000000000000000000000000000000000000000000000000000000000",
            "0x0000000000000000000000005b73c5498c1e3b4dba84de0f1833c4a029d90519",
            "0x0000000000000000000000000000000000000000000000000000000000000004"
          ],
          "data": "0x",
          "blockHash": "0xfe847bdc9b9ffc96aea1a52601fa0a98bcfc080fdd8a4068d3cbd43a879d866f",
          "blockNumber": "0x87ab1e",
          "blockTimestamp": "0x688d0598",
          "transactionHash": "0x319a938039502d2d92fe957464fc10a6334c9e7be98f0fa528edcb6797a6f241",
          "transactionIndex": "0x8d",
          "logIndex": "0x13b",
          "removed": false
        }
      ],
      "logsBloom": "0x00000000000000000000000000000000000000000000000000000000000000000000000000000000000000000000000001000000000000000000000000000000000000000000000000000008000000000000000000000000000000000000000008000000020000000000000000000800008000000000000000000010000000000000000000000000000000000000000000000000000000000000000000000000000000000000000000000002000000000000000000000000002000000000000000000002000000000000000000000000000000008000000000000000000020000000000100000000000000000000000000000000000000000000000000008200",
      "type": "0x2",
      "transactionHash": "0x319a938039502d2d92fe957464fc10a6334c9e7be98f0fa528edcb6797a6f241",
      "transactionIndex": "0x8d",
      "blockHash": "0xfe847bdc9b9ffc96aea1a52601fa0a98bcfc080fdd8a4068d3cbd43a879d866f",
      "blockNumber": "0x87ab1e",
      "gasUsed": "0xcb55",
      "effectiveGasPrice": "0x2299b96",
      "from": "0x763deb3f81b32e75cb0e3faa95f4bed94871576d",
      "to": "0x4b50b445794ac5c2b5d1ecba1b52b19440e74f28",
      "contractAddress": null
    },
    {
      "status": "0x1",
      "cumulativeGasUsed": "0x16bcfc5",
      "logs": [
        {
          "address": "0x4b50b445794ac5c2b5d1ecba1b52b19440e74f28",
          "topics": [
            "0xddf252ad1be2c89b69c2b068fc378daa952ba7f163c4a11628f55a4df523b3ef",
            "0x0000000000000000000000000000000000000000000000000000000000000000",
            "0x0000000000000000000000005b73c5498c1e3b4dba84de0f1833c4a029d90519",
            "0x0000000000000000000000000000000000000000000000000000000000000005"
          ],
          "data": "0x",
          "blockHash": "0xfe847bdc9b9ffc96aea1a52601fa0a98bcfc080fdd8a4068d3cbd43a879d866f",
          "blockNumber": "0x87ab1e",
          "blockTimestamp": "0x688d0598",
          "transactionHash": "0x70ea8f891d4a7fb109f8ebb380ed2bdff41c7de704e3e9b057ddb03a99a0813c",
          "transactionIndex": "0x8e",
          "logIndex": "0x13c",
          "removed": false
        }
      ],
      "logsBloom": "0x00000000000000000000000000000000000000000000000000000000000000000000000000000000000000000000000001000000000000000000000000000000000010000000000000000008000000000000000000000000000000000000000000000000020000000000000000000800008000000000000000000010000000000000000000000000000000000000001000000800000000000000000000000000000000000000000000000002000000000000000000000000000000000000000000000002000000000000000000000000000000000000000000000000000020000000000100000000000000000000000000000000000000000000000000008200",
      "type": "0x2",
      "transactionHash": "0x70ea8f891d4a7fb109f8ebb380ed2bdff41c7de704e3e9b057ddb03a99a0813c",
      "transactionIndex": "0x8e",
      "blockHash": "0xfe847bdc9b9ffc96aea1a52601fa0a98bcfc080fdd8a4068d3cbd43a879d866f",
      "blockNumber": "0x87ab1e",
      "gasUsed": "0xcb55",
      "effectiveGasPrice": "0x2299b96",
      "from": "0x763deb3f81b32e75cb0e3faa95f4bed94871576d",
      "to": "0x4b50b445794ac5c2b5d1ecba1b52b19440e74f28",
      "contractAddress": null
    },
    {
      "status": "0x1",
      "cumulativeGasUsed": "0x16c9b1a",
      "logs": [
        {
          "address": "0x4b50b445794ac5c2b5d1ecba1b52b19440e74f28",
          "topics": [
            "0xddf252ad1be2c89b69c2b068fc378daa952ba7f163c4a11628f55a4df523b3ef",
            "0x0000000000000000000000000000000000000000000000000000000000000000",
            "0x0000000000000000000000005b73c5498c1e3b4dba84de0f1833c4a029d90519",
            "0x0000000000000000000000000000000000000000000000000000000000000006"
          ],
          "data": "0x",
          "blockHash": "0xfe847bdc9b9ffc96aea1a52601fa0a98bcfc080fdd8a4068d3cbd43a879d866f",
          "blockNumber": "0x87ab1e",
          "blockTimestamp": "0x688d0598",
          "transactionHash": "0x887219fa50abcd826ceee3aec10d312526cdfb516f2078fd1d01f634336d9089",
          "transactionIndex": "0x8f",
          "logIndex": "0x13d",
          "removed": false
        }
      ],
      "logsBloom": "0x00000000000000000000000000000000000000000000000000000000000000000000000000000000000000000000000001000000000400000000000000000000000000000000000000000008000000000000000000000000000000000000000000000000020000000000000000000800008000000000000000000010000000000000000400000000000000000000000000000000000000000000000000000000000000000000000000000002000000000000000000000000000000080000000000000002000000000000000000000000000000000000000000000000000020000000000100000000000000000000000000000000000000000000000000008200",
      "type": "0x2",
      "transactionHash": "0x887219fa50abcd826ceee3aec10d312526cdfb516f2078fd1d01f634336d9089",
      "transactionIndex": "0x8f",
      "blockHash": "0xfe847bdc9b9ffc96aea1a52601fa0a98bcfc080fdd8a4068d3cbd43a879d866f",
      "blockNumber": "0x87ab1e",
      "gasUsed": "0xcb55",
      "effectiveGasPrice": "0x2299b96",
      "from": "0x763deb3f81b32e75cb0e3faa95f4bed94871576d",
      "to": "0x4b50b445794ac5c2b5d1ecba1b52b19440e74f28",
      "contractAddress": null
    },
    {
      "status": "0x1",
      "cumulativeGasUsed": "0x16d666f",
      "logs": [
        {
          "address": "0x4b50b445794ac5c2b5d1ecba1b52b19440e74f28",
          "topics": [
            "0xddf252ad1be2c89b69c2b068fc378daa952ba7f163c4a11628f55a4df523b3ef",
            "0x0000000000000000000000000000000000000000000000000000000000000000",
            "0x0000000000000000000000005b73c5498c1e3b4dba84de0f1833c4a029d90519",
            "0x0000000000000000000000000000000000000000000000000000000000000007"
          ],
          "data": "0x",
          "blockHash": "0xfe847bdc9b9ffc96aea1a52601fa0a98bcfc080fdd8a4068d3cbd43a879d866f",
          "blockNumber": "0x87ab1e",
          "blockTimestamp": "0x688d0598",
          "transactionHash": "0xaaf40fb4e210920807e7e4ce663959c2d9e369d63e68dbae66e8fbbfc92ae6c6",
          "transactionIndex": "0x90",
          "logIndex": "0x13e",
          "removed": false
        }
      ],
      "logsBloom": "0x00000000000000000000000000000000000000000000000000000000000000000000000000000000000000000000000001001000000000000000000000000000000020000000000000000008000000000000000000000000000000000000000000000000020000000000000000000800008000000000000000000010000000000000000000000000000000000000000000000000000000000000000000000000000000000000000000000002000000000000000000000000000000000000000000000002000000000000000000000000000000000000000000000100000020000000000100000000000000000000000000000000000000000000000000008200",
      "type": "0x2",
      "transactionHash": "0xaaf40fb4e210920807e7e4ce663959c2d9e369d63e68dbae66e8fbbfc92ae6c6",
      "transactionIndex": "0x90",
      "blockHash": "0xfe847bdc9b9ffc96aea1a52601fa0a98bcfc080fdd8a4068d3cbd43a879d866f",
      "blockNumber": "0x87ab1e",
      "gasUsed": "0xcb55",
      "effectiveGasPrice": "0x2299b96",
      "from": "0x763deb3f81b32e75cb0e3faa95f4bed94871576d",
      "to": "0x4b50b445794ac5c2b5d1ecba1b52b19440e74f28",
      "contractAddress": null
    },
    {
      "status": "0x1",
      "cumulativeGasUsed": "0x16e31c4",
      "logs": [
        {
          "address": "0x4b50b445794ac5c2b5d1ecba1b52b19440e74f28",
          "topics": [
            "0xddf252ad1be2c89b69c2b068fc378daa952ba7f163c4a11628f55a4df523b3ef",
            "0x0000000000000000000000000000000000000000000000000000000000000000",
            "0x0000000000000000000000005b73c5498c1e3b4dba84de0f1833c4a029d90519",
            "0x0000000000000000000000000000000000000000000000000000000000000008"
          ],
          "data": "0x",
          "blockHash": "0xfe847bdc9b9ffc96aea1a52601fa0a98bcfc080fdd8a4068d3cbd43a879d866f",
          "blockNumber": "0x87ab1e",
          "blockTimestamp": "0x688d0598",
          "transactionHash": "0xcf70114f3f7b359b5a3f0f57a708139ff97165a01678569f2d9e559f9dae6f88",
          "transactionIndex": "0x91",
          "logIndex": "0x13f",
          "removed": false
        }
      ],
      "logsBloom": "0x00000000000000000000000000000000000000000000000000000000000000000000000000000000000000000000000001000000000080000000000000000000000000000000000000000008000000000000000000000000000000000000000000000000020000000000000000000800008000000000000000000010000000000080000000000000000000000000000000000000000000000000000000000000000000000000000000000002000000000000000000000000000000000000000040000002000000000000000000000000000000000000000000000000000020000000000100000000000000000000000000000000000000000000000000008200",
      "type": "0x2",
      "transactionHash": "0xcf70114f3f7b359b5a3f0f57a708139ff97165a01678569f2d9e559f9dae6f88",
      "transactionIndex": "0x91",
      "blockHash": "0xfe847bdc9b9ffc96aea1a52601fa0a98bcfc080fdd8a4068d3cbd43a879d866f",
      "blockNumber": "0x87ab1e",
      "gasUsed": "0xcb55",
      "effectiveGasPrice": "0x2299b96",
      "from": "0x763deb3f81b32e75cb0e3faa95f4bed94871576d",
      "to": "0x4b50b445794ac5c2b5d1ecba1b52b19440e74f28",
      "contractAddress": null
    },
    {
      "status": "0x1",
      "cumulativeGasUsed": "0x16efd19",
      "logs": [
        {
          "address": "0x4b50b445794ac5c2b5d1ecba1b52b19440e74f28",
          "topics": [
            "0xddf252ad1be2c89b69c2b068fc378daa952ba7f163c4a11628f55a4df523b3ef",
            "0x0000000000000000000000000000000000000000000000000000000000000000",
            "0x0000000000000000000000005b73c5498c1e3b4dba84de0f1833c4a029d90519",
            "0x0000000000000000000000000000000000000000000000000000000000000009"
          ],
          "data": "0x",
          "blockHash": "0xfe847bdc9b9ffc96aea1a52601fa0a98bcfc080fdd8a4068d3cbd43a879d866f",
          "blockNumber": "0x87ab1e",
          "blockTimestamp": "0x688d0598",
          "transactionHash": "0x412462fdef6b400625ac52509c17ec97ea17cd4e4c20767ca8ee5f02c7ed9d48",
          "transactionIndex": "0x92",
          "logIndex": "0x140",
          "removed": false
        }
      ],
      "logsBloom": "0x00000000000000000000000000000000000000000000000000000000000000000000000000000000000000000000000001000000000000000000000000200000000000000000000000000008000000000000000000000000000000000000000000000000020000000000000000000800008000000000000000000010000000000000000000000000000000000000000000001000000000000000000000000000000000000000000000000002000000000000000000000000000000000000000000000002000000000000000000000000000000000000000000000000000020000000000100000000000000000000000000000000000000000000000000808200",
      "type": "0x2",
      "transactionHash": "0x412462fdef6b400625ac52509c17ec97ea17cd4e4c20767ca8ee5f02c7ed9d48",
      "transactionIndex": "0x92",
      "blockHash": "0xfe847bdc9b9ffc96aea1a52601fa0a98bcfc080fdd8a4068d3cbd43a879d866f",
      "blockNumber": "0x87ab1e",
      "gasUsed": "0xcb55",
      "effectiveGasPrice": "0x2299b96",
      "from": "0x763deb3f81b32e75cb0e3faa95f4bed94871576d",
      "to": "0x4b50b445794ac5c2b5d1ecba1b52b19440e74f28",
      "contractAddress": null
    },
    {
      "status": "0x1",
      "cumulativeGasUsed": "0x16fa953",
      "logs": [],
      "logsBloom": "0x00000000000000000000000000000000000000000000000000000000000000000000000000000000000000000000000000000000000000000000000000000000000000000000000000000000000000000000000000000000000000000000000000000000000000000000000000000000000000000000000000000000000000000000000000000000000000000000000000000000000000000000000000000000000000000000000000000000000000000000000000000000000000000000000000000000000000000000000000000000000000000000000000000000000000000000000000000000000000000000000000000000000000000000000000000000",
      "type": "0x2",
      "transactionHash": "0xef8ddc4e8e426ab7d69d0c8d12d7083a2a048632eca6901a6fedbc949c32c145",
      "transactionIndex": "0x93",
      "blockHash": "0xfe847bdc9b9ffc96aea1a52601fa0a98bcfc080fdd8a4068d3cbd43a879d866f",
      "blockNumber": "0x87ab1e",
      "gasUsed": "0xac3a",
      "effectiveGasPrice": "0x2299b96",
      "from": "0x763deb3f81b32e75cb0e3faa95f4bed94871576d",
      "to": "0xa03d0959f48f1cd029b726534ae07616f8b7361a",
      "contractAddress": null
    },
    {
      "status": "0x1",
      "cumulativeGasUsed": "0x17055a3",
      "logs": [],
      "logsBloom": "0x00000000000000000000000000000000000000000000000000000000000000000000000000000000000000000000000000000000000000000000000000000000000000000000000000000000000000000000000000000000000000000000000000000000000000000000000000000000000000000000000000000000000000000000000000000000000000000000000000000000000000000000000000000000000000000000000000000000000000000000000000000000000000000000000000000000000000000000000000000000000000000000000000000000000000000000000000000000000000000000000000000000000000000000000000000000",
      "type": "0x2",
      "transactionHash": "0xa851dc9d6a0c426bb0d93b9be12134ebd2d2fedbc7964f89636288cfae71cdc6",
      "transactionIndex": "0x94",
      "blockHash": "0xfe847bdc9b9ffc96aea1a52601fa0a98bcfc080fdd8a4068d3cbd43a879d866f",
      "blockNumber": "0x87ab1e",
      "gasUsed": "0xac50",
      "effectiveGasPrice": "0x2299b96",
      "from": "0x763deb3f81b32e75cb0e3faa95f4bed94871576d",
      "to": "0x4b50b445794ac5c2b5d1ecba1b52b19440e74f28",
      "contractAddress": null
    },
    {
      "status": "0x1",
      "cumulativeGasUsed": "0x1729de5",
      "logs": [
        {
          "address": "0x6039c14b2b50577c2f22d943f4984466d6b6d3e1",
          "topics": [
            "0x2f8788117e7eff1d82e926ec794901d17c78024a50270940304540a733656f0d",
            "0x4a2514c9eae25ac76e6c547de8e3718fa0b03468e97af829fbd72cac3df817bb",
            "0x000000000000000000000000763deb3f81b32e75cb0e3faa95f4bed94871576d",
            "0x000000000000000000000000a03d0959f48f1cd029b726534ae07616f8b7361a"
          ],
          "data": "0x",
          "blockHash": "0xfe847bdc9b9ffc96aea1a52601fa0a98bcfc080fdd8a4068d3cbd43a879d866f",
          "blockNumber": "0x87ab1e",
          "blockTimestamp": "0x688d0598",
          "transactionHash": "0xc914ef82bc686dd5c842e4c2fbf39b332227ec00b25a4c4f160c771f64b61418",
          "transactionIndex": "0x95",
          "logIndex": "0x141",
          "removed": false
        },
        {
          "address": "0x6039c14b2b50577c2f22d943f4984466d6b6d3e1",
          "topics": [
            "0x2b474bca23ad1f8b56bb31f8c22933f265e0e15bb4fcf8bb6c9c1de01f68eb65",
            "0x000000000000000000000000a03d0959f48f1cd029b726534ae07616f8b7361a",
            "0x000000000000000000000000763deb3f81b32e75cb0e3faa95f4bed94871576d"
          ],
          "data": "0x",
          "blockHash": "0xfe847bdc9b9ffc96aea1a52601fa0a98bcfc080fdd8a4068d3cbd43a879d866f",
          "blockNumber": "0x87ab1e",
          "blockTimestamp": "0x688d0598",
          "transactionHash": "0xc914ef82bc686dd5c842e4c2fbf39b332227ec00b25a4c4f160c771f64b61418",
          "transactionIndex": "0x95",
          "logIndex": "0x142",
          "removed": false
        }
      ],
      "logsBloom": "0x00000004000000000000000000000000000000000000000000000000000000000000040020000040000000000000000000000000000000000000000000000000000000000000000000000000000240000000000000000000000000000000000000000000000010020000000000000000000000000000000000000000000000000000000000000000000000000000000000000000000000000400000000000020000000000000000000000000000000000000000000001020001000080000004000000000000000004000000000000000000000000000000100000000000000000000000000000000000000000000000800000000000000000000000000000000",
      "type": "0x2",
      "transactionHash": "0xc914ef82bc686dd5c842e4c2fbf39b332227ec00b25a4c4f160c771f64b61418",
      "transactionIndex": "0x95",
      "blockHash": "0xfe847bdc9b9ffc96aea1a52601fa0a98bcfc080fdd8a4068d3cbd43a879d866f",
      "blockNumber": "0x87ab1e",
      "gasUsed": "0x24842",
      "effectiveGasPrice": "0x2299b96",
      "from": "0x763deb3f81b32e75cb0e3faa95f4bed94871576d",
      "to": "0xa03d0959f48f1cd029b726534ae07616f8b7361a",
      "contractAddress": null
    },
    {
      "status": "0x1",
      "cumulativeGasUsed": "0x1129ee0",
      "logs": [
        {
          "address": "0x6039c14b2b50577c2f22d943f4984466d6b6d3e1",
          "topics": [
            "0x2f8788117e7eff1d82e926ec794901d17c78024a50270940304540a733656f0d",
            "0xc546e7fd2cdd83a917ef58ccb33f53388aee1aa3fc7a4c9e257b3c1b1c46a5d9",
            "0x000000000000000000000000763deb3f81b32e75cb0e3faa95f4bed94871576d",
            "0x0000000000000000000000004b50b445794ac5c2b5d1ecba1b52b19440e74f28"
          ],
          "data": "0x",
          "blockHash": "0xa2a2ea10bf98c53245bcc3f7e5bf9a737fa77a500bedfcf4b375b427c204ed14",
          "blockNumber": "0x87ab1f",
          "blockTimestamp": "0x688d05a4",
          "transactionHash": "0x65eb6b723efa88bf816ecb6cc4b49b7db812a27c3935b9d22281419f80d5505f",
          "transactionIndex": "0x58",
          "logIndex": "0xa1",
          "removed": false
        },
        {
          "address": "0x6039c14b2b50577c2f22d943f4984466d6b6d3e1",
          "topics": [
            "0x2b474bca23ad1f8b56bb31f8c22933f265e0e15bb4fcf8bb6c9c1de01f68eb65",
            "0x0000000000000000000000004b50b445794ac5c2b5d1ecba1b52b19440e74f28",
            "0x000000000000000000000000763deb3f81b32e75cb0e3faa95f4bed94871576d"
          ],
          "data": "0x",
          "blockHash": "0xa2a2ea10bf98c53245bcc3f7e5bf9a737fa77a500bedfcf4b375b427c204ed14",
          "blockNumber": "0x87ab1f",
          "blockTimestamp": "0x688d05a4",
          "transactionHash": "0x65eb6b723efa88bf816ecb6cc4b49b7db812a27c3935b9d22281419f80d5505f",
          "transactionIndex": "0x58",
          "logIndex": "0xa2",
          "removed": false
        }
      ],
      "logsBloom": "0x00000004000000000000000000000000000000000000000000000000000000000000000000000040000000000000000000000000000000000000000000000000000000000000000000000010000240000000000000000000000000000004000000000000000010020000000000000000000040000000000000000000000000000000000000000000000000000000000000000000000000000400000000040000000000000000000000000000000000000000000000000020001000080000000000000000000000000000000000000010000000000000000300000000000000000000000000000000000000000000000800000000000000000000000000000000",
      "type": "0x2",
      "transactionHash": "0x65eb6b723efa88bf816ecb6cc4b49b7db812a27c3935b9d22281419f80d5505f",
      "transactionIndex": "0x58",
      "blockHash": "0xa2a2ea10bf98c53245bcc3f7e5bf9a737fa77a500bedfcf4b375b427c204ed14",
      "blockNumber": "0x87ab1f",
      "gasUsed": "0x1fa9c",
      "effectiveGasPrice": "0x2365e48",
      "from": "0x763deb3f81b32e75cb0e3faa95f4bed94871576d",
      "to": "0x4b50b445794ac5c2b5d1ecba1b52b19440e74f28",
      "contractAddress": null
    }
  ],
  "libraries": [],
  "pending": [],
  "returns": {},
  "timestamp": 1754072484,
  "chain": 11155111,
  "commit": "f05e6cf"
}