{
  "transactions": [
    {
      "hash": "0xbffd1e1496226de9b18579c1aec77cdf6ee3dcb4b6597ea26c9b3e29883a3b24",
      "transactionType": "CALL",
      "contractName": null,
      "contractAddress": "0xa03d0959f48f1cd029b726534ae07616f8b7361a",
      "function": "mint(address,uint256)",
      "arguments": [
        "0x763DEB3F81B32E75cb0E3FaA95f4bED94871576D",
        "1000000000000000000"
      ],
      "transaction": {
        "from": "0x763deb3f81b32e75cb0e3faa95f4bed94871576d",
        "to": "0xa03d0959f48f1cd029b726534ae07616f8b7361a",
        "gas": "0x11836",
        "value": "0x0",
        "input": "0x40c10f19000000000000000000000000763deb3f81b32e75cb0e3faa95f4bed94871576d0000000000000000000000000000000000000000000000000de0b6b3a7640000",
        "nonce": "0x61",
        "chainId": "0xaa36a7"
      },
      "additionalContracts": [],
      "isFixedGasLimit": false
    },
    {
      "hash": "0x8b7e3b0c816995f0f18c966e9af2d6ddddeed1c1f3301165f182a1d5da0ff7a6",
      "transactionType": "CALL",
      "contractName": null,
      "contractAddress": "0x4b50b445794ac5c2b5d1ecba1b52b19440e74f28",
      "function": "mint(address,uint256)",
      "arguments": [
        "0x763DEB3F81B32E75cb0E3FaA95f4bED94871576D",
        "11"
      ],
      "transaction": {
        "from": "0x763deb3f81b32e75cb0e3faa95f4bed94871576d",
        "to": "0x4b50b445794ac5c2b5d1ecba1b52b19440e74f28",
        "gas": "0x18b10",
        "value": "0x0",
        "input": "0x40c10f19000000000000000000000000763deb3f81b32e75cb0e3faa95f4bed94871576d000000000000000000000000000000000000000000000000000000000000000b",
        "nonce": "0x62",
        "chainId": "0xaa36a7"
      },
      "additionalContracts": [],
      "isFixedGasLimit": false
    },
    {
      "hash": "0x662a079f771bc025136a0a8049428c2925474996a3b5c63f38b5c49f26460bb7",
      "transactionType": "CALL",
      "contractName": null,
      "contractAddress": "0x4b50b445794ac5c2b5d1ecba1b52b19440e74f28",
      "function": "mint(address,uint256)",
      "arguments": [
        "0x763DEB3F81B32E75cb0E3FaA95f4bED94871576D",
        "12"
      ],
      "transaction": {
        "from": "0x763deb3f81b32e75cb0e3faa95f4bed94871576d",
        "to": "0x4b50b445794ac5c2b5d1ecba1b52b19440e74f28",
        "gas": "0x118d9",
        "value": "0x0",
        "input": "0x40c10f19000000000000000000000000763deb3f81b32e75cb0e3faa95f4bed94871576d000000000000000000000000000000000000000000000000000000000000000c",
        "nonce": "0x63",
        "chainId": "0xaa36a7"
      },
      "additionalContracts": [],
      "isFixedGasLimit": false
    },
    {
      "hash": "0xa1f39d330a8031e2b63be952a80f1d6838d99cb2c5a48fba50ad980fd2f2aa0c",
      "transactionType": "CALL",
      "contractName": null,
      "contractAddress": "0x4b50b445794ac5c2b5d1ecba1b52b19440e74f28",
      "function": "mint(address,uint256)",
      "arguments": [
        "0x763DEB3F81B32E75cb0E3FaA95f4bED94871576D",
        "13"
      ],
      "transaction": {
        "from": "0x763deb3f81b32e75cb0e3faa95f4bed94871576d",
        "to": "0x4b50b445794ac5c2b5d1ecba1b52b19440e74f28",
        "gas": "0x118d9",
        "value": "0x0",
        "input": "0x40c10f19000000000000000000000000763deb3f81b32e75cb0e3faa95f4bed94871576d000000000000000000000000000000000000000000000000000000000000000d",
        "nonce": "0x64",
        "chainId": "0xaa36a7"
      },
      "additionalContracts": [],
      "isFixedGasLimit": false
    },
    {
      "hash": "0x03d86424749541ed8b2881c0ac51afcb7ffd18e52ddf09e9543f3331ad0d4da0",
      "transactionType": "CALL",
      "contractName": null,
      "contractAddress": "0x4b50b445794ac5c2b5d1ecba1b52b19440e74f28",
      "function": "mint(address,uint256)",
      "arguments": [
        "0x763DEB3F81B32E75cb0E3FaA95f4bED94871576D",
        "14"
      ],
      "transaction": {
        "from": "0x763deb3f81b32e75cb0e3faa95f4bed94871576d",
        "to": "0x4b50b445794ac5c2b5d1ecba1b52b19440e74f28",
        "gas": "0x118d9",
        "value": "0x0",
        "input": "0x40c10f19000000000000000000000000763deb3f81b32e75cb0e3faa95f4bed94871576d000000000000000000000000000000000000000000000000000000000000000e",
        "nonce": "0x65",
        "chainId": "0xaa36a7"
      },
      "additionalContracts": [],
      "isFixedGasLimit": false
    },
    {
      "hash": "0x82ff8538019952a0c5c1a6235c88d5c517afc01d911c0a811a8f2569ff51699a",
      "transactionType": "CALL",
      "contractName": null,
      "contractAddress": "0x4b50b445794ac5c2b5d1ecba1b52b19440e74f28",
      "function": "mint(address,uint256)",
      "arguments": [
        "0x763DEB3F81B32E75cb0E3FaA95f4bED94871576D",
        "15"
      ],
      "transaction": {
        "from": "0x763deb3f81b32e75cb0e3faa95f4bed94871576d",
        "to": "0x4b50b445794ac5c2b5d1ecba1b52b19440e74f28",
        "gas": "0x118d9",
        "value": "0x0",
        "input": "0x40c10f19000000000000000000000000763deb3f81b32e75cb0e3faa95f4bed94871576d000000000000000000000000000000000000000000000000000000000000000f",
        "nonce": "0x66",
        "chainId": "0xaa36a7"
      },
      "additionalContracts": [],
      "isFixedGasLimit": false
    },
    {
      "hash": "0x4c64acc2602ed64685c697c1861a49be61cd1a51cc895f02470f95d54483eefe",
      "transactionType": "CALL",
      "contractName": null,
      "contractAddress": "0x4b50b445794ac5c2b5d1ecba1b52b19440e74f28",
      "function": "mint(address,uint256)",
      "arguments": [
        "0x763DEB3F81B32E75cb0E3FaA95f4bED94871576D",
        "16"
      ],
      "transaction": {
        "from": "0x763deb3f81b32e75cb0e3faa95f4bed94871576d",
        "to": "0x4b50b445794ac5c2b5d1ecba1b52b19440e74f28",
        "gas": "0x118d9",
        "value": "0x0",
        "input": "0x40c10f19000000000000000000000000763deb3f81b32e75cb0e3faa95f4bed94871576d0000000000000000000000000000000000000000000000000000000000000010",
        "nonce": "0x67",
        "chainId": "0xaa36a7"
      },
      "additionalContracts": [],
      "isFixedGasLimit": false
    },
    {
      "hash": "0x3fb017d4edbdf640827057a335f755dc29404888bc6fd162532949047583ba74",
      "transactionType": "CALL",
      "contractName": null,
      "contractAddress": "0x4b50b445794ac5c2b5d1ecba1b52b19440e74f28",
      "function": "mint(address,uint256)",
      "arguments": [
        "0x763DEB3F81B32E75cb0E3FaA95f4bED94871576D",
        "17"
      ],
      "transaction": {
        "from": "0x763deb3f81b32e75cb0e3faa95f4bed94871576d",
        "to": "0x4b50b445794ac5c2b5d1ecba1b52b19440e74f28",
        "gas": "0x118d9",
        "value": "0x0",
        "input": "0x40c10f19000000000000000000000000763deb3f81b32e75cb0e3faa95f4bed94871576d0000000000000000000000000000000000000000000000000000000000000011",
        "nonce": "0x68",
        "chainId": "0xaa36a7"
      },
      "additionalContracts": [],
      "isFixedGasLimit": false
    },
    {
      "hash": "0x43754147bdf123384060ca9f029fbabd6a3ce253c286fc06598e4fa5475db563",
      "transactionType": "CALL",
      "contractName": null,
      "contractAddress": "0x4b50b445794ac5c2b5d1ecba1b52b19440e74f28",
      "function": "mint(address,uint256)",
      "arguments": [
        "0x763DEB3F81B32E75cb0E3FaA95f4bED94871576D",
        "18"
      ],
      "transaction": {
        "from": "0x763deb3f81b32e75cb0e3faa95f4bed94871576d",
        "to": "0x4b50b445794ac5c2b5d1ecba1b52b19440e74f28",
        "gas": "0x118d9",
        "value": "0x0",
        "input": "0x40c10f19000000000000000000000000763deb3f81b32e75cb0e3faa95f4bed94871576d0000000000000000000000000000000000000000000000000000000000000012",
        "nonce": "0x69",
        "chainId": "0xaa36a7"
      },
      "additionalContracts": [],
      "isFixedGasLimit": false
    },
    {
      "hash": "0x6f5919d9d708b39e916f821cae72e80a6925abb813f6583cfd4d68dd6157274a",
      "transactionType": "CALL",
      "contractName": null,
      "contractAddress": "0x4b50b445794ac5c2b5d1ecba1b52b19440e74f28",
      "function": "mint(address,uint256)",
      "arguments": [
        "0x763DEB3F81B32E75cb0E3FaA95f4bED94871576D",
        "19"
      ],
      "transaction": {
        "from": "0x763deb3f81b32e75cb0e3faa95f4bed94871576d",
        "to": "0x4b50b445794ac5c2b5d1ecba1b52b19440e74f28",
        "gas": "0x118d9",
        "value": "0x0",
        "input": "0x40c10f19000000000000000000000000763deb3f81b32e75cb0e3faa95f4bed94871576d0000000000000000000000000000000000000000000000000000000000000013",
        "nonce": "0x6a",
        "chainId": "0xaa36a7"
      },
      "additionalContracts": [],
      "isFixedGasLimit": false
    }
  ],
  "receipts": [
    {
      "status": "0x1",
      "cumulativeGasUsed": "0xb972eb",
      "logs": [
        {
          "address": "0xa03d0959f48f1cd029b726534ae07616f8b7361a",
          "topics": [
            "0xddf252ad1be2c89b69c2b068fc378daa952ba7f163c4a11628f55a4df523b3ef",
            "0x0000000000000000000000000000000000000000000000000000000000000000",
            "0x000000000000000000000000763deb3f81b32e75cb0e3faa95f4bed94871576d"
          ],
          "data": "0x0000000000000000000000000000000000000000000000000de0b6b3a7640000",
          "blockHash": "0xdbc7638622b5cc21fc08b87a40a7efebd6f4649b7d88ac19125fc0036249babf",
          "blockNumber": "0x87ab7d",
          "blockTimestamp": "0x688d0a0c",
          "transactionHash": "0xbffd1e1496226de9b18579c1aec77cdf6ee3dcb4b6597ea26c9b3e29883a3b24",
          "transactionIndex": "0x75",
          "logIndex": "0xb9",
          "removed": false
        }
      ],
      "logsBloom": "0x00000000000000000000000000000000000000000000000000000000000000000000000000000000000000000000000000000000000000000000000000000000000000000000000000000008000200000000000000000000000000000000000000000000020000000000000000000800000000000000040000000010000000000000000000080000000000000000000000000000000000000400000000000000000000000000000000000000400000000000000000000020000000000000000000000002000000000000000000000000000000000000000000000000000020000000000000000000000000000000000000000000000000000000000000000000",
      "type": "0x2",
      "transactionHash": "0xbffd1e1496226de9b18579c1aec77cdf6ee3dcb4b6597ea26c9b3e29883a3b24",
      "transactionIndex": "0x75",
      "blockHash": "0xdbc7638622b5cc21fc08b87a40a7efebd6f4649b7d88ac19125fc0036249babf",
      "blockNumber": "0x87ab7d",
      "gasUsed": "0xcadf",
      "effectiveGasPrice": "0x5b556c",
      "from": "0x763deb3f81b32e75cb0e3faa95f4bed94871576d",
      "to": "0xa03d0959f48f1cd029b726534ae07616f8b7361a",
      "contractAddress": null
    },
    {
      "status": "0x1",
      "cumulativeGasUsed": "0xba810c",
      "logs": [
        {
          "address": "0x4b50b445794ac5c2b5d1ecba1b52b19440e74f28",
          "topics": [
            "0xddf252ad1be2c89b69c2b068fc378daa952ba7f163c4a11628f55a4df523b3ef",
            "0x0000000000000000000000000000000000000000000000000000000000000000",
            "0x000000000000000000000000763deb3f81b32e75cb0e3faa95f4bed94871576d",
            "0x000000000000000000000000000000000000000000000000000000000000000b"
          ],
          "data": "0x",
          "blockHash": "0xdbc7638622b5cc21fc08b87a40a7efebd6f4649b7d88ac19125fc0036249babf",
          "blockNumber": "0x87ab7d",
          "blockTimestamp": "0x688d0a0c",
          "transactionHash": "0x8b7e3b0c816995f0f18c966e9af2d6ddddeed1c1f3301165f182a1d5da0ff7a6",
          "transactionIndex": "0x76",
          "logIndex": "0xba",
          "removed": false
        }
      ],
      "logsBloom": "0x00000000000000000000004000000000000000000000000000000000000000000000000000000000000000000000000001000000000000000000000000000000000000000000000000000008000200000000000000000000000000000000000000000000020000000000000000000800000000000000000000000010000000000000000000000000000000000000000000000000000000000400000000000000000000000000000000000000000000000000000000000020000000000000000000000002000000000000000000000000002000000000000000000000000020000000000100000000000000000000000000000000000000040000000000008000",
      "type": "0x2",
      "transactionHash": "0x8b7e3b0c816995f0f18c966e9af2d6ddddeed1c1f3301165f182a1d5da0ff7a6",
      "transactionIndex": "0x76",
      "blockHash": "0xdbc7638622b5cc21fc08b87a40a7efebd6f4649b7d88ac19125fc0036249babf",
      "blockNumber": "0x87ab7d",
      "gasUsed": "0x10e21",
      "effectiveGasPrice": "0x5b556c",
      "from": "0x763deb3f81b32e75cb0e3faa95f4bed94871576d",
      "to": "0x4b50b445794ac5c2b5d1ecba1b52b19440e74f28",
      "contractAddress": null
    },
    {
      "status": "0x1",
      "cumulativeGasUsed": "0xbb4c61",
      "logs": [
        {
          "address": "0x4b50b445794ac5c2b5d1ecba1b52b19440e74f28",
          "topics": [
            "0xddf252ad1be2c89b69c2b068fc378daa952ba7f163c4a11628f55a4df523b3ef",
            "0x0000000000000000000000000000000000000000000000000000000000000000",
            "0x000000000000000000000000763deb3f81b32e75cb0e3faa95f4bed94871576d",
            "0x000000000000000000000000000000000000000000000000000000000000000c"
          ],
          "data": "0x",
          "blockHash": "0xdbc7638622b5cc21fc08b87a40a7efebd6f4649b7d88ac19125fc0036249babf",
          "blockNumber": "0x87ab7d",
          "blockTimestamp": "0x688d0a0c",
          "transactionHash": "0x662a079f771bc025136a0a8049428c2925474996a3b5c63f38b5c49f26460bb7",
          "transactionIndex": "0x77",
          "logIndex": "0xbb",
          "removed": false
        }
      ],
      "logsBloom": "0x00000000000000000000000000000000000002000000000000000000000000000000000000000200000000000000000001000000000000000000000000000000000000000000000000000008000200000000000000000000000000000000000000000000020000000000000000000800000000000000000000000010000000000000000000000000000000000000000000000000000000000400000000000000000000000000000000000000000000000000000000000020000000000000000000000002000000000000000000000000000000000000000000000000000020200000000100000000000000000000000000000000000000000000000000008000",
      "type": "0x2",
      "transactionHash": "0x662a079f771bc025136a0a8049428c2925474996a3b5c63f38b5c49f26460bb7",
      "transactionIndex": "0x77",
      "blockHash": "0xdbc7638622b5cc21fc08b87a40a7efebd6f4649b7d88ac19125fc0036249babf",
      "blockNumber": "0x87ab7d",
      "gasUsed": "0xcb55",
      "effectiveGasPrice": "0x5b556c",
      "from": "0x763deb3f81b32e75cb0e3faa95f4bed94871576d",
      "to": "0x4b50b445794ac5c2b5d1ecba1b52b19440e74f28",
      "contractAddress": null
    },
    {
      "status": "0x1",
      "cumulativeGasUsed": "0xbc17b6",
      "logs": [
        {
          "address": "0x4b50b445794ac5c2b5d1ecba1b52b19440e74f28",
          "topics": [
            "0xddf252ad1be2c89b69c2b068fc378daa952ba7f163c4a11628f55a4df523b3ef",
            "0x0000000000000000000000000000000000000000000000000000000000000000",
            "0x000000000000000000000000763deb3f81b32e75cb0e3faa95f4bed94871576d",
            "0x000000000000000000000000000000000000000000000000000000000000000d"
          ],
          "data": "0x",
          "blockHash": "0xdbc7638622b5cc21fc08b87a40a7efebd6f4649b7d88ac19125fc0036249babf",
          "blockNumber": "0x87ab7d",
          "blockTimestamp": "0x688d0a0c",
          "transactionHash": "0xa1f39d330a8031e2b63be952a80f1d6838d99cb2c5a48fba50ad980fd2f2aa0c",
          "transactionIndex": "0x78",
          "logIndex": "0xbc",
          "removed": false
        }
      ],
      "logsBloom": "0x00000000000000000040000000000000000000000000000000000000000000000000000000000000000000000000000001000000000000000000000000000000000000000000000000000008000200000002000000000000000000000000000000000000020000000000000000000800000000000000000000000010000000000000000000000000000000000000000000000000000000000400000000000000000000000000000000000000000000000000000000000020000000000000000000000002000000000000000000000000000000000000000000000000000020020000000100000000000000000000000000000000000000000000000000008000",
      "type": "0x2",
      "transactionHash": "0xa1f39d330a8031e2b63be952a80f1d6838d99cb2c5a48fba50ad980fd2f2aa0c",
      "transactionIndex": "0x78",
      "blockHash": "0xdbc7638622b5cc21fc08b87a40a7efebd6f4649b7d88ac19125fc0036249babf",
      "blockNumber": "0x87ab7d",
      "gasUsed": "0xcb55",
      "effectiveGasPrice": "0x5b556c",
      "from": "0x763deb3f81b32e75cb0e3faa95f4bed94871576d",
      "to": "0x4b50b445794ac5c2b5d1ecba1b52b19440e74f28",
      "contractAddress": null
    },
    {
      "status": "0x1",
      "cumulativeGasUsed": "0xbce30b",
      "logs": [
        {
          "address": "0x4b50b445794ac5c2b5d1ecba1b52b19440e74f28",
          "topics": [
            "0xddf252ad1be2c89b69c2b068fc378daa952ba7f163c4a11628f55a4df523b3ef",
            "0x0000000000000000000000000000000000000000000000000000000000000000",
            "0x000000000000000000000000763deb3f81b32e75cb0e3faa95f4bed94871576d",
            "0x000000000000000000000000000000000000000000000000000000000000000e"
          ],
          "data": "0x",
          "blockHash": "0xdbc7638622b5cc21fc08b87a40a7efebd6f4649b7d88ac19125fc0036249babf",
          "blockNumber": "0x87ab7d",
          "blockTimestamp": "0x688d0a0c",
          "transactionHash": "0x03d86424749541ed8b2881c0ac51afcb7ffd18e52ddf09e9543f3331ad0d4da0",
          "transactionIndex": "0x79",
          "logIndex": "0xbd",
          "removed": false
        }
      ],
      "logsBloom": "0x00000000000000000000000000000000000000000000000000000000000000000000000000000000000000000000000001000000000000000000000000000000000000000000000800000008000200000000000000000000000000000000000000000000020000000000000000000800000000000000000000000010000000000000000000000000000000000000000008000000000000000400000000000000000000000000000000000000000000000000000000000020000000000000000000000002000000000000000000000000000000000000000000000000000020000000000100000000000000000000000000000000000000000000000000008000",
      "type": "0x2",
      "transactionHash": "0x03d86424749541ed8b2881c0ac51afcb7ffd18e52ddf09e9543f3331ad0d4da0",
      "transactionIndex": "0x79",
      "blockHash": "0xdbc7638622b5cc21fc08b87a40a7efebd6f4649b7d88ac19125fc0036249babf",
      "blockNumber": "0x87ab7d",
      "gasUsed": "0xcb55",
      "effectiveGasPrice": "0x5b556c",
      "from": "0x763deb3f81b32e75cb0e3faa95f4bed94871576d",
      "to": "0x4b50b445794ac5c2b5d1ecba1b52b19440e74f28",
      "contractAddress": null
    },
    {
      "status": "0x1",
      "cumulativeGasUsed": "0xbdae60",
      "logs": [
        {
          "address": "0x4b50b445794ac5c2b5d1ecba1b52b19440e74f28",
          "topics": [
            "0xddf252ad1be2c89b69c2b068fc378daa952ba7f163c4a11628f55a4df523b3ef",
            "0x0000000000000000000000000000000000000000000000000000000000000000",
            "0x000000000000000000000000763deb3f81b32e75cb0e3faa95f4bed94871576d",
            "0x000000000000000000000000000000000000000000000000000000000000000f"
          ],
          "data": "0x",
          "blockHash": "0xdbc7638622b5cc21fc08b87a40a7efebd6f4649b7d88ac19125fc0036249babf",
          "blockNumber": "0x87ab7d",
          "blockTimestamp": "0x688d0a0c",
          "transactionHash": "0x82ff8538019952a0c5c1a6235c88d5c517afc01d911c0a811a8f2569ff51699a",
          "transactionIndex": "0x7a",
          "logIndex": "0xbe",
          "removed": false
        }
      ],
      "logsBloom": "0x00000000000000000000000000000000000000000000000000000000000000000000000000000000000000000000000001000000000000000000000000000000000000000000000000000008000200000000000000000000000000000002000000000000020000000000000000000800000000000000000000000010000000000000000000000800000000000000000000000000000000000400000000000000000000000000000000000000000000000000000000000020000000000000000000000002000000000000000000000000000000000000000000000000000020000000000300000000000000000000000000000000000000000000000000008000",
      "type": "0x2",
      "transactionHash": "0x82ff8538019952a0c5c1a6235c88d5c517afc01d911c0a811a8f2569ff51699a",
      "transactionIndex": "0x7a",
      "blockHash": "0xdbc7638622b5cc21fc08b87a40a7efebd6f4649b7d88ac19125fc0036249babf",
      "blockNumber": "0x87ab7d",
      "gasUsed": "0xcb55",
      "effectiveGasPrice": "0x5b556c",
      "from": "0x763deb3f81b32e75cb0e3faa95f4bed94871576d",
      "to": "0x4b50b445794ac5c2b5d1ecba1b52b19440e74f28",
      "contractAddress": null
    },
    {
      "status": "0x1",
      "cumulativeGasUsed": "0xbe79b5",
      "logs": [
        {
          "address": "0x4b50b445794ac5c2b5d1ecba1b52b19440e74f28",
          "topics": [
            "0xddf252ad1be2c89b69c2b068fc378daa952ba7f163c4a11628f55a4df523b3ef",
            "0x0000000000000000000000000000000000000000000000000000000000000000",
            "0x000000000000000000000000763deb3f81b32e75cb0e3faa95f4bed94871576d",
            "0x0000000000000000000000000000000000000000000000000000000000000010"
          ],
          "data": "0x",
          "blockHash": "0xdbc7638622b5cc21fc08b87a40a7efebd6f4649b7d88ac19125fc0036249babf",
          "blockNumber": "0x87ab7d",
          "blockTimestamp": "0x688d0a0c",
          "transactionHash": "0x4c64acc2602ed64685c697c1861a49be61cd1a51cc895f02470f95d54483eefe",
          "transactionIndex": "0x7b",
          "logIndex": "0xbf",
          "removed": false
        }
      ],
      "logsBloom": "0x00000000100000000000000000000000000000000000000000000000000000000000000000000000000000000000000001000000000000000000000000000000000000000000000000000008000200000000000000000000000000000000000000000000020000000000000000000800000000000000000000000010040000000000000000000000000000000000000000000100000000000400000000000000000000000000000000000000000000000000000000000020000000000000000000000002000000000000000000000000000000000000000000000000000020000000000100000000000000000000000000000000000000000000000000008000",
      "type": "0x2",
      "transactionHash": "0x4c64acc2602ed64685c697c1861a49be61cd1a51cc895f02470f95d54483eefe",
      "transactionIndex": "0x7b",
      "blockHash": "0xdbc7638622b5cc21fc08b87a40a7efebd6f4649b7d88ac19125fc0036249babf",
      "blockNumber": "0x87ab7d",
      "gasUsed": "0xcb55",
      "effectiveGasPrice": "0x5b556c",
      "from": "0x763deb3f81b32e75cb0e3faa95f4bed94871576d",
      "to": "0x4b50b445794ac5c2b5d1ecba1b52b19440e74f28",
      "contractAddress": null
    },
    {
      "status": "0x1",
      "cumulativeGasUsed": "0xbf450a",
      "logs": [
        {
          "address": "0x4b50b445794ac5c2b5d1ecba1b52b19440e74f28",
          "topics": [
            "0xddf252ad1be2c89b69c2b068fc378daa952ba7f163c4a11628f55a4df523b3ef",
            "0x0000000000000000000000000000000000000000000000000000000000000000",
            "0x000000000000000000000000763deb3f81b32e75cb0e3faa95f4bed94871576d",
            "0x0000000000000000000000000000000000000000000000000000000000000011"
          ],
          "data": "0x",
          "blockHash": "0xdbc7638622b5cc21fc08b87a40a7efebd6f4649b7d88ac19125fc0036249babf",
          "blockNumber": "0x87ab7d",
          "blockTimestamp": "0x688d0a0c",
          "transactionHash": "0x3fb017d4edbdf640827057a335f755dc29404888bc6fd162532949047583ba74",
          "transactionIndex": "0x7c",
          "logIndex": "0xc0",
          "removed": false
        }
      ],
      "logsBloom": "0x00000000000000000000000000000000000000000000000000000000000000000000000000000000000000000000000001000000000000000000000000000000000000000000000000000008000200000000000000000000000000000000000000000000020000000000000000000800000000004000000000000010000000000000000000000000000000000000000000000000000000000400000000000000000000000000000000000000000000000000000000000020000000000400000000001002000000000000000000000000000000000000000000000000000020000000000100000000000000000000000000000000000000000000000000008000",
      "type": "0x2",
      "transactionHash": "0x3fb017d4edbdf640827057a335f755dc29404888bc6fd162532949047583ba74",
      "transactionIndex": "0x7c",
      "blockHash": "0xdbc7638622b5cc21fc08b87a40a7efebd6f4649b7d88ac19125fc0036249babf",
      "blockNumber": "0x87ab7d",
      "gasUsed": "0xcb55",
      "effectiveGasPrice": "0x5b556c",
      "from": "0x763deb3f81b32e75cb0e3faa95f4bed94871576d",
      "to": "0x4b50b445794ac5c2b5d1ecba1b52b19440e74f28",
      "contractAddress": null
    },
    {
      "status": "0x1",
      "cumulativeGasUsed": "0xc0105f",
      "logs": [
        {
          "address": "0x4b50b445794ac5c2b5d1ecba1b52b19440e74f28",
          "topics": [
            "0xddf252ad1be2c89b69c2b068fc378daa952ba7f163c4a11628f55a4df523b3ef",
            "0x0000000000000000000000000000000000000000000000000000000000000000",
            "0x000000000000000000000000763deb3f81b32e75cb0e3faa95f4bed94871576d",
            "0x0000000000000000000000000000000000000000000000000000000000000012"
          ],
          "data": "0x",
          "blockHash": "0xdbc7638622b5cc21fc08b87a40a7efebd6f4649b7d88ac19125fc0036249babf",
          "blockNumber": "0x87ab7d",
          "blockTimestamp": "0x688d0a0c",
          "transactionHash": "0x43754147bdf123384060ca9f029fbabd6a3ce253c286fc06598e4fa5475db563",
          "transactionIndex": "0x7d",
          "logIndex": "0xc1",
          "removed": false
        }
      ],
      "logsBloom": "0x00000000000000000000000000000000000000000000000000000000000000000000000000000000000000000000000001000000000000000000000000000000000000000000000000000008000200000000000000000000000000000000000000000000020000000000000000000800000000000000000000000010000000000000000000000000000000000000040000000000000000000400000000000000000000000000000000000000000000000000000000000060000000000000000000000002000000000400000000000000000000000000000000000000000020000000000100000000000000000000000000000000000000000000000000008000",
      "type": "0x2",
      "transactionHash": "0x43754147bdf123384060ca9f029fbabd6a3ce253c286fc06598e4fa5475db563",
      "transactionIndex": "0x7d",
      "blockHash": "0xdbc7638622b5cc21fc08b87a40a7efebd6f4649b7d88ac19125fc0036249babf",
      "blockNumber": "0x87ab7d",
      "gasUsed": "0xcb55",
      "effectiveGasPrice": "0x5b556c",
      "from": "0x763deb3f81b32e75cb0e3faa95f4bed94871576d",
      "to": "0x4b50b445794ac5c2b5d1ecba1b52b19440e74f28",
      "contractAddress": null
    },
    {
      "status": "0x1",
      "cumulativeGasUsed": "0xc0dbb4",
      "logs": [
        {
          "address": "0x4b50b445794ac5c2b5d1ecba1b52b19440e74f28",
          "topics": [
            "0xddf252ad1be2c89b69c2b068fc378daa952ba7f163c4a11628f55a4df523b3ef",
            "0x0000000000000000000000000000000000000000000000000000000000000000",
            "0x000000000000000000000000763deb3f81b32e75cb0e3faa95f4bed94871576d",
            "0x0000000000000000000000000000000000000000000000000000000000000013"
          ],
          "data": "0x",
          "blockHash": "0xdbc7638622b5cc21fc08b87a40a7efebd6f4649b7d88ac19125fc0036249babf",
          "blockNumber": "0x87ab7d",
          "blockTimestamp": "0x688d0a0c",
          "transactionHash": "0x6f5919d9d708b39e916f821cae72e80a6925abb813f6583cfd4d68dd6157274a",
          "transactionIndex": "0x7e",
          "logIndex": "0xc2",
          "removed": false
        }
      ],
      "logsBloom": "0x20000000000000000000000000800000000000000000000000000000000000000000000040000000000000000000000001000000000000000000000000000000000000000000000000000008000200000000000000000000000000000000000000000000020000000000000000000800000000000000000000000010000000000000000000000000000000000000000000000000000000000400000000000000000000000000000000000000000000000000000000000020000000000000000000000002000000000000000000000000000000000000000000000000000020000000000100000000000000000000000000000000000000000000000000008000",
      "type": "0x2",
      "transactionHash": "0x6f5919d9d708b39e916f821cae72e80a6925abb813f6583cfd4d68dd6157274a",
      "transactionIndex": "0x7e",
      "blockHash": "0xdbc7638622b5cc21fc08b87a40a7efebd6f4649b7d88ac19125fc0036249babf",
      "blockNumber": "0x87ab7d",
      "gasUsed": "0xcb55",
      "effectiveGasPrice": "0x5b556c",
      "from": "0x763deb3f81b32e75cb0e3faa95f4bed94871576d",
      "to": "0x4b50b445794ac5c2b5d1ecba1b52b19440e74f28",
      "contractAddress": null
    }
  ],
  "libraries": [],
  "pending": [],
  "returns": {},
  "timestamp": 1754073612,
  "chain": 11155111,
  "commit": "f05e6cf"
}