{
  "transactions": [
    {
      "hash": "0xeba1930cf232f9b91433651dc706bfe33b22a0f0f593badcb685d34ea26aad7c",
      "transactionType": "CREATE",
      "contractName": "ExampleERC20Contract",
      "contractAddress": "0x867b5d7653bc012528164f4c957e9de420f43c01",
      "function": null,
      "arguments": null,
      "transaction": {
        "from": "0x763deb3f81b32e75cb0e3faa95f4bed94871576d",
        "gas": "0x17faa1",
        "value": "0x0",
        "input": "0x608060405234801561000f575f5ffd5b506040518060400160405280601481526020017f4578616d706c654552433230436f6e74726163740000000000000000000000008152506040518060400160405280600381526020017f4558430000000000000000000000000000000000000000000000000000000000815250816004908161008b91906102e0565b50806005908161009b91906102e0565b5050506103af565b5f81519050919050565b7f4e487b71000000000000000000000000000000000000000000000000000000005f52604160045260245ffd5b7f4e487b71000000000000000000000000000000000000000000000000000000005f52602260045260245ffd5b5f600282049050600182168061011e57607f821691505b602082108103610131576101306100da565b5b50919050565b5f819050815f5260205f209050919050565b5f6020601f8301049050919050565b5f82821b905092915050565b5f600883026101937fffffffffffffffffffffffffffffffffffffffffffffffffffffffffffffffff82610158565b61019d8683610158565b95508019841693508086168417925050509392505050565b5f819050919050565b5f819050919050565b5f6101e16101dc6101d7846101b5565b6101be565b6101b5565b9050919050565b5f819050919050565b6101fa836101c7565b61020e610206826101e8565b848454610164565b825550505050565b5f5f905090565b610225610216565b6102308184846101f1565b505050565b5b81811015610253576102485f8261021d565b600181019050610236565b5050565b601f8211156102985761026981610137565b61027284610149565b81016020851015610281578190505b61029561028d85610149565b830182610235565b50505b505050565b5f82821c905092915050565b5f6102b85f198460080261029d565b1980831691505092915050565b5f6102d083836102a9565b9150826002028217905092915050565b6102e9826100a3565b67ffffffffffffffff811115610302576103016100ad565b5b61030c8254610107565b610317828285610257565b5f60209050601f831160018114610348575f8415610336578287015190505b61034085826102c5565b8655506103a7565b601f19841661035686610137565b5f5b8281101561037d57848901518255600182019150602085019450602081019050610358565b8683101561039a5784890151610396601f8916826102a9565b8355505b6001600288020188555050505b505050505050565b6113df806103bc5f395ff3fe608060405234801561000f575f5ffd5b50600436106100cd575f3560e01c806370a082311161008a578063a9059cbb11610064578063a9059cbb14610213578063d177fe0514610243578063d51758451461025f578063dd62ed3e1461027b576100cd565b806370a08231146101a757806374a75cf9146101d757806395d89b41146101f5576100cd565b806306fdde03146100d1578063095ea7b3146100ef57806318160ddd1461011f57806323b872dd1461013d578063313ce5671461016d57806340c10f191461018b575b5f5ffd5b6100d96102ab565b6040516100e69190610f05565b60405180910390f35b61010960048036038101906101049190610fb6565b61033b565b604051610116919061100e565b60405180910390f35b61012761034e565b6040516101349190611036565b60405180910390f35b6101576004803603810190610152919061104f565b610357565b604051610164919061100e565b60405180910390f35b610175610415565b60405161018291906110ba565b60405180910390f35b6101a560048036038101906101a09190610fb6565b61041d565b005b6101c160048036038101906101bc91906110d3565b61042b565b6040516101ce9190611036565b60405180910390f35b6101df610471565b6040516101ec919061110d565b60405180910390f35b6101fd610495565b60405161020a9190610f05565b60405180910390f35b61022d60048036038101906102289190610fb6565b610525565b60405161023a919061100e565b60405180910390f35b61025d600480360381019061025891906110d3565b6105dd565b005b610279600480360381019061027491906110d3565b61061f565b005b61029560048036038101906102909190611126565b6106be565b6040516102a29190611036565b60405180910390f35b6060600480546102ba90611191565b80601f01602080910402602001604051908101604052809291908181526020018280546102e690611191565b80156103315780601f1061030857610100808354040283529160200191610331565b820191905f5260205f20905b81548152906001019060200180831161031457829003601f168201915b5050505050905090565b5f6103468383610740565b905092915050565b5f600354905090565b5f8383835f5f357fffffffff0000000000000000000000000000000000000000000000000000000016848484604051602401610395939291906111c1565b604051602081830303815290604052907bffffffffffffffffffffffffffffffffffffffffffffffffffffffff19166020820180517bffffffffffffffffffffffffffffffffffffffffffffffffffffffff838183161783525050505090506103fd81610762565b61040888888861083f565b9450505050509392505050565b5f6012905090565b610427828261086d565b5050565b5f60015f8373ffffffffffffffffffffffffffffffffffffffff1673ffffffffffffffffffffffffffffffffffffffff1681526020019081526020015f20549050919050565b5f5f9054906101000a900473ffffffffffffffffffffffffffffffffffffffff1681565b6060600580546104a490611191565b80601f01602080910402602001604051908101604052809291908181526020018280546104d090611191565b801561051b5780601f106104f25761010080835404028352916020019161051b565b820191905f5260205f20905b8154815290600101906020018083116104fe57829003601f168201915b5050505050905090565b5f82825f5f357fffffffff000000000000000000000000000000000000000000000000000000001683836040516024016105609291906111f6565b604051602081830303815290604052907bffffffffffffffffffffffffffffffffffffffffffffffffffffffff19166020820180517bffffffffffffffffffffffffffffffffffffffffffffffffffffffff838183161783525050505090506105c881610762565b6105d286866108ec565b935050505092915050565b805f5f6101000a81548173ffffffffffffffffffffffffffffffffffffffff021916908373ffffffffffffffffffffffffffffffffffffffff16021790555050565b5f5f9054906101000a900473ffffffffffffffffffffffffffffffffffffffff1673ffffffffffffffffffffffffffffffffffffffff1663804ba97d30836040518363ffffffff1660e01b815260040161067a92919061121d565b6020604051808303815f875af1158015610696573d5f5f3e3d5ffd5b505050506040513d601f19601f820116820180604052508101906106ba9190611277565b5050565b5f60025f8473ffffffffffffffffffffffffffffffffffffffff1673ffffffffffffffffffffffffffffffffffffffff1681526020019081526020015f205f8373ffffffffffffffffffffffffffffffffffffffff1673ffffffffffffffffffffffffffffffffffffffff1681526020019081526020015f2054905092915050565b5f5f61074a61090e565b9050610757818585610915565b600191505092915050565b5f73ffffffffffffffffffffffffffffffffffffffff165f5f9054906101000a900473ffffffffffffffffffffffffffffffffffffffff1673ffffffffffffffffffffffffffffffffffffffff161461083c575f5f9054906101000a900473ffffffffffffffffffffffffffffffffffffffff1673ffffffffffffffffffffffffffffffffffffffff1663ca328100826040518263ffffffff1660e01b815260040161080e91906112f4565b5f604051808303815f87803b158015610825575f5ffd5b505af1158015610837573d5f5f3e3d5ffd5b505050505b50565b5f5f61084961090e565b9050610856858285610927565b6108618585856109ba565b60019150509392505050565b5f73ffffffffffffffffffffffffffffffffffffffff168273ffffffffffffffffffffffffffffffffffffffff16036108dd575f6040517fec442f050000000000000000000000000000000000000000000000000000000081526004016108d4919061110d565b60405180910390fd5b6108e85f8383610aaa565b5050565b5f5f6108f661090e565b90506109038185856109ba565b600191505092915050565b5f33905090565b6109228383836001610cc6565b505050565b5f61093284846106be565b90507fffffffffffffffffffffffffffffffffffffffffffffffffffffffffffffffff8110156109b457818110156109a5578281836040517ffb8f41b200000000000000000000000000000000000000000000000000000000815260040161099c93929190611314565b60405180910390fd5b6109b384848484035f610cc6565b5b50505050565b5f73ffffffffffffffffffffffffffffffffffffffff168373ffffffffffffffffffffffffffffffffffffffff1603610a2a575f6040517f96c6fd1e000000000000000000000000000000000000000000000000000000008152600401610a21919061110d565b60405180910390fd5b5f73ffffffffffffffffffffffffffffffffffffffff168273ffffffffffffffffffffffffffffffffffffffff1603610a9a575f6040517fec442f05000000000000000000000000000000000000000000000000000000008152600401610a91919061110d565b60405180910390fd5b610aa5838383610aaa565b505050565b5f73ffffffffffffffffffffffffffffffffffffffff168373ffffffffffffffffffffffffffffffffffffffff1603610afa578060035f828254610aee9190611376565b92505081905550610bca565b5f60015f8573ffffffffffffffffffffffffffffffffffffffff1673ffffffffffffffffffffffffffffffffffffffff1681526020019081526020015f2054905081811015610b84578381836040517fe450d38c000000000000000000000000000000000000000000000000000000008152600401610b7b93929190611314565b60405180910390fd5b81810360015f8673ffffffffffffffffffffffffffffffffffffffff1673ffffffffffffffffffffffffffffffffffffffff1681526020019081526020015f2081905550505b5f73ffffffffffffffffffffffffffffffffffffffff168273ffffffffffffffffffffffffffffffffffffffff1603610c11578060035f8282540392505081905550610c5c565b8060015f8473ffffffffffffffffffffffffffffffffffffffff1673ffffffffffffffffffffffffffffffffffffffff1681526020019081526020015f205f82825401925050819055505b8173ffffffffffffffffffffffffffffffffffffffff168373ffffffffffffffffffffffffffffffffffffffff167fddf252ad1be2c89b69c2b068fc378daa952ba7f163c4a11628f55a4df523b3ef83604051610cb99190611036565b60405180910390a3505050565b5f73ffffffffffffffffffffffffffffffffffffffff168473ffffffffffffffffffffffffffffffffffffffff1603610d36575f6040517fe602df05000000000000000000000000000000000000000000000000000000008152600401610d2d919061110d565b60405180910390fd5b5f73ffffffffffffffffffffffffffffffffffffffff168373ffffffffffffffffffffffffffffffffffffffff1603610da6575f6040517f94280d62000000000000000000000000000000000000000000000000000000008152600401610d9d919061110d565b60405180910390fd5b8160025f8673ffffffffffffffffffffffffffffffffffffffff1673ffffffffffffffffffffffffffffffffffffffff1681526020019081526020015f205f8573ffffffffffffffffffffffffffffffffffffffff1673ffffffffffffffffffffffffffffffffffffffff1681526020019081526020015f20819055508015610e8f578273ffffffffffffffffffffffffffffffffffffffff168473ffffffffffffffffffffffffffffffffffffffff167f8c5be1e5ebec7d5bd14f71427d1e84f3dd0314c0f7b2291e5b200ac8c7c3b92584604051610e869190611036565b60405180910390a35b50505050565b5f81519050919050565b5f82825260208201905092915050565b8281835e5f83830152505050565b5f601f19601f8301169050919050565b5f610ed782610e95565b610ee18185610e9f565b9350610ef1818560208601610eaf565b610efa81610ebd565b840191505092915050565b5f6020820190508181035f830152610f1d8184610ecd565b905092915050565b5f5ffd5b5f73ffffffffffffffffffffffffffffffffffffffff82169050919050565b5f610f5282610f29565b9050919050565b610f6281610f48565b8114610f6c575f5ffd5b50565b5f81359050610f7d81610f59565b92915050565b5f819050919050565b610f9581610f83565b8114610f9f575f5ffd5b50565b5f81359050610fb081610f8c565b92915050565b5f5f60408385031215610fcc57610fcb610f25565b5b5f610fd985828601610f6f565b9250506020610fea85828601610fa2565b9150509250929050565b5f8115159050919050565b61100881610ff4565b82525050565b5f6020820190506110215f830184610fff565b92915050565b61103081610f83565b82525050565b5f6020820190506110495f830184611027565b92915050565b5f5f5f6060848603121561106657611065610f25565b5b5f61107386828701610f6f565b935050602061108486828701610f6f565b925050604061109586828701610fa2565b9150509250925092565b5f60ff82169050919050565b6110b48161109f565b82525050565b5f6020820190506110cd5f8301846110ab565b92915050565b5f602082840312156110e8576110e7610f25565b5b5f6110f584828501610f6f565b91505092915050565b61110781610f48565b82525050565b5f6020820190506111205f8301846110fe565b92915050565b5f5f6040838503121561113c5761113b610f25565b5b5f61114985828601610f6f565b925050602061115a85828601610f6f565b9150509250929050565b7f4e487b71000000000000000000000000000000000000000000000000000000005f52602260045260245ffd5b5f60028204905060018216806111a857607f821691505b6020821081036111bb576111ba611164565b5b50919050565b5f6060820190506111d45f8301866110fe565b6111e160208301856110fe565b6111ee6040830184611027565b949350505050565b5f6040820190506112095f8301856110fe565b6112166020830184611027565b9392505050565b5f6040820190506112305f8301856110fe565b61123d60208301846110fe565b9392505050565b5f819050919050565b61125681611244565b8114611260575f5ffd5b50565b5f815190506112718161124d565b92915050565b5f6020828403121561128c5761128b610f25565b5b5f61129984828501611263565b91505092915050565b5f81519050919050565b5f82825260208201905092915050565b5f6112c6826112a2565b6112d081856112ac565b93506112e0818560208601610eaf565b6112e981610ebd565b840191505092915050565b5f6020820190508181035f83015261130c81846112bc565b905092915050565b5f6060820190506113275f8301866110fe565b6113346020830185611027565b6113416040830184611027565b949350505050565b7f4e487b71000000000000000000000000000000000000000000000000000000005f52601160045260245ffd5b5f61138082610f83565b915061138b83610f83565b92508282019050808211156113a3576113a2611349565b5b9291505056fea264697066735822122099b39758410895a5697d8cab34a200b4aea1c9e97de6ec102d800d7d9124e46e64736f6c634300081e0033",
        "nonce": "0x7a",
        "chainId": "0xaa36a7"
      },
      "additionalContracts": [],
      "isFixedGasLimit": false
    },
    {
      "hash": "0x3d19b23b9706f5997ab047e72d42a9265c2045bb4c4f34c1285021e54a4f2242",
      "transactionType": "CREATE",
      "contractName": "ExampleERC721Contract",
      "contractAddress": "0xb0bf6a910926b0bd0286da862332f24e35ed3977",
      "function": null,
      "arguments": null,
      "transaction": {
        "from": "0x763deb3f81b32e75cb0e3faa95f4bed94871576d",
        "gas": "0x264b9c",
        "value": "0x0",
        "input": "0x608060405234801561000f575f5ffd5b506040518060400160405280601581526020017f4578616d706c65455243373231436f6e747261637400000000000000000000008152506040518060400160405280600381526020017f4558430000000000000000000000000000000000000000000000000000000000815250816001908161008b91906102e0565b50806002908161009b91906102e0565b5050506103af565b5f81519050919050565b7f4e487b71000000000000000000000000000000000000000000000000000000005f52604160045260245ffd5b7f4e487b71000000000000000000000000000000000000000000000000000000005f52602260045260245ffd5b5f600282049050600182168061011e57607f821691505b602082108103610131576101306100da565b5b50919050565b5f819050815f5260205f209050919050565b5f6020601f8301049050919050565b5f82821b905092915050565b5f600883026101937fffffffffffffffffffffffffffffffffffffffffffffffffffffffffffffffff82610158565b61019d8683610158565b95508019841693508086168417925050509392505050565b5f819050919050565b5f819050919050565b5f6101e16101dc6101d7846101b5565b6101be565b6101b5565b9050919050565b5f819050919050565b6101fa836101c7565b61020e610206826101e8565b848454610164565b825550505050565b5f5f905090565b610225610216565b6102308184846101f1565b505050565b5b81811015610253576102485f8261021d565b600181019050610236565b5050565b601f8211156102985761026981610137565b61027284610149565b81016020851015610281578190505b61029561028d85610149565b830182610235565b50505b505050565b5f82821c905092915050565b5f6102b85f198460080261029d565b1980831691505092915050565b5f6102d083836102a9565b9150826002028217905092915050565b6102e9826100a3565b67ffffffffffffffff811115610302576103016100ad565b5b61030c8254610107565b610317828285610257565b5f60209050601f831160018114610348575f8415610336578287015190505b61034085826102c5565b8655506103a7565b601f19841661035686610137565b5f5b8281101561037d57848901518255600182019150602085019450602081019050610358565b8683101561039a5784890151610396601f8916826102a9565b8355505b6001600288020188555050505b505050505050565b6120f9806103bc5f395ff3fe608060405234801561000f575f5ffd5b5060043610610109575f3560e01c806370a08231116100a0578063b88d4fde1161006f578063b88d4fde146102b3578063c87b56dd146102cf578063d177fe05146102ff578063d51758451461031b578063e985e9c51461033757610109565b806370a082311461022b57806374a75cf91461025b57806395d89b4114610279578063a22cb4651461029757610109565b806323b872dd116100dc57806323b872dd146101a757806340c10f19146101c357806342842e0e146101df5780636352211e146101fb57610109565b806301ffc9a71461010d57806306fdde031461013d578063081812fc1461015b578063095ea7b31461018b575b5f5ffd5b610127600480360381019061012291906118ca565b610367565b604051610134919061190f565b60405180910390f35b610145610448565b6040516101529190611998565b60405180910390f35b610175600480360381019061017091906119eb565b6104d8565b6040516101829190611a55565b60405180910390f35b6101a560048036038101906101a09190611a98565b6104f3565b005b6101c160048036038101906101bc9190611ad6565b610501565b005b6101dd60048036038101906101d89190611a98565b6105ba565b005b6101f960048036038101906101f49190611ad6565b6105c8565b005b610215600480360381019061021091906119eb565b6105e7565b6040516102229190611a55565b60405180910390f35b61024560048036038101906102409190611b26565b6105f8565b6040516102529190611b60565b60405180910390f35b6102636106ae565b6040516102709190611a55565b60405180910390f35b6102816106d2565b60405161028e9190611998565b60405180910390f35b6102b160048036038101906102ac9190611ba3565b610762565b005b6102cd60048036038101906102c89190611d0d565b610778565b005b6102e960048036038101906102e491906119eb565b61079d565b6040516102f69190611998565b60405180910390f35b61031960048036038101906103149190611b26565b610803565b005b61033560048036038101906103309190611b26565b610845565b005b610351600480360381019061034c9190611d8d565b6108e4565b60405161035e919061190f565b60405180910390f35b5f7f80ac58cd000000000000000000000000000000000000000000000000000000007bffffffffffffffffffffffffffffffffffffffffffffffffffffffff1916827bffffffffffffffffffffffffffffffffffffffffffffffffffffffff1916148061043157507f5b5e139f000000000000000000000000000000000000000000000000000000007bffffffffffffffffffffffffffffffffffffffffffffffffffffffff1916827bffffffffffffffffffffffffffffffffffffffffffffffffffffffff1916145b80610441575061044082610972565b5b9050919050565b60606001805461045790611df8565b80601f016020809104026020016040519081016040528092919081815260200182805461048390611df8565b80156104ce5780601f106104a5576101008083540402835291602001916104ce565b820191905f5260205f20905b8154815290600101906020018083116104b157829003601f168201915b5050505050905090565b5f6104e2826109db565b506104ec82610a61565b9050919050565b6104fd8282610a9a565b5050565b8282825f5f357fffffffff000000000000000000000000000000000000000000000000000000001684848460405160240161053e93929190611e28565b604051602081830303815290604052907bffffffffffffffffffffffffffffffffffffffffffffffffffffffff19166020820180517bffffffffffffffffffffffffffffffffffffffffffffffffffffffff838183161783525050505090506105a681610ab0565b6105b1878787610b8d565b50505050505050565b6105c48282610c8c565b5050565b6105e283838360405180602001604052805f815250610778565b505050565b5f6105f1826109db565b9050919050565b5f5f73ffffffffffffffffffffffffffffffffffffffff168273ffffffffffffffffffffffffffffffffffffffff1603610669575f6040517f89c62b640000000000000000000000000000000000000000000000000000000081526004016106609190611a55565b60405180910390fd5b60045f8373ffffffffffffffffffffffffffffffffffffffff1673ffffffffffffffffffffffffffffffffffffffff1681526020019081526020015f20549050919050565b5f5f9054906101000a900473ffffffffffffffffffffffffffffffffffffffff1681565b6060600280546106e190611df8565b80601f016020809104026020016040519081016040528092919081815260200182805461070d90611df8565b80156107585780601f1061072f57610100808354040283529160200191610758565b820191905f5260205f20905b81548152906001019060200180831161073b57829003601f168201915b5050505050905090565b61077461076d610d7f565b8383610d86565b5050565b610783848484610501565b61079761078e610d7f565b85858585610eef565b50505050565b60606107a8826109db565b505f6107b261109b565b90505f8151116107d05760405180602001604052805f8152506107fb565b806107da846110b1565b6040516020016107eb929190611e97565b6040516020818303038152906040525b915050919050565b805f5f6101000a81548173ffffffffffffffffffffffffffffffffffffffff021916908373ffffffffffffffffffffffffffffffffffffffff16021790555050565b5f5f9054906101000a900473ffffffffffffffffffffffffffffffffffffffff1673ffffffffffffffffffffffffffffffffffffffff1663804ba97d30836040518363ffffffff1660e01b81526004016108a0929190611eba565b6020604051808303815f875af11580156108bc573d5f5f3e3d5ffd5b505050506040513d601f19601f820116820180604052508101906108e09190611f14565b5050565b5f60065f8473ffffffffffffffffffffffffffffffffffffffff1673ffffffffffffffffffffffffffffffffffffffff1681526020019081526020015f205f8373ffffffffffffffffffffffffffffffffffffffff1673ffffffffffffffffffffffffffffffffffffffff1681526020019081526020015f205f9054906101000a900460ff16905092915050565b5f7f01ffc9a7000000000000000000000000000000000000000000000000000000007bffffffffffffffffffffffffffffffffffffffffffffffffffffffff1916827bffffffffffffffffffffffffffffffffffffffffffffffffffffffff1916149050919050565b5f5f6109e68361117b565b90505f73ffffffffffffffffffffffffffffffffffffffff168173ffffffffffffffffffffffffffffffffffffffff1603610a5857826040517f7e273289000000000000000000000000000000000000000000000000000000008152600401610a4f9190611b60565b60405180910390fd5b80915050919050565b5f60055f8381526020019081526020015f205f9054906101000a900473ffffffffffffffffffffffffffffffffffffffff169050919050565b610aac8282610aa7610d7f565b6111b4565b5050565b5f73ffffffffffffffffffffffffffffffffffffffff165f5f9054906101000a900473ffffffffffffffffffffffffffffffffffffffff1673ffffffffffffffffffffffffffffffffffffffff1614610b8a575f5f9054906101000a900473ffffffffffffffffffffffffffffffffffffffff1673ffffffffffffffffffffffffffffffffffffffff1663ca328100826040518263ffffffff1660e01b8152600401610b5c9190611f91565b5f604051808303815f87803b158015610b73575f5ffd5b505af1158015610b85573d5f5f3e3d5ffd5b505050505b50565b5f73ffffffffffffffffffffffffffffffffffffffff168273ffffffffffffffffffffffffffffffffffffffff1603610bfd575f6040517f64a0ae92000000000000000000000000000000000000000000000000000000008152600401610bf49190611a55565b60405180910390fd5b5f610c108383610c0b610d7f565b6111c6565b90508373ffffffffffffffffffffffffffffffffffffffff168173ffffffffffffffffffffffffffffffffffffffff1614610c86578382826040517f64283d7b000000000000000000000000000000000000000000000000000000008152600401610c7d93929190611fb1565b60405180910390fd5b50505050565b5f73ffffffffffffffffffffffffffffffffffffffff168273ffffffffffffffffffffffffffffffffffffffff1603610cfc575f6040517f64a0ae92000000000000000000000000000000000000000000000000000000008152600401610cf39190611a55565b60405180910390fd5b5f610d0883835f6111c6565b90505f73ffffffffffffffffffffffffffffffffffffffff168173ffffffffffffffffffffffffffffffffffffffff1614610d7a575f6040517f73c6ac6e000000000000000000000000000000000000000000000000000000008152600401610d719190611a55565b60405180910390fd5b505050565b5f33905090565b5f73ffffffffffffffffffffffffffffffffffffffff168273ffffffffffffffffffffffffffffffffffffffff1603610df657816040517f5b08ba18000000000000000000000000000000000000000000000000000000008152600401610ded9190611a55565b60405180910390fd5b8060065f8573ffffffffffffffffffffffffffffffffffffffff1673ffffffffffffffffffffffffffffffffffffffff1681526020019081526020015f205f8473ffffffffffffffffffffffffffffffffffffffff1673ffffffffffffffffffffffffffffffffffffffff1681526020019081526020015f205f6101000a81548160ff0219169083151502179055508173ffffffffffffffffffffffffffffffffffffffff168373ffffffffffffffffffffffffffffffffffffffff167f17307eab39ab6107e8899845ad3d59bd9653f200f220920489ca2b5937696c3183604051610ee2919061190f565b60405180910390a3505050565b5f8373ffffffffffffffffffffffffffffffffffffffff163b1115611094578273ffffffffffffffffffffffffffffffffffffffff1663150b7a02868685856040518563ffffffff1660e01b8152600401610f4d9493929190611fe6565b6020604051808303815f875af1925050508015610f8857506040513d601f19601f82011682018060405250810190610f859190612044565b60015b611009573d805f8114610fb6576040519150601f19603f3d011682016040523d82523d5f602084013e610fbb565b606091505b505f81510361100157836040517f64a0ae92000000000000000000000000000000000000000000000000000000008152600401610ff89190611a55565b60405180910390fd5b805160208201fd5b63150b7a0260e01b7bffffffffffffffffffffffffffffffffffffffffffffffffffffffff1916817bffffffffffffffffffffffffffffffffffffffffffffffffffffffff19161461109257836040517f64a0ae920000000000000000000000000000000000000000000000000000000081526004016110899190611a55565b60405180910390fd5b505b5050505050565b606060405180602001604052805f815250905090565b60605f60016110bf846113d1565b0190505f8167ffffffffffffffff8111156110dd576110dc611be9565b5b6040519080825280601f01601f19166020018201604052801561110f5781602001600182028036833780820191505090505b5090505f82602083010190505b600115611170578080600190039150507f3031323334353637383961626364656600000000000000000000000000000000600a86061a8153600a85816111655761116461206f565b5b0494505f850361111c575b819350505050919050565b5f60035f8381526020019081526020015f205f9054906101000a900473ffffffffffffffffffffffffffffffffffffffff169050919050565b6111c18383836001611522565b505050565b5f5f6111d18461117b565b90505f73ffffffffffffffffffffffffffffffffffffffff168373ffffffffffffffffffffffffffffffffffffffff1614611212576112118184866116e1565b5b5f73ffffffffffffffffffffffffffffffffffffffff168173ffffffffffffffffffffffffffffffffffffffff161461129d576112515f855f5f611522565b600160045f8373ffffffffffffffffffffffffffffffffffffffff1673ffffffffffffffffffffffffffffffffffffffff1681526020019081526020015f205f82825403925050819055505b5f73ffffffffffffffffffffffffffffffffffffffff168573ffffffffffffffffffffffffffffffffffffffff161461131c57600160045f8773ffffffffffffffffffffffffffffffffffffffff1673ffffffffffffffffffffffffffffffffffffffff1681526020019081526020015f205f82825401925050819055505b8460035f8681526020019081526020015f205f6101000a81548173ffffffffffffffffffffffffffffffffffffffff021916908373ffffffffffffffffffffffffffffffffffffffff160217905550838573ffffffffffffffffffffffffffffffffffffffff168273ffffffffffffffffffffffffffffffffffffffff167fddf252ad1be2c89b69c2b068fc378daa952ba7f163c4a11628f55a4df523b3ef60405160405180910390a4809150509392505050565b5f5f5f90507a184f03e93ff9f4daa797ed6e38ed64bf6a1f010000000000000000831061142d577a184f03e93ff9f4daa797ed6e38ed64bf6a1f01000000000000000083816114235761142261206f565b5b0492506040810190505b6d04ee2d6d415b85acef8100000000831061146a576d04ee2d6d415b85acef810000000083816114605761145f61206f565b5b0492506020810190505b662386f26fc10000831061149957662386f26fc10000838161148f5761148e61206f565b5b0492506010810190505b6305f5e10083106114c2576305f5e10083816114b8576114b761206f565b5b0492506008810190505b61271083106114e75761271083816114dd576114dc61206f565b5b0492506004810190505b6064831061150a5760648381611500576114ff61206f565b5b0492506002810190505b600a8310611519576001810190505b80915050919050565b808061155a57505f73ffffffffffffffffffffffffffffffffffffffff168273ffffffffffffffffffffffffffffffffffffffff1614155b1561168c575f611569846109db565b90505f73ffffffffffffffffffffffffffffffffffffffff168373ffffffffffffffffffffffffffffffffffffffff16141580156115d357508273ffffffffffffffffffffffffffffffffffffffff168173ffffffffffffffffffffffffffffffffffffffff1614155b80156115e657506115e481846108e4565b155b1561162857826040517fa9fbf51f00000000000000000000000000000000000000000000000000000000815260040161161f9190611a55565b60405180910390fd5b811561168a57838573ffffffffffffffffffffffffffffffffffffffff168273ffffffffffffffffffffffffffffffffffffffff167f8c5be1e5ebec7d5bd14f71427d1e84f3dd0314c0f7b2291e5b200ac8c7c3b92560405160405180910390a45b505b8360055f8581526020019081526020015f205f6101000a81548173ffffffffffffffffffffffffffffffffffffffff021916908373ffffffffffffffffffffffffffffffffffffffff16021790555050505050565b6116ec8383836117a4565b61179f575f73ffffffffffffffffffffffffffffffffffffffff168373ffffffffffffffffffffffffffffffffffffffff160361176057806040517f7e2732890000000000000000000000000000000000000000000000000000000081526004016117579190611b60565b60405180910390fd5b81816040517f177e802f00000000000000000000000000000000000000000000000000000000815260040161179692919061209c565b60405180910390fd5b505050565b5f5f73ffffffffffffffffffffffffffffffffffffffff168373ffffffffffffffffffffffffffffffffffffffff161415801561185b57508273ffffffffffffffffffffffffffffffffffffffff168473ffffffffffffffffffffffffffffffffffffffff16148061181c575061181b84846108e4565b5b8061185a57508273ffffffffffffffffffffffffffffffffffffffff1661184283610a61565b73ffffffffffffffffffffffffffffffffffffffff16145b5b90509392505050565b5f604051905090565b5f5ffd5b5f5ffd5b5f7fffffffff0000000000000000000000000000000000000000000000000000000082169050919050565b6118a981611875565b81146118b3575f5ffd5b50565b5f813590506118c4816118a0565b92915050565b5f602082840312156118df576118de61186d565b5b5f6118ec848285016118b6565b91505092915050565b5f8115159050919050565b611909816118f5565b82525050565b5f6020820190506119225f830184611900565b92915050565b5f81519050919050565b5f82825260208201905092915050565b8281835e5f83830152505050565b5f601f19601f8301169050919050565b5f61196a82611928565b6119748185611932565b9350611984818560208601611942565b61198d81611950565b840191505092915050565b5f6020820190508181035f8301526119b08184611960565b905092915050565b5f819050919050565b6119ca816119b8565b81146119d4575f5ffd5b50565b5f813590506119e5816119c1565b92915050565b5f60208284031215611a00576119ff61186d565b5b5f611a0d848285016119d7565b91505092915050565b5f73ffffffffffffffffffffffffffffffffffffffff82169050919050565b5f611a3f82611a16565b9050919050565b611a4f81611a35565b82525050565b5f602082019050611a685f830184611a46565b92915050565b611a7781611a35565b8114611a81575f5ffd5b50565b5f81359050611a9281611a6e565b92915050565b5f5f60408385031215611aae57611aad61186d565b5b5f611abb85828601611a84565b9250506020611acc858286016119d7565b9150509250929050565b5f5f5f60608486031215611aed57611aec61186d565b5b5f611afa86828701611a84565b9350506020611b0b86828701611a84565b9250506040611b1c868287016119d7565b9150509250925092565b5f60208284031215611b3b57611b3a61186d565b5b5f611b4884828501611a84565b91505092915050565b611b5a816119b8565b82525050565b5f602082019050611b735f830184611b51565b92915050565b611b82816118f5565b8114611b8c575f5ffd5b50565b5f81359050611b9d81611b79565b92915050565b5f5f60408385031215611bb957611bb861186d565b5b5f611bc685828601611a84565b9250506020611bd785828601611b8f565b9150509250929050565b5f5ffd5b5f5ffd5b7f4e487b71000000000000000000000000000000000000000000000000000000005f52604160045260245ffd5b611c1f82611950565b810181811067ffffffffffffffff82111715611c3e57611c3d611be9565b5b80604052505050565b5f611c50611864565b9050611c5c8282611c16565b919050565b5f67ffffffffffffffff821115611c7b57611c7a611be9565b5b611c8482611950565b9050602081019050919050565b828183375f83830152505050565b5f611cb1611cac84611c61565b611c47565b905082815260208101848484011115611ccd57611ccc611be5565b5b611cd8848285611c91565b509392505050565b5f82601f830112611cf457611cf3611be1565b5b8135611d04848260208601611c9f565b91505092915050565b5f5f5f5f60808587031215611d2557611d2461186d565b5b5f611d3287828801611a84565b9450506020611d4387828801611a84565b9350506040611d54878288016119d7565b925050606085013567ffffffffffffffff811115611d7557611d74611871565b5b611d8187828801611ce0565b91505092959194509250565b5f5f60408385031215611da357611da261186d565b5b5f611db085828601611a84565b9250506020611dc185828601611a84565b9150509250929050565b7f4e487b71000000000000000000000000000000000000000000000000000000005f52602260045260245ffd5b5f6002820490506001821680611e0f57607f821691505b602082108103611e2257611e21611dcb565b5b50919050565b5f606082019050611e3b5f830186611a46565b611e486020830185611a46565b611e556040830184611b51565b949350505050565b5f81905092915050565b5f611e7182611928565b611e7b8185611e5d565b9350611e8b818560208601611942565b80840191505092915050565b5f611ea28285611e67565b9150611eae8284611e67565b91508190509392505050565b5f604082019050611ecd5f830185611a46565b611eda6020830184611a46565b9392505050565b5f819050919050565b611ef381611ee1565b8114611efd575f5ffd5b50565b5f81519050611f0e81611eea565b92915050565b5f60208284031215611f2957611f2861186d565b5b5f611f3684828501611f00565b91505092915050565b5f81519050919050565b5f82825260208201905092915050565b5f611f6382611f3f565b611f6d8185611f49565b9350611f7d818560208601611942565b611f8681611950565b840191505092915050565b5f6020820190508181035f830152611fa98184611f59565b905092915050565b5f606082019050611fc45f830186611a46565b611fd16020830185611b51565b611fde6040830184611a46565b949350505050565b5f608082019050611ff95f830187611a46565b6120066020830186611a46565b6120136040830185611b51565b81810360608301526120258184611f59565b905095945050505050565b5f8151905061203e816118a0565b92915050565b5f602082840312156120595761205861186d565b5b5f61206684828501612030565b91505092915050565b7f4e487b71000000000000000000000000000000000000000000000000000000005f52601260045260245ffd5b5f6040820190506120af5f830185611a46565b6120bc6020830184611b51565b939250505056fea26469706673582212206a561d02c8e6914c4439925322d901b63fa2ae5954059ff0f12e84c52433d7b164736f6c634300081e0033",
        "nonce": "0x7b",
        "chainId": "0xaa36a7"
      },
      "additionalContracts": [],
      "isFixedGasLimit": false
    },
    {
      "hash": "0xa1c59ad9b3af82f2b1615a545f0c45148bafa0343c0dde0d0aa18fe31c48c6d6",
      "transactionType": "CALL",
      "contractName": "ExampleERC20Contract",
      "contractAddress": "0x867b5d7653bc012528164f4c957e9de420f43c01",
      "function": "mint(address,uint256)",
      "arguments": [
        "0x763DEB3F81B32E75cb0E3FaA95f4bED94871576D",
        "1000000000000000000"
      ],
      "transaction": {
        "from": "0x763deb3f81b32e75cb0e3faa95f4bed94871576d",
        "to": "0x867b5d7653bc012528164f4c957e9de420f43c01",
        "gas": "0x18a63",
        "value": "0x0",
        "input": "0x40c10f19000000000000000000000000763deb3f81b32e75cb0e3faa95f4bed94871576d0000000000000000000000000000000000000000000000000de0b6b3a7640000",
        "nonce": "0x7c",
        "chainId": "0xaa36a7"
      },
      "additionalContracts": [],
      "isFixedGasLimit": false
    },
    {
      "hash": "0x9640b32936dfd4163dbad79b6fa868869a38ff390ff3102b33286109d572ee02",
      "transactionType": "CALL",
      "contractName": "ExampleERC721Contract",
      "contractAddress": "0xb0bf6a910926b0bd0286da862332f24e35ed3977",
      "function": "mint(address,uint256)",
      "arguments": [
        "0x763DEB3F81B32E75cb0E3FaA95f4bED94871576D",
        "0"
      ],
      "transaction": {
        "from": "0x763deb3f81b32e75cb0e3faa95f4bed94871576d",
        "to": "0xb0bf6a910926b0bd0286da862332f24e35ed3977",
        "gas": "0x1750c",
        "value": "0x0",
        "input": "0x40c10f19000000000000000000000000763deb3f81b32e75cb0e3faa95f4bed94871576d0000000000000000000000000000000000000000000000000000000000000000",
        "nonce": "0x7d",
        "chainId": "0xaa36a7"
      },
      "additionalContracts": [],
      "isFixedGasLimit": false
    },
    {
      "hash": "0xeafa8d062e851d26a1cb9aba0ca03c1ebfb7329bc78f73cbf61067b37f23a377",
      "transactionType": "CALL",
      "contractName": "ExampleERC721Contract",
      "contractAddress": "0xb0bf6a910926b0bd0286da862332f24e35ed3977",
      "function": "mint(address,uint256)",
      "arguments": [
        "0x763DEB3F81B32E75cb0E3FaA95f4bED94871576D",
        "1"
      ],
      "transaction": {
        "from": "0x763deb3f81b32e75cb0e3faa95f4bed94871576d",
        "to": "0xb0bf6a910926b0bd0286da862332f24e35ed3977",
        "gas": "0x118d9",
        "value": "0x0",
        "input": "0x40c10f19000000000000000000000000763deb3f81b32e75cb0e3faa95f4bed94871576d0000000000000000000000000000000000000000000000000000000000000001",
        "nonce": "0x7e",
        "chainId": "0xaa36a7"
      },
      "additionalContracts": [],
      "isFixedGasLimit": false
    },
    {
      "hash": "0x5c6035a89198acfcee3f8620c14a316ff8462aa76838996a69ebdb237098be41",
      "transactionType": "CALL",
      "contractName": "ExampleERC721Contract",
      "contractAddress": "0xb0bf6a910926b0bd0286da862332f24e35ed3977",
      "function": "mint(address,uint256)",
      "arguments": [
        "0x763DEB3F81B32E75cb0E3FaA95f4bED94871576D",
        "2"
      ],
      "transaction": {
        "from": "0x763deb3f81b32e75cb0e3faa95f4bed94871576d",
        "to": "0xb0bf6a910926b0bd0286da862332f24e35ed3977",
        "gas": "0x118d9",
        "value": "0x0",
        "input": "0x40c10f19000000000000000000000000763deb3f81b32e75cb0e3faa95f4bed94871576d0000000000000000000000000000000000000000000000000000000000000002",
        "nonce": "0x7f",
        "chainId": "0xaa36a7"
      },
      "additionalContracts": [],
      "isFixedGasLimit": false
    },
    {
      "hash": "0x0d915a41d9fe11d061c433ec15457d2ded0da60835b93eba532217f6d0131a46",
      "transactionType": "CALL",
      "contractName": "ExampleERC721Contract",
      "contractAddress": "0xb0bf6a910926b0bd0286da862332f24e35ed3977",
      "function": "mint(address,uint256)",
      "arguments": [
        "0x763DEB3F81B32E75cb0E3FaA95f4bED94871576D",
        "3"
      ],
      "transaction": {
        "from": "0x763deb3f81b32e75cb0e3faa95f4bed94871576d",
        "to": "0xb0bf6a910926b0bd0286da862332f24e35ed3977",
        "gas": "0x118d9",
        "value": "0x0",
        "input": "0x40c10f19000000000000000000000000763deb3f81b32e75cb0e3faa95f4bed94871576d0000000000000000000000000000000000000000000000000000000000000003",
        "nonce": "0x80",
        "chainId": "0xaa36a7"
      },
      "additionalContracts": [],
      "isFixedGasLimit": false
    },
    {
      "hash": "0x84dc8caf1a6d35db3aaabd611c42d154d1028d1e61b71a2944cff5f36fe0a890",
      "transactionType": "CALL",
      "contractName": "ExampleERC721Contract",
      "contractAddress": "0xb0bf6a910926b0bd0286da862332f24e35ed3977",
      "function": "mint(address,uint256)",
      "arguments": [
        "0x763DEB3F81B32E75cb0E3FaA95f4bED94871576D",
        "4"
      ],
      "transaction": {
        "from": "0x763deb3f81b32e75cb0e3faa95f4bed94871576d",
        "to": "0xb0bf6a910926b0bd0286da862332f24e35ed3977",
        "gas": "0x118d9",
        "value": "0x0",
        "input": "0x40c10f19000000000000000000000000763deb3f81b32e75cb0e3faa95f4bed94871576d0000000000000000000000000000000000000000000000000000000000000004",
        "nonce": "0x81",
        "chainId": "0xaa36a7"
      },
      "additionalContracts": [],
      "isFixedGasLimit": false
    },
    {
      "hash": "0x00d129a2e17be475cb8624a475c7a55212e6ea3393aa1d4e5206917dbe24ad45",
      "transactionType": "CALL",
      "contractName": "ExampleERC721Contract",
      "contractAddress": "0xb0bf6a910926b0bd0286da862332f24e35ed3977",
      "function": "mint(address,uint256)",
      "arguments": [
        "0x763DEB3F81B32E75cb0E3FaA95f4bED94871576D",
        "5"
      ],
      "transaction": {
        "from": "0x763deb3f81b32e75cb0e3faa95f4bed94871576d",
        "to": "0xb0bf6a910926b0bd0286da862332f24e35ed3977",
        "gas": "0x118d9",
        "value": "0x0",
        "input": "0x40c10f19000000000000000000000000763deb3f81b32e75cb0e3faa95f4bed94871576d0000000000000000000000000000000000000000000000000000000000000005",
        "nonce": "0x82",
        "chainId": "0xaa36a7"
      },
      "additionalContracts": [],
      "isFixedGasLimit": false
    },
    {
      "hash": "0xbb90b2f7cfe95a0e7098d11d3ee573f028e7efb5512073d61c42363480ce5fb7",
      "transactionType": "CALL",
      "contractName": "ExampleERC721Contract",
      "contractAddress": "0xb0bf6a910926b0bd0286da862332f24e35ed3977",
      "function": "mint(address,uint256)",
      "arguments": [
        "0x763DEB3F81B32E75cb0E3FaA95f4bED94871576D",
        "6"
      ],
      "transaction": {
        "from": "0x763deb3f81b32e75cb0e3faa95f4bed94871576d",
        "to": "0xb0bf6a910926b0bd0286da862332f24e35ed3977",
        "gas": "0x118d9",
        "value": "0x0",
        "input": "0x40c10f19000000000000000000000000763deb3f81b32e75cb0e3faa95f4bed94871576d0000000000000000000000000000000000000000000000000000000000000006",
        "nonce": "0x83",
        "chainId": "0xaa36a7"
      },
      "additionalContracts": [],
      "isFixedGasLimit": false
    },
    {
      "hash": "0x102a057058ca7dd87907f296061ca05fe5fb90e4cb22643c4fbf87bb2819e924",
      "transactionType": "CALL",
      "contractName": "ExampleERC721Contract",
      "contractAddress": "0xb0bf6a910926b0bd0286da862332f24e35ed3977",
      "function": "mint(address,uint256)",
      "arguments": [
        "0x763DEB3F81B32E75cb0E3FaA95f4bED94871576D",
        "7"
      ],
      "transaction": {
        "from": "0x763deb3f81b32e75cb0e3faa95f4bed94871576d",
        "to": "0xb0bf6a910926b0bd0286da862332f24e35ed3977",
        "gas": "0x118d9",
        "value": "0x0",
        "input": "0x40c10f19000000000000000000000000763deb3f81b32e75cb0e3faa95f4bed94871576d0000000000000000000000000000000000000000000000000000000000000007",
        "nonce": "0x84",
        "chainId": "0xaa36a7"
      },
      "additionalContracts": [],
      "isFixedGasLimit": false
    },
    {
      "hash": "0x57a833cbb97381532581878f9fe741824de4f9ce95d6825cd744468993177418",
      "transactionType": "CALL",
      "contractName": "ExampleERC721Contract",
      "contractAddress": "0xb0bf6a910926b0bd0286da862332f24e35ed3977",
      "function": "mint(address,uint256)",
      "arguments": [
        "0x763DEB3F81B32E75cb0E3FaA95f4bED94871576D",
        "8"
      ],
      "transaction": {
        "from": "0x763deb3f81b32e75cb0e3faa95f4bed94871576d",
        "to": "0xb0bf6a910926b0bd0286da862332f24e35ed3977",
        "gas": "0x118d9",
        "value": "0x0",
        "input": "0x40c10f19000000000000000000000000763deb3f81b32e75cb0e3faa95f4bed94871576d0000000000000000000000000000000000000000000000000000000000000008",
        "nonce": "0x85",
        "chainId": "0xaa36a7"
      },
      "additionalContracts": [],
      "isFixedGasLimit": false
    },
    {
      "hash": "0x6fd4c48b00834d193bf9215ecbdcaea5d17e075ca4678f8a3c1b7c5b28899df8",
      "transactionType": "CALL",
      "contractName": "ExampleERC721Contract",
      "contractAddress": "0xb0bf6a910926b0bd0286da862332f24e35ed3977",
      "function": "mint(address,uint256)",
      "arguments": [
        "0x763DEB3F81B32E75cb0E3FaA95f4bED94871576D",
        "9"
      ],
      "transaction": {
        "from": "0x763deb3f81b32e75cb0e3faa95f4bed94871576d",
        "to": "0xb0bf6a910926b0bd0286da862332f24e35ed3977",
        "gas": "0x118d9",
        "value": "0x0",
        "input": "0x40c10f19000000000000000000000000763deb3f81b32e75cb0e3faa95f4bed94871576d0000000000000000000000000000000000000000000000000000000000000009",
        "nonce": "0x86",
        "chainId": "0xaa36a7"
      },
      "additionalContracts": [],
      "isFixedGasLimit": false
    },
    {
      "hash": "0xf4ca7226329a711c0862dc58f8ced858cce9cfedeff36623802e6fe739906677",
      "transactionType": "CALL",
      "contractName": "ExampleERC20Contract",
      "contractAddress": "0x867b5d7653bc012528164f4c957e9de420f43c01",
      "function": "setRulesEngineAddress(address)",
      "arguments": [
        "0x6039C14B2B50577C2F22D943F4984466D6B6D3e1"
      ],
      "transaction": {
        "from": "0x763deb3f81b32e75cb0e3faa95f4bed94871576d",
        "to": "0x867b5d7653bc012528164f4c957e9de420f43c01",
        "gas": "0xfbe1",
        "value": "0x0",
        "input": "0xd177fe050000000000000000000000006039c14b2b50577c2f22d943f4984466d6b6d3e1",
        "nonce": "0x87",
        "chainId": "0xaa36a7"
      },
      "additionalContracts": [],
      "isFixedGasLimit": false
    },
    {
      "hash": "0xd2e17a12700afe54a0106393b6209a9b4e8867e095856009d12b5c93498c5165",
      "transactionType": "CALL",
      "contractName": "ExampleERC721Contract",
      "contractAddress": "0xb0bf6a910926b0bd0286da862332f24e35ed3977",
      "function": "setRulesEngineAddress(address)",
      "arguments": [
        "0x6039C14B2B50577C2F22D943F4984466D6B6D3e1"
      ],
      "transaction": {
        "from": "0x763deb3f81b32e75cb0e3faa95f4bed94871576d",
        "to": "0xb0bf6a910926b0bd0286da862332f24e35ed3977",
        "gas": "0xee01",
        "value": "0x0",
        "input": "0xd177fe050000000000000000000000006039c14b2b50577c2f22d943f4984466d6b6d3e1",
        "nonce": "0x88",
        "chainId": "0xaa36a7"
      },
      "additionalContracts": [],
      "isFixedGasLimit": false
    },
    {
      "hash": "0x0c0838ec59ae5f3fb1a7935030aff40ddafca7f24b6900dd8862fbba18d7355b",
      "transactionType": "CALL",
      "contractName": "ExampleERC20Contract",
      "contractAddress": "0x867b5d7653bc012528164f4c957e9de420f43c01",
      "function": "setCallingContractAdmin(address)",
      "arguments": [
        "0x763DEB3F81B32E75cb0E3FaA95f4bED94871576D"
      ],
      "transaction": {
        "from": "0x763deb3f81b32e75cb0e3faa95f4bed94871576d",
        "to": "0x867b5d7653bc012528164f4c957e9de420f43c01",
        "gas": "0x2bba2",
        "value": "0x0",
        "input": "0xd5175845000000000000000000000000763deb3f81b32e75cb0e3faa95f4bed94871576d",
        "nonce": "0x89",
        "chainId": "0xaa36a7"
      },
      "additionalContracts": [],
      "isFixedGasLimit": false
    },
    {
      "hash": "0x1a65cb65a0da34651ca94ba1b3885856102d8140f15e6a313ef61c0e0969b494",
      "transactionType": "CALL",
      "contractName": "ExampleERC721Contract",
      "contractAddress": "0xb0bf6a910926b0bd0286da862332f24e35ed3977",
      "function": "setCallingContractAdmin(address)",
      "arguments": [
        "0x763DEB3F81B32E75cb0E3FaA95f4bED94871576D"
      ],
      "transaction": {
        "from": "0x763deb3f81b32e75cb0e3faa95f4bed94871576d",
        "to": "0xb0bf6a910926b0bd0286da862332f24e35ed3977",
        "gas": "0x2bbc0",
        "value": "0x0",
        "input": "0xd5175845000000000000000000000000763deb3f81b32e75cb0e3faa95f4bed94871576d",
        "nonce": "0x8a",
        "chainId": "0xaa36a7"
      },
      "additionalContracts": [],
      "isFixedGasLimit": false
    }
  ],
  "receipts": [
    {
      "status": "0x1",
      "cumulativeGasUsed": "0xceb342",
      "logs": [],
      "logsBloom": "0x00000000000000000000000000000000000000000000000000000000000000000000000000000000000000000000000000000000000000000000000000000000000000000000000000000000000000000000000000000000000000000000000000000000000000000000000000000000000000000000000000000000000000000000000000000000000000000000000000000000000000000000000000000000000000000000000000000000000000000000000000000000000000000000000000000000000000000000000000000000000000000000000000000000000000000000000000000000000000000000000000000000000000000000000000000000",
      "type": "0x2",
      "transactionHash": "0xeba1930cf232f9b91433651dc706bfe33b22a0f0f593badcb685d34ea26aad7c",
      "transactionIndex": "0x63",
      "blockHash": "0x6958033a70e5d35a6010389da747bf5c9dcf5a35ce8aab380f767a5d0402ecfb",
      "blockNumber": "0x8802bc",
      "gasUsed": "0x127206",
      "effectiveGasPrice": "0x100fb4",
      "from": "0x763deb3f81b32e75cb0e3faa95f4bed94871576d",
      "to": null,
      "contractAddress": "0x867b5d7653bc012528164f4c957e9de420f43c01"
    },
    {
      "status": "0x1",
      "cumulativeGasUsed": "0xec287f",
      "logs": [],
      "logsBloom": "0x00000000000000000000000000000000000000000000000000000000000000000000000000000000000000000000000000000000000000000000000000000000000000000000000000000000000000000000000000000000000000000000000000000000000000000000000000000000000000000000000000000000000000000000000000000000000000000000000000000000000000000000000000000000000000000000000000000000000000000000000000000000000000000000000000000000000000000000000000000000000000000000000000000000000000000000000000000000000000000000000000000000000000000000000000000000",
      "type": "0x2",
      "transactionHash": "0x3d19b23b9706f5997ab047e72d42a9265c2045bb4c4f34c1285021e54a4f2242",
      "transactionIndex": "0x64",
      "blockHash": "0x6958033a70e5d35a6010389da747bf5c9dcf5a35ce8aab380f767a5d0402ecfb",
      "blockNumber": "0x8802bc",
      "gasUsed": "0x1d753d",
      "effectiveGasPrice": "0x100fb4",
      "from": "0x763deb3f81b32e75cb0e3faa95f4bed94871576d",
      "to": null,
      "contractAddress": "0xb0bf6a910926b0bd0286da862332f24e35ed3977"
    },
    {
      "status": "0x1",
      "cumulativeGasUsed": "0xed362a",
      "logs": [
        {
          "address": "0x867b5d7653bc012528164f4c957e9de420f43c01",
          "topics": [
            "0xddf252ad1be2c89b69c2b068fc378daa952ba7f163c4a11628f55a4df523b3ef",
            "0x0000000000000000000000000000000000000000000000000000000000000000",
            "0x000000000000000000000000763deb3f81b32e75cb0e3faa95f4bed94871576d"
          ],
          "data": "0x0000000000000000000000000000000000000000000000000de0b6b3a7640000",
          "blockHash": "0x6958033a70e5d35a6010389da747bf5c9dcf5a35ce8aab380f767a5d0402ecfb",
          "blockNumber": "0x8802bc",
          "blockTimestamp": "0x68912598",
          "transactionHash": "0xa1c59ad9b3af82f2b1615a545f0c45148bafa0343c0dde0d0aa18fe31c48c6d6",
          "transactionIndex": "0x65",
          "logIndex": "0x87",
          "removed": false
        }
      ],
      "logsBloom": "0x00000000000000000000000000000000000000000000000000000000000000000000000000000000000000000000000000000000000000000000000000800000000000000000000000000008000200000000000000000000000000000000000000000000020000000000000000000800000000000000000000000010000002000000000000000000000000000000000000000000000000000400000000000000000000000000000000000000000000000000000000000020000000000400000000000002000000000000000000000000000000000000000000000000000020000000000000000000000000000000000000000000000000000000000000000000",
      "type": "0x2",
      "transactionHash": "0xa1c59ad9b3af82f2b1615a545f0c45148bafa0343c0dde0d0aa18fe31c48c6d6",
      "transactionIndex": "0x65",
      "blockHash": "0x6958033a70e5d35a6010389da747bf5c9dcf5a35ce8aab380f767a5d0402ecfb",
      "blockNumber": "0x8802bc",
      "gasUsed": "0x10dab",
      "effectiveGasPrice": "0x100fb4",
      "from": "0x763deb3f81b32e75cb0e3faa95f4bed94871576d",
      "to": "0x867b5d7653bc012528164f4c957e9de420f43c01",
      "contractAddress": null
    },
    {
      "status": "0x1",
      "cumulativeGasUsed": "0xee443f",
      "logs": [
        {
          "address": "0xb0bf6a910926b0bd0286da862332f24e35ed3977",
          "topics": [
            "0xddf252ad1be2c89b69c2b068fc378daa952ba7f163c4a11628f55a4df523b3ef",
            "0x0000000000000000000000000000000000000000000000000000000000000000",
            "0x000000000000000000000000763deb3f81b32e75cb0e3faa95f4bed94871576d",
            "0x0000000000000000000000000000000000000000000000000000000000000000"
          ],
          "data": "0x",
          "blockHash": "0x6958033a70e5d35a6010389da747bf5c9dcf5a35ce8aab380f767a5d0402ecfb",
          "blockNumber": "0x8802bc",
          "blockTimestamp": "0x68912598",
          "transactionHash": "0x9640b32936dfd4163dbad79b6fa868869a38ff390ff3102b33286109d572ee02",
          "transactionIndex": "0x66",
          "logIndex": "0x88",
          "removed": false
        }
      ],
      "logsBloom": "0x00000000000000000000000000000080000000000000000000000000000000000000000000000000000000000000000000000000000000000000000000000000000000000000000000000008000200000000000000000000000000000000000000000000020000000000000000000800000000000000000000000010000000000000000000000000000000000000000000000000000000000400000000000000000000000000000000000000000000000000000000000020000000000000000000000002000000000000000000000000000000000000000000000000000020000000000000000000000000000008000000002000000000000000000000000000",
      "type": "0x2",
      "transactionHash": "0x9640b32936dfd4163dbad79b6fa868869a38ff390ff3102b33286109d572ee02",
      "transactionIndex": "0x66",
      "blockHash": "0x6958033a70e5d35a6010389da747bf5c9dcf5a35ce8aab380f767a5d0402ecfb",
      "blockNumber": "0x8802bc",
      "gasUsed": "0x10e15",
      "effectiveGasPrice": "0x100fb4",
      "from": "0x763deb3f81b32e75cb0e3faa95f4bed94871576d",
      "to": "0xb0bf6a910926b0bd0286da862332f24e35ed3977",
      "contractAddress": null
    },
    {
      "status": "0x1",
      "cumulativeGasUsed": "0xef0f94",
      "logs": [
        {
          "address": "0xb0bf6a910926b0bd0286da862332f24e35ed3977",
          "topics": [
            "0xddf252ad1be2c89b69c2b068fc378daa952ba7f163c4a11628f55a4df523b3ef",
            "0x0000000000000000000000000000000000000000000000000000000000000000",
            "0x000000000000000000000000763deb3f81b32e75cb0e3faa95f4bed94871576d",
            "0x0000000000000000000000000000000000000000000000000000000000000001"
          ],
          "data": "0x",
          "blockHash": "0x6958033a70e5d35a6010389da747bf5c9dcf5a35ce8aab380f767a5d0402ecfb",
          "blockNumber": "0x8802bc",
          "blockTimestamp": "0x68912598",
          "transactionHash": "0xeafa8d062e851d26a1cb9aba0ca03c1ebfb7329bc78f73cbf61067b37f23a377",
          "transactionIndex": "0x67",
          "logIndex": "0x89",
          "removed": false
        }
      ],
      "logsBloom": "0x00000000000000000000000000000080000000000000000000000000000000000000000000000000000000000000000000000000000000000000000000040000000000000000000000000008000200000000000000040000000000000000000000000000020000000000000000000800000000000000000000000010000000000000000000000000000000000000000000000000000000000400000000000000000000000000000000000000000000000000000000000020000000000000000000000002000000000000000000000000000000000000000000000000000060000000000000000000000000000008000000002000000000000000000000000000",
      "type": "0x2",
      "transactionHash": "0xeafa8d062e851d26a1cb9aba0ca03c1ebfb7329bc78f73cbf61067b37f23a377",
      "transactionIndex": "0x67",
      "blockHash": "0x6958033a70e5d35a6010389da747bf5c9dcf5a35ce8aab380f767a5d0402ecfb",
      "blockNumber": "0x8802bc",
      "gasUsed": "0xcb55",
      "effectiveGasPrice": "0x100fb4",
      "from": "0x763deb3f81b32e75cb0e3faa95f4bed94871576d",
      "to": "0xb0bf6a910926b0bd0286da862332f24e35ed3977",
      "contractAddress": null
    },
    {
      "status": "0x1",
      "cumulativeGasUsed": "0xefdae9",
      "logs": [
        {
          "address": "0xb0bf6a910926b0bd0286da862332f24e35ed3977",
          "topics": [
            "0xddf252ad1be2c89b69c2b068fc378daa952ba7f163c4a11628f55a4df523b3ef",
            "0x0000000000000000000000000000000000000000000000000000000000000000",
            "0x000000000000000000000000763deb3f81b32e75cb0e3faa95f4bed94871576d",
            "0x0000000000000000000000000000000000000000000000000000000000000002"
          ],
          "data": "0x",
          "blockHash": "0x6958033a70e5d35a6010389da747bf5c9dcf5a35ce8aab380f767a5d0402ecfb",
          "blockNumber": "0x8802bc",
          "blockTimestamp": "0x68912598",
          "transactionHash": "0x5c6035a89198acfcee3f8620c14a316ff8462aa76838996a69ebdb237098be41",
          "transactionIndex": "0x68",
          "logIndex": "0x8a",
          "removed": false
        }
      ],
      "logsBloom": "0x04000000000000000000000000000080000000000000000000000000000000000000000000000000000000000000000000000000000000000000000000000000000000000000000000000008000200000000000000000000000000000000000000000000020000000000000000000800000000000000000000000010000000000000000000000000000000000000000000000000000000000400000000000000000000000000000000000100000000000000000000000020000000000000000000000002000000000000000000000000000000000000000000000000000020000000000000000000000000000008000000002000008000000000000000000000",
      "type": "0x2",
      "transactionHash": "0x5c6035a89198acfcee3f8620c14a316ff8462aa76838996a69ebdb237098be41",
      "transactionIndex": "0x68",
      "blockHash": "0x6958033a70e5d35a6010389da747bf5c9dcf5a35ce8aab380f767a5d0402ecfb",
      "blockNumber": "0x8802bc",
      "gasUsed": "0xcb55",
      "effectiveGasPrice": "0x100fb4",
      "from": "0x763deb3f81b32e75cb0e3faa95f4bed94871576d",
      "to": "0xb0bf6a910926b0bd0286da862332f24e35ed3977",
      "contractAddress": null
    },
    {
      "status": "0x1",
      "cumulativeGasUsed": "0xf0a63e",
      "logs": [
        {
          "address": "0xb0bf6a910926b0bd0286da862332f24e35ed3977",
          "topics": [
            "0xddf252ad1be2c89b69c2b068fc378daa952ba7f163c4a11628f55a4df523b3ef",
            "0x0000000000000000000000000000000000000000000000000000000000000000",
            "0x000000000000000000000000763deb3f81b32e75cb0e3faa95f4bed94871576d",
            "0x0000000000000000000000000000000000000000000000000000000000000003"
          ],
          "data": "0x",
          "blockHash": "0x6958033a70e5d35a6010389da747bf5c9dcf5a35ce8aab380f767a5d0402ecfb",
          "blockNumber": "0x8802bc",
          "blockTimestamp": "0x68912598",
          "transactionHash": "0x0d915a41d9fe11d061c433ec15457d2ded0da60835b93eba532217f6d0131a46",
          "transactionIndex": "0x69",
          "logIndex": "0x8b",
          "removed": false
        }
      ],
      "logsBloom": "0x00000000000000000000000000000080000000000000000000000000000000000000000000000000000000000000000000000000020000000000000000000000000000000000000000000008000200000000000000000000000000000000000000000000020000000000000000000800000000000000000000000010000000000000000000000000000000000000000000000000000000000400000000000000000000000000000000000000000000000000000000800020000000000000400000000002000000000000000000000000000000000000000000000000000020000000000000000000000000000008000000002000000000000000000000000000",
      "type": "0x2",
      "transactionHash": "0x0d915a41d9fe11d061c433ec15457d2ded0da60835b93eba532217f6d0131a46",
      "transactionIndex": "0x69",
      "blockHash": "0x6958033a70e5d35a6010389da747bf5c9dcf5a35ce8aab380f767a5d0402ecfb",
      "blockNumber": "0x8802bc",
      "gasUsed": "0xcb55",
      "effectiveGasPrice": "0x100fb4",
      "from": "0x763deb3f81b32e75cb0e3faa95f4bed94871576d",
      "to": "0xb0bf6a910926b0bd0286da862332f24e35ed3977",
      "contractAddress": null
    },
    {
      "status": "0x1",
      "cumulativeGasUsed": "0xf17193",
      "logs": [
        {
          "address": "0xb0bf6a910926b0bd0286da862332f24e35ed3977",
          "topics": [
            "0xddf252ad1be2c89b69c2b068fc378daa952ba7f163c4a11628f55a4df523b3ef",
            "0x0000000000000000000000000000000000000000000000000000000000000000",
            "0x000000000000000000000000763deb3f81b32e75cb0e3faa95f4bed94871576d",
            "0x0000000000000000000000000000000000000000000000000000000000000004"
          ],
          "data": "0x",
          "blockHash": "0x6958033a70e5d35a6010389da747bf5c9dcf5a35ce8aab380f767a5d0402ecfb",
          "blockNumber": "0x8802bc",
          "blockTimestamp": "0x68912598",
          "transactionHash": "0x84dc8caf1a6d35db3aaabd611c42d154d1028d1e61b71a2944cff5f36fe0a890",
          "transactionIndex": "0x6a",
          "logIndex": "0x8c",
          "removed": false
        }
      ],
      "logsBloom": "0x00000000000000000000000000000080000000000000000000000000000000000000000000000000000000000000000000000000000000000000000000000000000000000000000000000008000200000000000000000000000000000000000008000000020000000000000000000800000000000000000000000010000000000000000000000000000000000000000000000000000000000400000000000000000000000000000000000000000000000000000000000020002000000000000000000002000000000000000000000000000000008000000000000000000020000000000000000000000000000008000000002000000000000000000000000000",
      "type": "0x2",
      "transactionHash": "0x84dc8caf1a6d35db3aaabd611c42d154d1028d1e61b71a2944cff5f36fe0a890",
      "transactionIndex": "0x6a",
      "blockHash": "0x6958033a70e5d35a6010389da747bf5c9dcf5a35ce8aab380f767a5d0402ecfb",
      "blockNumber": "0x8802bc",
      "gasUsed": "0xcb55",
      "effectiveGasPrice": "0x100fb4",
      "from": "0x763deb3f81b32e75cb0e3faa95f4bed94871576d",
      "to": "0xb0bf6a910926b0bd0286da862332f24e35ed3977",
      "contractAddress": null
    },
    {
      "status": "0x1",
      "cumulativeGasUsed": "0xf23ce8",
      "logs": [
        {
          "address": "0xb0bf6a910926b0bd0286da862332f24e35ed3977",
          "topics": [
            "0xddf252ad1be2c89b69c2b068fc378daa952ba7f163c4a11628f55a4df523b3ef",
            "0x0000000000000000000000000000000000000000000000000000000000000000",
            "0x000000000000000000000000763deb3f81b32e75cb0e3faa95f4bed94871576d",
            "0x0000000000000000000000000000000000000000000000000000000000000005"
          ],
          "data": "0x",
          "blockHash": "0x6958033a70e5d35a6010389da747bf5c9dcf5a35ce8aab380f767a5d0402ecfb",
          "blockNumber": "0x8802bc",
          "blockTimestamp": "0x68912598",
          "transactionHash": "0x00d129a2e17be475cb8624a475c7a55212e6ea3393aa1d4e5206917dbe24ad45",
          "transactionIndex": "0x6b",
          "logIndex": "0x8d",
          "removed": false
        }
      ],
      "logsBloom": "0x00000000000000000000000000000080000000000000000000000000000000000000000000000000000000000000000000000000000000000000000000000000000010000000000000000008000200000000000000000000000000000000000000000000020000000000000000000800000000000000000000000010000000000000000000000000000000000000001000000800000000000400000000000000000000000000000000000000000000000000000000000020000000000000000000000002000000000000000000000000000000000000000000000000000020000000000000000000000000000008000000002000000000000000000000000000",
      "type": "0x2",
      "transactionHash": "0x00d129a2e17be475cb8624a475c7a55212e6ea3393aa1d4e5206917dbe24ad45",
      "transactionIndex": "0x6b",
      "blockHash": "0x6958033a70e5d35a6010389da747bf5c9dcf5a35ce8aab380f767a5d0402ecfb",
      "blockNumber": "0x8802bc",
      "gasUsed": "0xcb55",
      "effectiveGasPrice": "0x100fb4",
      "from": "0x763deb3f81b32e75cb0e3faa95f4bed94871576d",
      "to": "0xb0bf6a910926b0bd0286da862332f24e35ed3977",
      "contractAddress": null
    },
    {
      "status": "0x1",
      "cumulativeGasUsed": "0xf3083d",
      "logs": [
        {
          "address": "0xb0bf6a910926b0bd0286da862332f24e35ed3977",
          "topics": [
            "0xddf252ad1be2c89b69c2b068fc378daa952ba7f163c4a11628f55a4df523b3ef",
            "0x0000000000000000000000000000000000000000000000000000000000000000",
            "0x000000000000000000000000763deb3f81b32e75cb0e3faa95f4bed94871576d",
            "0x0000000000000000000000000000000000000000000000000000000000000006"
          ],
          "data": "0x",
          "blockHash": "0x6958033a70e5d35a6010389da747bf5c9dcf5a35ce8aab380f767a5d0402ecfb",
          "blockNumber": "0x8802bc",
          "blockTimestamp": "0x68912598",
          "transactionHash": "0xbb90b2f7cfe95a0e7098d11d3ee573f028e7efb5512073d61c42363480ce5fb7",
          "transactionIndex": "0x6c",
          "logIndex": "0x8e",
          "removed": false
        }
      ],
      "logsBloom": "0x00000000000000000000000000000080000000000000000000000000000000000000000000000000000000000000000000000000000400000000000000000000000000000000000000000008000200000000000000000000000000000000000000000000020000000000000000000800000000000000000000000010000000000000000400000000000000000000000000000000000000000400000000000000000000000000000000000000000000000000000000000020000000080000000000000002000000000000000000000000000000000000000000000000000020000000000000000000000000000008000000002000000000000000000000000000",
      "type": "0x2",
      "transactionHash": "0xbb90b2f7cfe95a0e7098d11d3ee573f028e7efb5512073d61c42363480ce5fb7",
      "transactionIndex": "0x6c",
      "blockHash": "0x6958033a70e5d35a6010389da747bf5c9dcf5a35ce8aab380f767a5d0402ecfb",
      "blockNumber": "0x8802bc",
      "gasUsed": "0xcb55",
      "effectiveGasPrice": "0x100fb4",
      "from": "0x763deb3f81b32e75cb0e3faa95f4bed94871576d",
      "to": "0xb0bf6a910926b0bd0286da862332f24e35ed3977",
      "contractAddress": null
    },
    {
      "status": "0x1",
      "cumulativeGasUsed": "0xf3d392",
      "logs": [
        {
          "address": "0xb0bf6a910926b0bd0286da862332f24e35ed3977",
          "topics": [
            "0xddf252ad1be2c89b69c2b068fc378daa952ba7f163c4a11628f55a4df523b3ef",
            "0x0000000000000000000000000000000000000000000000000000000000000000",
            "0x000000000000000000000000763deb3f81b32e75cb0e3faa95f4bed94871576d",
            "0x0000000000000000000000000000000000000000000000000000000000000007"
          ],
          "data": "0x",
          "blockHash": "0x6958033a70e5d35a6010389da747bf5c9dcf5a35ce8aab380f767a5d0402ecfb",
          "blockNumber": "0x8802bc",
          "blockTimestamp": "0x68912598",
          "transactionHash": "0x102a057058ca7dd87907f296061ca05fe5fb90e4cb22643c4fbf87bb2819e924",
          "transactionIndex": "0x6d",
          "logIndex": "0x8f",
          "removed": false
        }
      ],
      "logsBloom": "0x00000000000000000000000000000080000000000000000000000000000000000000000000000000000000000000000000001000000000000000000000000000000020000000000000000008000200000000000000000000000000000000000000000000020000000000000000000800000000000000000000000010000000000000000000000000000000000000000000000000000000000400000000000000000000000000000000000000000000000000000000000020000000000000000000000002000000000000000000000000000000000000000000000100000020000000000000000000000000000008000000002000000000000000000000000000",
      "type": "0x2",
      "transactionHash": "0x102a057058ca7dd87907f296061ca05fe5fb90e4cb22643c4fbf87bb2819e924",
      "transactionIndex": "0x6d",
      "blockHash": "0x6958033a70e5d35a6010389da747bf5c9dcf5a35ce8aab380f767a5d0402ecfb",
      "blockNumber": "0x8802bc",
      "gasUsed": "0xcb55",
      "effectiveGasPrice": "0x100fb4",
      "from": "0x763deb3f81b32e75cb0e3faa95f4bed94871576d",
      "to": "0xb0bf6a910926b0bd0286da862332f24e35ed3977",
      "contractAddress": null
    },
    {
      "status": "0x1",
      "cumulativeGasUsed": "0xf49ee7",
      "logs": [
        {
          "address": "0xb0bf6a910926b0bd0286da862332f24e35ed3977",
          "topics": [
            "0xddf252ad1be2c89b69c2b068fc378daa952ba7f163c4a11628f55a4df523b3ef",
            "0x0000000000000000000000000000000000000000000000000000000000000000",
            "0x000000000000000000000000763deb3f81b32e75cb0e3faa95f4bed94871576d",
            "0x0000000000000000000000000000000000000000000000000000000000000008"
          ],
          "data": "0x",
          "blockHash": "0x6958033a70e5d35a6010389da747bf5c9dcf5a35ce8aab380f767a5d0402ecfb",
          "blockNumber": "0x8802bc",
          "blockTimestamp": "0x68912598",
          "transactionHash": "0x57a833cbb97381532581878f9fe741824de4f9ce95d6825cd744468993177418",
          "transactionIndex": "0x6e",
          "logIndex": "0x90",
          "removed": false
        }
      ],
      "logsBloom": "0x00000000000000000000000000000080000000000000000000000000000000000000000000000000000000000000000000000000000080000000000000000000000000000000000000000008000200000000000000000000000000000000000000000000020000000000000000000800000000000000000000000010000000000080000000000000000000000000000000000000000000000400000000000000000000000000000000000000000000000000000000000020000000000000000040000002000000000000000000000000000000000000000000000000000020000000000000000000000000000008000000002000000000000000000000000000",
      "type": "0x2",
      "transactionHash": "0x57a833cbb97381532581878f9fe741824de4f9ce95d6825cd744468993177418",
      "transactionIndex": "0x6e",
      "blockHash": "0x6958033a70e5d35a6010389da747bf5c9dcf5a35ce8aab380f767a5d0402ecfb",
      "blockNumber": "0x8802bc",
      "gasUsed": "0xcb55",
      "effectiveGasPrice": "0x100fb4",
      "from": "0x763deb3f81b32e75cb0e3faa95f4bed94871576d",
      "to": "0xb0bf6a910926b0bd0286da862332f24e35ed3977",
      "contractAddress": null
    },
    {
      "status": "0x1",
      "cumulativeGasUsed": "0xf56a3c",
      "logs": [
        {
          "address": "0xb0bf6a910926b0bd0286da862332f24e35ed3977",
          "topics": [
            "0xddf252ad1be2c89b69c2b068fc378daa952ba7f163c4a11628f55a4df523b3ef",
            "0x0000000000000000000000000000000000000000000000000000000000000000",
            "0x000000000000000000000000763deb3f81b32e75cb0e3faa95f4bed94871576d",
            "0x0000000000000000000000000000000000000000000000000000000000000009"
          ],
          "data": "0x",
          "blockHash": "0x6958033a70e5d35a6010389da747bf5c9dcf5a35ce8aab380f767a5d0402ecfb",
          "blockNumber": "0x8802bc",
          "blockTimestamp": "0x68912598",
          "transactionHash": "0x6fd4c48b00834d193bf9215ecbdcaea5d17e075ca4678f8a3c1b7c5b28899df8",
          "transactionIndex": "0x6f",
          "logIndex": "0x91",
          "removed": false
        }
      ],
      "logsBloom": "0x00000000000000000000000000000080000000000000000000000000000000000000000000000000000000000000000000000000000000000000000000200000000000000000000000000008000200000000000000000000000000000000000000000000020000000000000000000800000000000000000000000010000000000000000000000000000000000000000000001000000000000400000000000000000000000000000000000000000000000000000000000020000000000000000000000002000000000000000000000000000000000000000000000000000020000000000000000000000000000008000000002000000000000000000000800000",
      "type": "0x2",
      "transactionHash": "0x6fd4c48b00834d193bf9215ecbdcaea5d17e075ca4678f8a3c1b7c5b28899df8",
      "transactionIndex": "0x6f",
      "blockHash": "0x6958033a70e5d35a6010389da747bf5c9dcf5a35ce8aab380f767a5d0402ecfb",
      "blockNumber": "0x8802bc",
      "gasUsed": "0xcb55",
      "effectiveGasPrice": "0x100fb4",
      "from": "0x763deb3f81b32e75cb0e3faa95f4bed94871576d",
      "to": "0xb0bf6a910926b0bd0286da862332f24e35ed3977",
      "contractAddress": null
    },
    {
      "status": "0x1",
      "cumulativeGasUsed": "0xf61676",
      "logs": [],
      "logsBloom": "0x00000000000000000000000000000000000000000000000000000000000000000000000000000000000000000000000000000000000000000000000000000000000000000000000000000000000000000000000000000000000000000000000000000000000000000000000000000000000000000000000000000000000000000000000000000000000000000000000000000000000000000000000000000000000000000000000000000000000000000000000000000000000000000000000000000000000000000000000000000000000000000000000000000000000000000000000000000000000000000000000000000000000000000000000000000000",
      "type": "0x2",
      "transactionHash": "0xf4ca7226329a711c0862dc58f8ced858cce9cfedeff36623802e6fe739906677",
      "transactionIndex": "0x70",
      "blockHash": "0x6958033a70e5d35a6010389da747bf5c9dcf5a35ce8aab380f767a5d0402ecfb",
      "blockNumber": "0x8802bc",
      "gasUsed": "0xac3a",
      "effectiveGasPrice": "0x100fb4",
      "from": "0x763deb3f81b32e75cb0e3faa95f4bed94871576d",
      "to": "0x867b5d7653bc012528164f4c957e9de420f43c01",
      "contractAddress": null
    },
    {
      "status": "0x1",
      "cumulativeGasUsed": "0xf6c2c6",
      "logs": [],
      "logsBloom": "0x00000000000000000000000000000000000000000000000000000000000000000000000000000000000000000000000000000000000000000000000000000000000000000000000000000000000000000000000000000000000000000000000000000000000000000000000000000000000000000000000000000000000000000000000000000000000000000000000000000000000000000000000000000000000000000000000000000000000000000000000000000000000000000000000000000000000000000000000000000000000000000000000000000000000000000000000000000000000000000000000000000000000000000000000000000000",
      "type": "0x2",
      "transactionHash": "0xd2e17a12700afe54a0106393b6209a9b4e8867e095856009d12b5c93498c5165",
      "transactionIndex": "0x71",
      "blockHash": "0x6958033a70e5d35a6010389da747bf5c9dcf5a35ce8aab380f767a5d0402ecfb",
      "blockNumber": "0x8802bc",
      "gasUsed": "0xac50",
      "effectiveGasPrice": "0x100fb4",
      "from": "0x763deb3f81b32e75cb0e3faa95f4bed94871576d",
      "to": "0xb0bf6a910926b0bd0286da862332f24e35ed3977",
      "contractAddress": null
    },
    {
      "status": "0x1",
      "cumulativeGasUsed": "0xf8bd4c",
      "logs": [
        {
          "address": "0x6039c14b2b50577c2f22d943f4984466d6b6d3e1",
          "topics": [
            "0x2f8788117e7eff1d82e926ec794901d17c78024a50270940304540a733656f0d",
            "0x2653d4985094014fc40a977e11ee28ef62a00dc83abefeda11c14a26e08bafe9",
            "0x000000000000000000000000763deb3f81b32e75cb0e3faa95f4bed94871576d",
            "0x000000000000000000000000867b5d7653bc012528164f4c957e9de420f43c01"
          ],
          "data": "0x",
          "blockHash": "0x6958033a70e5d35a6010389da747bf5c9dcf5a35ce8aab380f767a5d0402ecfb",
          "blockNumber": "0x8802bc",
          "blockTimestamp": "0x68912598",
          "transactionHash": "0x0c0838ec59ae5f3fb1a7935030aff40ddafca7f24b6900dd8862fbba18d7355b",
          "transactionIndex": "0x72",
          "logIndex": "0x92",
          "removed": false
        },
        {
          "address": "0x6039c14b2b50577c2f22d943f4984466d6b6d3e1",
          "topics": [
            "0x2b474bca23ad1f8b56bb31f8c22933f265e0e15bb4fcf8bb6c9c1de01f68eb65",
            "0x000000000000000000000000867b5d7653bc012528164f4c957e9de420f43c01",
            "0x000000000000000000000000763deb3f81b32e75cb0e3faa95f4bed94871576d"
          ],
          "data": "0x",
          "blockHash": "0x6958033a70e5d35a6010389da747bf5c9dcf5a35ce8aab380f767a5d0402ecfb",
          "blockNumber": "0x8802bc",
          "blockTimestamp": "0x68912598",
          "transactionHash": "0x0c0838ec59ae5f3fb1a7935030aff40ddafca7f24b6900dd8862fbba18d7355b",
          "transactionIndex": "0x72",
          "logIndex": "0x93",
          "removed": false
        }
      ],
      "logsBloom": "0x00000004800000000000000000000000000000000000000000000000000000000000010000000040000000000000000000000000000080000000000000000000000000000000000000000000000240000000000000000000000000000000000000000000000010020000000000000000000000000000000000000000000000000000000000000000000000000000000000000000000000000400000000000000000000000000000000000000000000000000000000000020001000080800000000000000000000000000000000000008000000000000000100000000000000000000000000000000000000000000000800000000000000000000000000000400",
      "type": "0x2",
      "transactionHash": "0x0c0838ec59ae5f3fb1a7935030aff40ddafca7f24b6900dd8862fbba18d7355b",
      "transactionIndex": "0x72",
      "blockHash": "0x6958033a70e5d35a6010389da747bf5c9dcf5a35ce8aab380f767a5d0402ecfb",
      "blockNumber": "0x8802bc",
      "gasUsed": "0x1fa86",
      "effectiveGasPrice": "0x100fb4",
      "from": "0x763deb3f81b32e75cb0e3faa95f4bed94871576d",
      "to": "0x867b5d7653bc012528164f4c957e9de420f43c01",
      "contractAddress": null
    },
    {
      "status": "0x1",
      "cumulativeGasUsed": "0xfab7e8",
      "logs": [
        {
          "address": "0x6039c14b2b50577c2f22d943f4984466d6b6d3e1",
          "topics": [
            "0x2f8788117e7eff1d82e926ec794901d17c78024a50270940304540a733656f0d",
            "0x820ca73c8f6e47dbe62163a308850ba96740a417e4f1d8b74383572d60e6c451",
            "0x000000000000000000000000763deb3f81b32e75cb0e3faa95f4bed94871576d",
            "0x000000000000000000000000b0bf6a910926b0bd0286da862332f24e35ed3977"
          ],
          "data": "0x",
          "blockHash": "0x6958033a70e5d35a6010389da747bf5c9dcf5a35ce8aab380f767a5d0402ecfb",
          "blockNumber": "0x8802bc",
          "blockTimestamp": "0x68912598",
          "transactionHash": "0x1a65cb65a0da34651ca94ba1b3885856102d8140f15e6a313ef61c0e0969b494",
          "transactionIndex": "0x73",
          "logIndex": "0x94",
          "removed": false
        },
        {
          "address": "0x6039c14b2b50577c2f22d943f4984466d6b6d3e1",
          "topics": [
            "0x2b474bca23ad1f8b56bb31f8c22933f265e0e15bb4fcf8bb6c9c1de01f68eb65",
            "0x000000000000000000000000b0bf6a910926b0bd0286da862332f24e35ed3977",
            "0x000000000000000000000000763deb3f81b32e75cb0e3faa95f4bed94871576d"
          ],
          "data": "0x",
          "blockHash": "0x6958033a70e5d35a6010389da747bf5c9dcf5a35ce8aab380f767a5d0402ecfb",
          "blockNumber": "0x8802bc",
          "blockTimestamp": "0x68912598",
          "transactionHash": "0x1a65cb65a0da34651ca94ba1b3885856102d8140f15e6a313ef61c0e0969b494",
          "transactionIndex": "0x73",
          "logIndex": "0x95",
          "removed": false
        }
      ],
      "logsBloom": "0x00000004000000000000400000000000000000000000000000000000000000000000000000000040000000000000000000000000000000000000000000000000000000000000000000000000000240000000000000000000000000000000000000000000000010020000000000000000000000000000000000000000000000010000000000000000000000000000000000000000000000200400000000000000000000000000000000000000100000000000000000000020001000080000000000000000000000000000000000004000000000000000000100000000000000000000000000000000000000000000000800000000000000000000000000000000",
      "type": "0x2",
      "transactionHash": "0x1a65cb65a0da34651ca94ba1b3885856102d8140f15e6a313ef61c0e0969b494",
      "transactionIndex": "0x73",
      "blockHash": "0x6958033a70e5d35a6010389da747bf5c9dcf5a35ce8aab380f767a5d0402ecfb",
      "blockNumber": "0x8802bc",
      "gasUsed": "0x1fa9c",
      "effectiveGasPrice": "0x100fb4",
      "from": "0x763deb3f81b32e75cb0e3faa95f4bed94871576d",
      "to": "0xb0bf6a910926b0bd0286da862332f24e35ed3977",
      "contractAddress": null
    }
  ],
  "libraries": [],
  "pending": [],
  "returns": {},
  "timestamp": 1754342809,
  "chain": 11155111,
  "commit": "f05e6cf"
}